:10000000C6C0E0C0DFC0DEC0DDC0DCC035C2DAC0C3
:10001000D9C0D8C0D7C0D6C0D5C0D4C0D3C0D2C034
:10002000D1C0E9C9CFC0B4C7A8C7A5C755C954C96D
:1000300053C989C751C968C74FC94EC94DC94CC9B1
:100040004BC94AC949C95CC747C90CC7AEC7F9C63D
:10005000EBC624C741C940C93FC93EC93DC93CC9D7
:100060003BC93AC939C944C7A8C7A8C7A9C7B7C7B0
:10007000C3C748C731C9C4C72FC92EC92DC92CC988
:100080002BC92AC929C928C9B9C7C1C7C7C711C837
:1000900023C922C921C920C91FC91EC91DC91CC91C
:1000A0001BC91AC919C918C917C916C915C914C94C
:1000B00013C912C911C910C90FC90EC90DC90CC97C
:1000C0000BC90AC909C908C907C906C905C904C9AC
:1000D00003C902C901C900C9FFC8FEC8FDC8FCC8E0
:1000E000FBC8FAC8F9C8F8C8F7C8F6C8F5C8F4C814
:1000F000F3C8F2C8F1C8F0C8EFC8EEC8EDC8ECC844
:10010000EBC8EAC8E9C8E8C8E7C8E6C8E5C8E4C873
:10011000E3C8E2C8E1C8E0C8DFC8DEC8DDC8DCC8A3
:10012000DBC8DAC8D9C8D8C8D7C8D6C8D5C8D4C8D3
:10013000D3C8D2C8D1C8D0C8CFC8CEC8CDC8CCC803
:10014000CBC8CAC8C9C8C8C8C7C8C6C8C5C8C4C833
:10015000C3C8C2C8C1C8C0C8BFC8BEC8BDC8BCC863
:10016000BBC8BAC8B9C8B8C8B7C8B6C8B5C8B4C893
:10017000B3C8B2C8B1C8B0C8AFC8AEC8ADC8ACC8C3
:10018000ABC8AAC89BC7A3C700C85DC8A1C8112433
:100190001FBECFE5D4E0DEBFCDBF10E0A0E6B0E0EB
:1001A000EAE0FAE102C005900D92A236B107D9F754
:1001B00020E0A2E6B0E001C01D92A63FB207E1F741
:1001C00033D321CC1DCF0F931F938B0197B18F7128
:1001D000907E892B87B9862F662379F040E050E026
:1001E000BA01369A3699FECFE4B1F5B14E0F5F1FD2
:1001F000611D711D8150A9F703C040E050E0BA01B4
:1002000020E030E0CB01BA01A9019801ABDBC901C4
:100210001F910F91089586B7806286BF98E088E1AC
:100220000FB6F894A89581BD0FBE91BDFFCF8B98F6
:1002300093981092950008958B9A81E08093950091
:1002400008951FBC8DE08EBD88E09DE39BBD8ABDF7
:1002500089B7806189BF089516B817B83E983F984E
:1002600086B1876886B933983598109292001092BB
:10027000910008958EE090E0ADDB882319F0809323
:100280007A00089585E180937A0065E18EE090E040
:10029000A9DB089581E090E0909398008093970007
:1002A00010928200109281008091EB00813031F039
:1002B00040F0823049F4AA9AA8980895AA98A89A7A
:1002C0000895AA98A8980895AA9AA8980895809140
:1002D000D100813051F4DEDF2FEF81EE94E0215028
:1002E00080409040E1F700C000008091E5009091CF
:1002F000E600892B51F094982FEF83ED90E3215085
:1003000080409040E1F700C00000959AC09880912D
:100310009500813009F493981092D9001092D8007A
:1003200081E090E0909386008093850094980895F2
:10033000AA9AA89A10929800109297000895949AF9
:10034000F7DF80919500813009F4939A9598C09ACF
:1003500081E090E09093D9008093D80010928600BD
:1003600010928500089581E090E09093940080932E
:100370009300C19A2FEF81EE94E02150804090408D
:10038000E1F700C0000064E070E086E01CDF8093CD
:10039000EE009093EF00E2E6F0E08183928380919B
:1003A000AB00838390918D0080918E009483858330
:1003B000C1980895CF92DF92EF92FF92C19A2FEFEA
:1003C00081EE94E0215080409040E1F700C00000B1
:1003D00064E070E086E0F7DE9093EF008093EE003B
:1003E000BC0180E090E0A5D920E030E040E85AE38D
:1003F00056DA20E030E84FE455E451DA6ED97093D4
:10040000F5006093F40080E090E093D96B017C01EB
:1004100020E030E04FEF54E4EFD88823CCF420E024
:1004200030E0A901C701B60136DA18168CF481E074
:1004300090E0909382008093810020E030E040EFD4
:1004400054E4C701B601D8D8882334F4949804C082
:100450001092820010928100C198FF90EF90DF907F
:10046000CF90089598B384E0892788BB089592B30C
:1004700080E2892782BB08951F920F920FB60F92D8
:1004800011242F933F934F935F936F937F938F9399
:100490009F93AF93BF93EF93FF938091E50090916B
:1004A000E600892B01F18091A7009091A800892B8B
:1004B000C9F08091DE009091DF00892B99F4809142
:1004C0009D0090919E00A0919F00B091A000019688
:1004D000A11DB11D80939D0090939E00A0939F004D
:1004E000B093A000C4DF8091810090918200892B9D
:1004F00009F0B8DF80917F0090918000892B09F48A
:100500004EC08091EC009091ED00029701F5829928
:100510003DC081E090E09093AF008093AE001092D8
:10052000D0001092CF001092ED001092EC001092CB
:10053000800010927F008091D8009091D900892B83
:1005400029F580919500813009F5939A1FC0829B0F
:100550001DC01092AF001092AE0081E090E0909329
:10056000D0008093CF001092ED001092EC0010921A
:10057000800010927F008091D8009091D900892B43
:1005800029F480919500813009F4939A8091EC00D0
:100590009091ED0001969093ED008093EC00809196
:1005A000B0009091B100892B09F461DFFF91EF91C8
:1005B000BF91AF919F918F917F916F915F914F917B
:1005C0003F912F910F900FBE0F901F901895B0DEA6
:1005D000C19A2FEF81EE94E0215080409040E1F7E6
:1005E00000C0000068E070E086E0EDDD9093EF0071
:1005F0008093EE00BC0180E090E09BD820E030E0EA
:1006000040E85AE34CD920E030E84FE455E447D9BC
:1006100025E535E545ED5FE342D920E030E048E4EB
:1006200055E439D98823CCF081E090E09093E8003C
:100630008093E7008091BB00811114C080DE2FEF12
:1006400081EE94E0215080409040E1F700C000002E
:10065000109286001092850005C094981092E800D0
:100660001092E700C1988091D8009091D900892B11
:10067000A1F48091E7009091E800892B71F08091BE
:10068000D100813051F406DE2FEF81EE94E021504D
:1006900080409040E1F700C00000089587E087BBEC
:1006A00085E084BB8AEB81BBE5DD82E190E092D9F5
:1006B0008093EB0081E190E08DD98093D10080E1BF
:1006C00090E088D9809399008FE090E083D980935F
:1006D000E0008EE090E07ED980937A0082B381645E
:1006E00082BBC0989398F89480919900880F81609C
:1006F0001ED6B2DD81E090E0909386008093850065
:100700001092AF001092AE001092D0001092CF0065
:100710001092D9001092D80010928200109281009D
:1007200021E020939A001092800010927F00109296
:10073000ED001092EC00209395001092AB00109207
:100740008A00109289001092C6001092C500109283
:100750008800109287001092F2001092F10010921F
:10076000C2001092C1001092F3001092F00010929B
:10077000BB001092E6001092E50010929C001092CF
:100780009B001092DF001092DE00109294001092F5
:1007900093001092A8001092A7001092B10010923E
:1007A000B0009093C4008093C3001092E1001092B7
:1007B000E2001092E3001092E4001092C700109241
:1007C000C8001092C9001092CA001092A1001092A5
:1007D000A2001092A3001092A40010929D0010920B
:1007E0009E0010929F001092A0001092CB001092D9
:1007F000CC001092CD001092CE0010927B0010928F
:100800007C0010927D0010927E001092BD0010922C
:10081000BE001092BF001092C00010928C00109287
:100820008B007894D4DE089539DFB4D50ADD0F2E1D
:10083000F3ED6F2EF02D0F2EF2ED7F2EF02D01ED4A
:10084000DFEFC2E01CE3109296001092BC0061E062
:1008500070E083E0B8DC9093EF008093EE00BC0181
:1008600080E090E066D720E030E040E85AE317D817
:1008700020E030E84FE455E412D825E535E545EDB4
:100880005FE30DD825D760938D0070938E00809321
:100890008F00909390002091D8003091D900232BA5
:1008A00009F04BC020919B0030919C00232B09F054
:1008B00044C041D720E030E046E955E49DD6882386
:1008C000E4F48091850090918600892BB1F037DDAA
:1008D0002FEF31EE84E0215030408040E1F700C03E
:1008E00000008091D8009091D900892B31F580913A
:1008F0009B0090919C00892B01F560918D00709177
:100900008E0080918F009091900015D720E030E00C
:1009100046E955E471D6882384F48091850090914E
:100920008600892B89F00BDD9FEF21EE34E091509A
:1009300020403040E1F700C0000080918500909198
:100940008600892B09F06DC062E370E087E03BDC34
:100950009093EF008093EE00BC0180E090E0E9D638
:1009600020E030E040E85AE39AD720E030E84FE456
:1009700055E495D7B2D66B017C0170938C006093DF
:100980008B0060918D0070918E0080918F0090910E
:100990009000D1D64B015C01B60180E090E0C9D651
:1009A0006B017C0120E030E040E05FE3C501B40171
:1009B00076D79B01AC01C701B601B9D524EA30E76F
:1009C0004DE35EE31DD689D67093B4006093B30007
:1009D00080E090E0AED620E030E048EC52E40CD667
:1009E00018164CF020E030EC4FE855E4C501B40196
:1009F00052D7181634F08091E5009091E600892BCB
:100A000041F08091B0009091B100892B51F05FDCF2
:100A10001ACF8091810090918200892B09F06AC4DD
:100A2000C9DC80919B0090919C00892B09F069C4DE
:100A30008091950081116DC483996BC48FEF9BE702
:100A400022E9815090402040E1F700C000008091F1
:100A50009B0090919C00892B09F053C480919500D4
:100A6000811157C4839955C481E090E09093E600CA
:100A70008093E50090939C0080939B0094988091D4
:100A8000E5009091E600892B09F4D8C08091A70079
:100A90009091A800892B09F4BAC08091DE00909152
:100AA000DF00892B09F0B9C08091C3009091C40088
:100AB000892B09F48AC02091B7003091B800409189
:100AC000B9005091BA00A0E1BEE06ED76B017C0185
:100AD0002091D2003091D3004091D4005091D500A4
:100AE000ACE3B0E061D7DC01CB018C0D9D1DAE1DE8
:100AF000BF1DC090DA00D090DB00E090DC00F090E9
:100B0000DD00C80ED91EEA1EFB1EC0927B00D092EB
:100B10007C00E0927D00F0927E002091E100309117
:100B2000E2004091E3005091E400A0E1BEE03CD738
:100B30004B015C012091C7003091C8004091C90071
:100B40005091CA00ACE3B0E02FD7DC01CB01880D97
:100B5000991DAA1DBB1D4091A1005091A20060915A
:100B6000A3007091A400840F951FA61FB71F809348
:100B7000BD009093BE00A093BF00B093C0008C193D
:100B80009D09AE09BF09181619061A061B064CF472
:100B90008093CB009093CC00A093CD00B093CE0077
:100BA0000CC080589E4AAE4FBF4F8093CB009093AD
:100BB000CC00A093CD00B093CE0010929D00109277
:100BC0009E0010929F001092A0001092C4001092FC
:100BD000C3004091CB005091CC006091CD0070914A
:100BE000CE0080919D0090919E00A0919F00B091B9
:100BF000A00084179507A607B70700F110929D0083
:100C000010929E0010929F001092A00004DB809131
:100C1000DE009091DF00892B89F080919500811191
:100C20000DC083993EC03AEA86EE96E921E0315044
:100C3000804090402040D9F70000EDDA80919B0081
:100C400090919C00892B69F180919500813049F544
:100C5000839927C01092E6001092E50010929C0044
:100C600010929B001092DF001092DE001092AF00F5
:100C70001092AE0081E090E09093C4008093C30096
:100C80001092CB001092CC001092CD001092CE00AA
:100C900010929D0010929E0010929F001092A00052
:100CA00016DB829915C080919A00813071F481E041
:100CB00090E09093800080937F001092AF0010929C
:100CC000AE001092D0001092CF0010929A0003C094
:100CD00081E080939A008091D8009091D900892B6F
:100CE000C1F58091970090919800892B91F180999E
:100CF00011C0869B0FC0979A9198C2988091AB00C3
:100D0000813029F48091F0008F5F8093F000109281
:100D1000AB0039C0809B12C0869910C0919A9798F9
:100D2000C2988091AB00811105C08091F3008F5F64
:100D30008093F30081E08093AB0025C09198979851
:100D4000C29AC093AB00F4DA1092E8001092E70068
:100D50001AC08091810090918200892B49F4809182
:100D6000E7009091E800892B11F0C29801C0C29A67
:100D7000919897988091E7009091E800892B19F05D
:100D800083E08093AB008091F1009091F200883C69
:100D90009105D1F41092F2001092F1008091F300CD
:100DA0008B3020F48091F0008B3050F09198AA980D
:100DB000C29ABEDA1092E8001092E700C093AB002E
:100DC0001092F3001092F0008091F1009091F200E7
:100DD00001969093F2008093F1008091E70090914A
:100DE000E800892B09F4F3DBA8D281112CCD809186
:100DF0006D0080FF7CC281FF74C26AE082E690E0F1
:100E0000D7D280916D0082FF02C000006BC2E091DA
:100E100062008E2F90E0FC01B197E43BF10508F0F1
:100E20005BC2ED5EFF4F09948091D8009091D9008C
:100E3000892B21F081E0809363004EC2D093630040
:100E40004BC28091970090919800892B19F4D09310
:100E5000630003C081E0809363008091EB00809386
:100E600064003AC28091AE009091AF00892B29F0C6
:100E700081E08093630093980CC08091CF009091A3
:100E8000D000892B21F0C0936300939802C0D093C7
:100E900063001092D0001092CF001EC280916300B8
:100EA000813049F018F0823061F010C01092EB00F0
:100EB000109263000FC081E08093EB008093630089
:100EC00009C0C093EB00C093630004C0C093EB0063
:100ED000C09363006091EB0082E190E083D5809144
:100EE000970090919800892B09F4F6C1D3D9F4C1E9
:100EF000609163006093990080E190E073D58BD995
:100F0000E6D9EAC11CDAE8C18091D8009091D900F5
:100F1000892B41F4BFD981E08093D10061E081E168
:100F200090E060D58091970090919800892B21F0F6
:100F300081E08093960002C0D09396008091960045
:100F400080936300C9C1F4D91092D10060E081E1BF
:100F500090E048D58091970090919800892B21F4DA
:100F600081E08093960002C0D09396008091960015
:100F700080936300B1C1F7D9AFC1E2E6F0E0C1836D
:100F800012838091E000838380917A008483A4C1DE
:100F90008091810090918200892B21F081E08093E3
:100FA00067009AC1D093670097C110928200109297
:100FB000810081E0809363008FC12DD938D98CC125
:100FC0003BD98091BB00811187C181E090E0909373
:100FD000B1008093B0008093BB00959A7DC1809151
:100FE000D8009091D900892B21F481E0809363008F
:100FF00073C11092630070C1949A6EC194986CC1D1
:1010000081E090E09093DF008093DE0065C181E095
:1010100090E09093A8008093A7005EC1E2E6F0E024
:10102000818190E0A0E0B0E08093E1009093E20045
:10103000A093E300B093E400828190E0A0E0B0E0F0
:101040008093C7009093C800A093C900B093CA00D2
:10105000838190E0A0E0B0E08093A1009093A20093
:10106000A093A300B093A400848190E0A0E0B0E03E
:101070008093B7009093B800A093B900B093BA00E2
:10108000858190E0A0E0B0E08093D2009093D300FF
:10109000A093D400B093D500868190E0A0E0B0E0AA
:1010A0008093DA009093DB00A093DC00B093DD0026
:1010B00013C11092A8001092A7000EC190918D004C
:1010C00080918E00E2E6F0E09183828305C1109268
:1010D000AD001092AC0064E670E081E074D89093AB
:1010E000EF008093EE00BC0180E090E022D320E08E
:1010F00030E040E85AE3D3D320E030E84FE455E451
:10110000CED3EBD270938C0060938B0080E090E0A4
:1011100010D36B017C0160918D0070918E008091E5
:101120008F009091900007D320E030E040E05FE333
:10113000B6D34B015C0120E030E048E452E4F8D142
:101140009B01AC01C701B60157D218162CF01092C2
:10115000B4001092B3000FC0A5019401C701B601FD
:10116000E6D124EA30E74DE35EE34AD2B6D270938B
:10117000AD006093AC00E2E6F0E000839091AC003B
:101180008091AD0091838283A7C064E670E087E020
:101190001AD89093EF008093EE00BC0180E090E0BD
:1011A000C8D220E030E040E85AE379D320E030E8CC
:1011B0004FE455E474D391D270938C0060938B000C
:1011C00080E090E0B6D26B017C0160918D0070915F
:1011D0008E0080918F0090919000ADD220E030E0A1
:1011E00040E05FE35CD34B015C019B01AC01C701B4
:1011F000B60102D2181634F48091D8009091D9002B
:10120000892B29F41092B4001092B3000FC0A501ED
:101210009401C701B6018BD124EA30E74DE35EE3C8
:10122000EFD15BD27093B4006093B300E2E6F0E0DC
:1012300070829091B3008091B400918382838091F9
:10124000AB00838349C08091AB00811101C070D88D
:1012500081E090E09093940080939300C19A3FEFD7
:1012600081EE94E0315080409040E1F700C00000F2
:1012700064E070E086E0A7D79093EF008093EE00E3
:10128000BC0180E090E055D220E030E040E85AE335
:1012900006D320E030E84FE455E401D325E535E5F9
:1012A00045ED5FE3FCD219D2609383007093840014
:1012B000E2E6F0E0608261837283C1988091D100A0
:1012C000813051F48091AB00811106C0E3D704C096
:1012D0008091AB00809363006AE082E690E037D0B3
:1012E00001C000002AD08111AECA54D0ACCA28D0A7
:1012F00051D0A9CA80919B0090919C00892B89F0C4
:10130000A3CC8091E5009091E600892B09F0BECB3B
:101310009BCC8091E5009091E600892B09F0B6CB3B
:10132000C0CC80919500882309F486CBBACC82B9D1
:1013300084E086BF10926E00089580916E0008953B
:1013400080916E008111FCCF8091600008959C0116
:1013500090916E009111FCCF60936F00662379F03D
:10136000F901A0E7B0E0615070E06F5F7F4FC90105
:10137000860F971F21912D93E817F907D9F710923F
:101380006D0088EF8093600085EC86BF81E08093DC
:101390006E00089580916E008111FCCF10926D0057
:1013A00088EF8093600085EC86BF10926E000895F0
:1013B000AC0190916E009111FCCF80916D0080FF87
:1013C00016C0662379F0A0E7B0E0FA016150262F3D
:1013D00030E02F5F3F4F240F351F9D919193E2170F
:1013E000F307D9F780916D008D7F80936D00809118
:1013F0006D00817008951F920F920FB60F92112405
:101400008F939F93EF93FF9381B1803909F45EC06E
:1014100090F4803709F448C038F4882309F471C087
:10142000803609F446C073C0803809F44FC088384C
:1014300009F467C06CC0883A81F038F4883909F43F
:1014400060C0803A09F458C062C0803CC9F0883C52
:1014500009F457C0883B19F05AC010926C00E09113
:101460006C0081E08E0F80936C00F0E0E059FF4F3C
:10147000808183B985EC86BF81E080936E004EC089
:1014800090916C0080916F00981306C080916D0060
:10149000816080936D0003C081B18093600085EC12
:1014A00086BF10926E003AC080916D008460809378
:1014B0006D0080916D00826080936D0010926C00D1
:1014C00085EC86BF81E080936E0028C0E0916C00BF
:1014D00081E08E0F80936C0083B1F0E0E059FF4F04
:1014E000808380916D00816080936D0085EC86BF64
:1014F00081E080936E0012C085EC86BF10926E0072
:101500000DC081B18093600080E986BF07C081B1C2
:101510008093600085EC86BF10926E00FF91EF9182
:101520009F918F910F900FBE0F901F90189550585C
:10153000BB27AA270ED075C166D130F06BD120F041
:1015400031F49F3F11F41EF45BC10EF4E095E7FB0C
:1015500051C1E92F77D180F3BA1762077307840767
:10156000950718F071F49EF58FC10EF4E0950B2EDF
:10157000BA2FA02D0B01B90190010C01CA01A001E5
:101580001124FF27591B99F0593F50F4503E68F140
:101590001A16F040A22F232F342F4427585FF3CF81
:1015A000469537952795A795F0405395C9F77EF452
:1015B0001F16BA0B620B730B840BBAF09150A1F09B
:1015C000FF0FBB1F661F771F881FC2F70EC0BA0F21
:1015D000621F731F841F48F4879577956795B795A9
:1015E000F7959E3F08F0B3CF9395880F08F09927A1
:1015F000EE0F979587950895D9D008F481E0089566
:101600000CD00FC107D140F0FED030F021F45F3F85
:1016100019F0F0C0511139C1F3C014D198F39923D6
:10162000C9F35523B1F3951B550BBB27AA276217A6
:101630007307840738F09F5F5F4F220F331F441FEB
:10164000AA1FA9F333D00E2E3AF0E0E830D0915023
:101650005040E695001CCAF729D0FE2F27D0660F10
:10166000771F881FBB1F261737074807AB07B0E84F
:1016700009F0BB0B802DBF01FF2793585F4F2AF065
:101680009E3F510568F0B6C000C15F3FECF3983E45
:10169000DCF3869577956795B795F7959F5FC9F7C2
:1016A000880F911D9695879597F90895E1E0660F4B
:1016B000771F881FBB1F621773078407BA0720F0C4
:1016C000621B730B840BBA0BEE1F88F7E09508952D
:1016D00004D06894B111D9C00895BCD088F09F5748
:1016E00090F0B92F9927B751A0F0D1F0660F771F6E
:1016F000881F991F1AF0BA95C9F712C0B13081F04E
:10170000C3D0B1E00895C0C0672F782F8827B85F95
:1017100039F0B93FCCF3869577956795B395D9F7AE
:101720003EF490958095709561957F4F8F4F9F4FB8
:101730000895E89409C097FB3EF4909580957095C4
:1017400061957F4F8F4F9F4F9923A9F0F92F96E90D
:10175000BB279395F695879577956795B795F11182
:10176000F8CFFAF4BB0F11F460FF1BC06F5F7F4F1F
:101770008F4F9F4F16C0882311F096E911C0772331
:1017800021F09EE8872F762F05C0662371F096E83A
:10179000862F70E060E02AF09A95660F771F881F09
:1017A000DAF7880F9695879597F90895990F0008AD
:1017B000550FAA0BE0E8FEEF16161706E807F90723
:1017C000C0F012161306E407F50798F0621B730BBE
:1017D000840B950B39F40A2661F0232B242B252B3F
:1017E00021F408950A2609F4A140A6958FEF811DE2
:1017F000811D089597F99F6780E870E060E0089583
:101800009FEF80EC089500240A9416161706180618
:101810000906089500240A941216130614060506F4
:101820000895092E0394000C11F4882352F0BB0F85
:1018300040F4BF2B11F460FF04C06F5F7F4F8F4FE8
:101840009F4F089557FD9058440F551F59F05F3F23
:1018500071F04795880F97FB991F61F09F3F79F0D2
:1018600087950895121613061406551FF2CF469554
:10187000F1DF08C0161617061806991FF1CF8695D6
:101880007105610508940895E894BB2766277727BA
:10189000CB0197F908958ADF08F48FEF08950BD0F4
:1018A000C0CFB1DF28F0B6DF18F0952309F0A2CF42
:1018B000A7CF1124EACFC6DFA0F3959FD1F3950FF0
:1018C00050E0551F629FF001729FBB27F00DB11DC4
:1018D000639FAA27F00DB11DAA1F649F6627B00D54
:1018E000A11D661F829F2227B00DA11D621F739F3D
:1018F000B00DA11D621F839FA00D611D221F749F4B
:101900003327A00D611D231F849F600D211D822F91
:10191000762F6A2F11249F5750408AF0E1F08823D8
:101920004AF0EE0FFF1FBB1F661F771F881F9150E5
:101930005040A9F79E3F510570F05CCFA6CF5F3FA6
:10194000ECF3983EDCF3869577956795B795F79518
:10195000E7959F5FC1F7FE2B880F911D96958795A0
:1019600097F90895A1E21A2EAA1BBB1BFD010DC019
:10197000AA1FBB1FEE1FFF1FA217B307E407F5073F
:1019800020F0A21BB30BE40BF50B661F771F881F1B
:10199000991F1A9469F760957095809590959B01B1
:1019A000AC01BD01CF01089509D0A59F900DB49F52
:1019B000900DA49F800D911D11240895A29FB00148
:1019C000B39FC001A39F01D0B29F700D811D112450
:1019D000911D0895E199FECF9FBB8EBBE09A992798
:1019E0008DB30895262FE199FECF9FBB8EBBE09A61
:1019F00001970DB2021631F02DBB0FB6F894E29AA2
:0A1A0000E19A0FBE0895F894FFCF9D
:021A0A00F800E2
:00000001FF
