:1000000012C02CC02BC02AC029C028C098C126C04D
:1000100025C024C023C022C021C020C01FC01EC0D4
:100020001DC001CA1BC011241FBECFE5D4E0DEBF36
:10003000CDBF10E0A0E6B0E0EAE3FAE102C005902F
:100040000D92A236B107D9F721E0A2E6B0E001C0D7
:100050001D92A830B207E1F7D7D3EDCCD1CF0F93E3
:100060001F938B0197B18F71907E892B87B9862F53
:10007000662379F040E050E0BA01369A3699FECF17
:10008000E4B1F5B14E0F5F1F611D711D8150A9F7DD
:1000900003C040E050E0BA0120E030E0CB01BA01FB
:1000A000A901980177DCC9011F910F91089586B7C6
:1000B000806286BF98E088E10FB6F894A89581BD6C
:1000C0000FBE91BDFFCF8B98939810929400089526
:1000D0008B9A81E08093940008951FBC8DE08EBDC3
:1000E00088E09DE39BBD8ABD89B7806189BF089583
:1000F00081E090E090939A008093990010928300A1
:10010000109282008091FA00813031F040F082300C
:1001100049F4AA9AA8980895AA98A89A0895AA981E
:10012000A8980895AA9AA898089594988091940000
:1001300081110BC0839909C02FEF83ED90E321500B
:1001400080409040E1F700C00000959AC0988091EF
:100150009400813009F493981092E0001092DF002F
:100160008091D600813051F4C3DF2FEF81EE94E00F
:10017000215080409040E1F700C000000895AA9A05
:10018000A89A10929A00109299000895949AF7DF15
:1001900080919400813009F4939A9598C09A81E0F7
:1001A00090E09093E0008093DF00089568E070E0B5
:1001B00081E055DF8093FD009093FE00E2E6F0E0E1
:1001C0008183928390918E0080918F0093838483AA
:1001D000089568E070E087E042DF8093FD0090932F
:1001E000FE00E2E6F0E0818392838091AF0083839A
:1001F00090918E0080918F009483858308958091E3
:10020000AF00811101C0BBDF81E090E090939300CB
:1002100080939200C19A2FEF81EE94E021508040AC
:100220009040E1F700C0000064E070E086E017DF76
:100230008093FD009093FE00E2E6F0E081839283DC
:100240008091AF00838390918E0080918F00948382
:100250008583C1988091D600813071F48091AF0080
:1002600081110AC045DF2FEF81EE94E021508040DC
:100270009040E1F700C000000895CF92DF92EF9226
:10028000FF92C19A2FEF81EE94E021508040904080
:10029000E1F700C0000064E070E086E0E0DE9093EB
:1002A000FE008093FD00BC0180E090E05ADA20E07F
:1002B00030E040E85AE30BDB20E030E84FE455E45F
:1002C00006DB23DA709307016093060180E090E07B
:1002D00048DA6B017C0120E030E847EF54E4A4D910
:1002E0008823CCF420E030E0A901C701B601EBDAA5
:1002F00018168CF481E090E0909383008093820044
:1003000020E030E040EF54E4C701B6018DD98823E6
:1003100034F4949804C01092830010928200C19823
:10032000FF90EF90DF90CF90089598B384E08927F5
:1003300088BB089592B380E2892782BB08951F92FB
:100340000F920FB60F9211242F933F934F935F9309
:100350006F937F938F939F93AF93BF93EF93FF938D
:100360008091F3009091F400892B01F18091AA0013
:100370009091AB00892BC9F08091E5009091E60047
:10038000892B99F48091A0009091A100A091A200E6
:10039000B091A3000196A11DB11D8093A000909380
:1003A000A100A093A200B093A300C4DF80918200BB
:1003B00090918300892B09F0B8DF809180009091A3
:1003C0008100892BD1F18091FB009091FC00029774
:1003D000B1F4829929C081E090E09093B3008093BA
:1003E000B2001092D5001092D4001092FC0010922E
:1003F000FB001092810010928000939A15C0829B9E
:1004000013C01092B3001092B20081E090E090937C
:10041000D5008093D4001092FC001092FB00109243
:10042000810010928000939A8091FB009091FC00D3
:1004300001969093FC008093FB008091B400909112
:10044000B500892B09F476DFFF91EF91BF91AF9151
:100450009F918F917F916F915F914F913F912F91DC
:100460000F900FBE0F901F901895CF92DF92EF92D2
:10047000FF920F931F93CF93DF9368EE73E083E0B7
:10048000EEDD8C019093FE008093FD0068EE73E03A
:1004900087E0E5DDEC019093FE008093FD00B8015C
:1004A00080E090E05ED920E030E040E85AE30FDAE7
:1004B00020E030E84FE455E40ADA25E535E545ED7E
:1004C0005FE305DA20E030E040E05FE300DA6B0153
:1004D0007C01BE0180E090E044D920E030E040E8BB
:1004E0005AE3F5D920E030E84FE455E4F0D99B0118
:1004F000AC01C701B60133D8DF91CF911F910F91A5
:10050000FF90EF90DF90CF900895CF92DF92EF921F
:10051000FF9235DEC19A2FEF81EE94E021508040AA
:100520009040E1F700C0000068E070E086E097DDF1
:100530009093FE008093FD00BC0180E090E011D913
:1005400020E030E040E85AE3C2D920E030E44EE455
:1005500055E4BDD920E030EE48E055E4B4D9882315
:100560005CF081E090E09093F6008093F50090932A
:1005700087008093860004C01092F6001092F50068
:10058000C19864E670E087E06ADD9093FE00809396
:10059000FD00BC0180E090E0E4D820E030E040E8DD
:1005A0005AE395D920E030E84FE455E490D9ADD82E
:1005B00070938D0060938C0080E090E0D2D86B0146
:1005C0007C0160918E0070918F00809190009091DD
:1005D0009100C9D820E030E040E05FE378D99B018A
:1005E000AC01C701B601BBD724EA30E74DE35EE3B7
:1005F0001FD88BD87093B8006093B70080918600A5
:1006000090918700892BA9F08091F5009091F600D8
:10061000892B79F0BBDD2FEF81EE94E021508040F3
:100620009040E1F700C00000109287001092860011
:1006300001C094988091DF009091E000892B59F4DB
:100640008091F5009091F600892B29F08091D600D9
:10065000813009F44DDDFF90EF90DF90CF90089549
:1006600087E087BB85E084BB8AEB81BB3E983F98DF
:1006700086B1876886B93398359882E190E0C2D90F
:100680008093FA0081E190E0BDD98093D60080E1AB
:1006900090E0B8D980939C008FE090E0B3D980932C
:1006A000E70082B3816482BBC09893989498F894D1
:1006B00080919C00880F816052D681E090E09093F9
:1006C0008700809386001092B3001092B2001092BF
:1006D000D5001092D4001092E0001092DF0010922A
:1006E00083001092820021E020939D0010928100EF
:1006F000109280001092FC001092FB002093940056
:100700001092AF0010928B0010928A001092CB00D2
:100710001092CA0010928900109288001092020173
:10072000109201011092C7001092C6001092F700BB
:1007300010929B00109205011092FF001092C000D1
:100740001092F4001092F30010929F0010929E00FD
:100750001092E6001092E500109293001092920021
:100760001092AB001092AA001092B5001092B40043
:100770009093C9008093C8001092EE001092EF0091
:100780001092F0001092F1001092CC001092CD0067
:100790001092CE001092CF001092A4001092A500EB
:1007A0001092A6001092A7001092A0001092A10033
:1007B0001092A2001092A3001092D0001092D100CB
:1007C0001092D2001092D30010927C0010927D0003
:1007D00010927E0010927F001092C2001092C3000F
:1007E0001092C4001092C50010928D0010928C00DF
:1007F00078943BDE6093EA007093EB008093EC000A
:100800009093ED0082DE08952BDFDCD566DC11E0ED
:1008100002E0C12FD02F0F2EF1ED3F2EF02D0F2E25
:10082000F3EDCF2EF02D0F2EF2EDDF2EF02DFF2465
:10083000FA940F2EFBE0EF2EF02D109298001092FC
:10084000C10061E070E083E00ADC9093FE008093D9
:10085000FD00BC0180E090E084D720E030E040E87B
:100860005AE335D820E030E84FE455E430D825E5A8
:1008700035E545ED5FE32BD843D760938E00709349
:100880008F0080939000909391002091DF00309131
:10089000E000232BE9F467D720E030E046E955E497
:1008A000C3D68823ACF48091860090918700892B71
:1008B000B1F06CDC2FEF31EE84E02150304080400D
:1008C000E1F700C00000109287001092860007C078
:1008D0008091860090918700892B09F07FC08091DC
:1008E0009B008E3109F074C062E370E087E0B7DBF3
:1008F0009093FE008093FD00BC0180E090E031D732
:1009000020E030E040E85AE3E2D720E030E84FE46E
:1009100055E4DDD7FAD670938D0060938C0080E0AB
:1009200090E01FD74B015C0160918E0070918F00A9
:10093000809190009091910016D720E030E040E047
:100940005FE3C5D79B01AC01C501B40108D624EA19
:1009500030E74DE35EE36CD6D8D67093B800609371
:10096000B70080E090E0FDD620E030E048EC52E4B3
:100970005BD6181634F480919400811124C08399B9
:1009800022C06091F70070E080E090E0ECD620E0BB
:1009900030E040E85FE348D681110FC08091B40099
:1009A0009091B500892B49F0C0DB81E090E09093F5
:1009B0008700809386001092F7008091F7008F5F88
:1009C0008093F70003C01092F70057DC10929B0051
:1009D00080919B008F5F80939B0018C080919E0048
:1009E00090919F00892B09F0B2C4809194008111ED
:1009F000A6C48399A4C481E090E09093F40080930E
:100A0000F30090939F0080939E0094988091F30050
:100A10009091F400892B09F4D1C08091AA009091A3
:100A2000AB00892B09F4B3C08091E5009091E600FA
:100A3000892B09F0B2C08091C8009091C900892B20
:100A400009F48BC02091BC003091BD004091BE00E4
:100A50005091BF00A0E1BEE0BFD74B015C012091E7
:100A6000D7003091D8004091D9005091DA00ACE322
:100A7000B0E0B2D7DC01CB01880D991DAA1DBB1DCA
:100A80008090E1009090E200A090E300B090E4003C
:100A9000880E991EAA1EBB1E80927C0090927D003B
:100AA000A0927E00B0927F002091EE003091EF0086
:100AB0004091F0005091F100A0E1BEE08DD72B01F4
:100AC0003C012091CC003091CD004091CE0050915E
:100AD000CF00ACE3B0E080D7460E571E681E791EEB
:100AE0008091A4009091A500A091A600B091A700CC
:100AF000480E591E6A1E7B1E4092C2005092C300CF
:100B00006092C4007092C500481859086A087B08B2
:100B100014141504160417044CF44092D00050929B
:100B2000D1006092D2007092D3000FC090E8490EBD
:100B300091E5591E91E0691E711C4092D0005092BF
:100B4000D1006092D2007092D3001092A000109257
:100B5000A1001092A2001092A3001092C90010925E
:100B6000C8004091D0005091D1006091D2007091A6
:100B7000D3008091A0009091A100A091A200B0911B
:100B8000A30084179507A607B707C0F090DA8091F5
:100B9000E5009091E600892B89F080919400811105
:100BA0000DC083993EC02AEA36EE86E991E02150D5
:100BB000304080409040D9F7000079DA80919E0063
:100BC00090919F00892B69F180919400813049F5C3
:100BD000839927C01092F4001092F30010929F00A6
:100BE00010929E001092E6001092E5001092B30061
:100BF0001092B20081E090E09093C9008093C80009
:100C00001092D0001092D1001092D2001092D30016
:100C10001092A0001092A1001092A2001092A300C6
:100C200084DA829915C080919D00813071F481E051
:100C300090E090938100809380001092B300109216
:100C4000B2001092D5001092D40010929D0002C004
:100C5000C0939D008091DF009091E000892BB9F551
:100C60008091990090919A00892B89F1809911C007
:100C7000869B0FC0979A9198C2988091AF0081305F
:100C800029F48091FF008F5F8093FF001092AF00E6
:100C900038C0809B11C086990FC0919A9798C298CE
:100CA0008091AF00811105C0809105018F5F809315
:100CB0000501C093AF0025C091989798C29AD09330
:100CC000AF005DDA1092F6001092F50041C08091FD
:100CD000820090918300892B49F48091F5009091D6
:100CE000F600892B11F0C29801C0C29A919897988A
:100CF0008091F5009091F600892B51F183E080936B
:100D0000AF008091010190910201883C910501F5AD
:100D10008091F5009091F600892BD1F0109202019C
:100D200010920101809105018B3020F48091FF0029
:100D30008B3050F09198AA98C29A21DA1092F6005E
:100D40001092F500D093AF00109205011092FF00B1
:100D5000809101019091020101969093020180938C
:100D600001018091F5009091F600892B09F4CDDB0B
:100D7000FCD2811162CD80916D0080FFDDC281FFC8
:100D8000D5C26AE082E690E02BD380916D0082FFAD
:100D900002C00000CCC280916200823409F422C1FA
:100DA00068F5893209F4C4C0A0F4833209F4FDC0A7
:100DB00038F4813209F403C1823209F4F8C0B1C2B7
:100DC000853209F4E3C008F4EEC0873209F4C7C0E5
:100DD000A8C2853309F44CC048F4833309F458C0E1
:100DE00008F0F9C0813309F49FC09BC2873309F42E
:100DF0006AC090F1813409F48FC093C2833509F43D
:100E000019C1A0F4863409F40AC130F4843409F419
:100E1000ECC008F4E8C0F7C0893409F404C1823595
:100E200009F4FFC0873409F07CC280C0813D09F419
:100E300061C148F4853509F44FC108F402C1803D11
:100E400009F44FC16EC2833D09F422C208F4B9C14E
:100E5000843D09F462C265C28091DF009091E00098
:100E6000892B19F0109363005CC2F092630059C2A1
:100E70008091990090919A00892B19F4F092630067
:100E800002C0109363008091FA008093640049C20D
:100E90008091B2009091B300892B21F010936300F0
:100EA00093980CC08091D4009091D500892B21F0AB
:100EB00000936300939802C0F09263001092D500F3
:100EC0001092D4002EC280916300813049F018F056
:100ED000823059F00FC01092FA00109263000EC0D9
:100EE000C093FA001093630009C0D093FA000093F6
:100EF000630004C0D093FA00009363006091FA008D
:100F000082E190E087D58091990090919A00892B99
:100F100009F407C2EDD805C26091630060939C009C
:100F200080E190E077D5C3D800D9FBC12FD9F9C1B2
:100F3000DFD8C093D600612F81E190E06BD580911E
:100F4000990090919A00892B19F0C093980002C0E3
:100F5000F09298008091980080936300E2C10FD9CD
:100F60001092D60060E081E190E054D58091990024
:100F700090919A00892B19F4C093980002C0F092C6
:100F800098008091980080936300CBC18091DF002E
:100F90009091E000892B11F409D9C3C1E2E6F0E099
:100FA00011821282BEC115D9BCC129D9BAC1E2E6EB
:100FB000F0E01183E2828091E7008383B2C18091E7
:100FC000820090918300892B19F010936700A9C1CA
:100FD000F0926700A6C110928300109282001093D5
:100FE00063009FC164D86FD89CC172D88091C00043
:100FF000811197C181E090E09093B5008093B40097
:10100000C093C0008EC18091DF009091E000892BD9
:1010100019F41093630085C11092630082C1949A01
:1010200080C194987EC181E090E09093E600809327
:10103000E50077C181E090E09093AB008093AA0037
:1010400070C1E2E6F0E0818190E0A0E0B0E0809342
:10105000EE009093EF00A093F000B093F100828136
:1010600090E0A0E0B0E08093CC009093CD00A093FE
:10107000CE00B093CF00838190E0A0E0B0E08093F9
:10108000A4009093A500A093A600B093A70084812C
:1010900090E0A0E0B0E08093BC009093BD00A093EE
:1010A000BE00B093BF00858190E0A0E0B0E08093E7
:1010B000D7009093D800A093D900B093DA0086812E
:1010C00090E0A0E0B0E08093E1009093E200A09374
:1010D000E300B093E40025C11092AB001092AA0087
:1010E00020C190918E0080918F00E2E6F0E0918324
:1010F000828317C11092B1001092B00064E670E0D4
:10110000812FADD79093FE008093FD00BC0180E05D
:1011100090E027D320E030E040E85AE3D8D320E045
:1011200030E84FE455E4D3D32091EA003091EB004E
:101130004091EC005091ED0013D2E7D270938D00F6
:1011400060938C0080E090E00CD34B015C016091D7
:101150008E0070918F00809190009091910003D348
:1011600020E030E040E05FE3B2D32B013C0120E01F
:1011700030E048E452E4F4D19B01AC01C501B40174
:1011800053D218162CF01092B8001092B7000FC06E
:10119000A3019201C501B401E2D124EA30E74DE395
:1011A0005EE346D2B2D27093B1006093B000E2E643
:1011B000F0E030829091B0008091B1009183828301
:1011C000B0C064E670E087E04AD79093FE00809359
:1011D000FD00BC0180E090E0C4D220E030E040E8B7
:1011E0005AE375D320E030E84FE455E470D3209102
:1011F000EA003091EB004091EC005091ED00B0D14D
:1012000084D270938D0060938C0080E090E0A9D22E
:101210004B015C0160918E0070918F008091900075
:1012200090919100A0D220E030E040E05FE34FD306
:101230002B013C019B01AC01C501B401F5D118168D
:1012400034F48091DF009091E000892B29F4109212
:10125000B8001092B7000FC0A3019201C501B401FC
:101260007ED124EA30E74DE35EE3E2D14ED27093C3
:10127000B8006093B700E2E6F0E0D0829091B7004A
:101280008091B800918382838091AF00838349C0AD
:101290008091AF00811101C072D781E090E09093FE
:1012A000930080939200C19A2FEF31EE84E0215099
:1012B00030408040E1F700C0000064E070E086E06C
:1012C000CED69093FE008093FD00BC0180E090E0BC
:1012D00048D220E030E040E85AE3F9D220E030E89C
:1012E0004FE455E4F4D225E535E545ED5FE3EFD273
:1012F0000CD26093840070938500E2E6F0E0C08237
:1013000061837283C1988091D600813051F48091BD
:10131000AF00811106C0ECD604C08091AF0080936D
:1013200063006AE082E690E02AD001C000001DD090
:10133000811183CA47D081CA1BD044D07ECA809114
:10134000F3009091F400892B09F067CB6ACC80916F
:10135000F3009091F400892B09F05FCB35CC82B972
:1013600084E086BF10926E00089580916E0008950B
:1013700080916E008111FCCF8091600008959C01E6
:1013800090916E009111FCCF60936F00662379F00D
:10139000F901A0E7B0E0615070E06F5F7F4FC901D5
:1013A000860F971F21912D93E817F907D9F710920F
:1013B0006D0088EF8093600085EC86BF81E08093AC
:1013C0006E00089580916E008111FCCF10926D0027
:1013D00088EF8093600085EC86BF10926E000895C0
:1013E000AC0190916E009111FCCF80916D0080FF57
:1013F00016C0662379F0A0E7B0E0FA016150262F0D
:1014000030E02F5F3F4F240F351F9D919193E217DE
:10141000F307D9F780916D008D7F80936D008091E7
:101420006D00817008951F920F920FB60F921124D4
:101430008F939F93EF93FF9381B1803909F45EC03E
:1014400090F4803709F448C038F4882309F471C057
:10145000803609F446C073C0803809F44FC088381C
:1014600009F467C06CC0883A81F038F4883909F40F
:1014700060C0803A09F458C062C0803CC9F0883C22
:1014800009F457C0883B19F05AC010926C00E091E3
:101490006C0081E08E0F80936C00F0E0E059FF4F0C
:1014A000808183B985EC86BF81E080936E004EC059
:1014B00090916C0080916F00981306C080916D0030
:1014C000816080936D0003C081B18093600085ECE2
:1014D00086BF10926E003AC080916D008460809348
:1014E0006D0080916D00826080936D0010926C00A1
:1014F00085EC86BF81E080936E0028C0E0916C008F
:1015000081E08E0F80936C0083B1F0E0E059FF4FD3
:10151000808380916D00816080936D0085EC86BF33
:1015200081E080936E0012C085EC86BF10926E0041
:101530000DC081B18093600080E986BF07C081B192
:101540008093600085EC86BF10926E00FF91EF9152
:101550009F918F910F900FBE0F901F90189550582C
:10156000BB27AA270ED075C166D130F06BD120F011
:1015700031F49F3F11F41EF45BC10EF4E095E7FBDC
:1015800051C1E92F77D180F3BA1762077307840737
:10159000950718F071F49EF58FC10EF4E0950B2EAF
:1015A000BA2FA02D0B01B90190010C01CA01A001B5
:1015B0001124FF27591B99F0593F50F4503E68F110
:1015C0001A16F040A22F232F342F4427585FF3CF51
:1015D000469537952795A795F0405395C9F77EF422
:1015E0001F16BA0B620B730B840BBAF09150A1F06B
:1015F000FF0FBB1F661F771F881FC2F70EC0BA0FF1
:10160000621F731F841F48F4879577956795B79578
:10161000F7959E3F08F0B3CF9395880F08F0992770
:10162000EE0F979587950895D9D008F481E0089535
:101630000CD00FC107D140F0FED030F021F45F3F55
:1016400019F0F0C0511139C1F3C014D198F39923A6
:10165000C9F35523B1F3951B550BBB27AA27621776
:101660007307840738F09F5F5F4F220F331F441FBB
:10167000AA1FA9F333D00E2E3AF0E0E830D09150F3
:101680005040E695001CCAF729D0FE2F27D0660FE0
:10169000771F881FBB1F261737074807AB07B0E81F
:1016A00009F0BB0B802DBF01FF2793585F4F2AF035
:1016B0009E3F510568F0B6C000C15F3FECF3983E15
:1016C000DCF3869577956795B795F7959F5FC9F792
:1016D000880F911D9695879597F90895E1E0660F1B
:1016E000771F881FBB1F621773078407BA0720F094
:1016F000621B730B840BBA0BEE1F88F7E0950895FD
:1017000004D06894B111D9C00895BCD088F09F5717
:1017100090F0B92F9927B751A0F0D1F0660F771F3D
:10172000881F991F1AF0BA95C9F712C0B13081F01D
:10173000C3D0B1E00895C0C0672F782F8827B85F65
:1017400039F0B93FCCF3869577956795B395D9F77E
:101750003EF490958095709561957F4F8F4F9F4F88
:101760000895E89409C097FB3EF490958095709594
:1017700061957F4F8F4F9F4F9923A9F0F92F96E9DD
:10178000BB279395F695879577956795B795F11152
:10179000F8CFFAF4BB0F11F460FF1BC06F5F7F4FEF
:1017A0008F4F9F4F16C0882311F096E911C0772301
:1017B00021F09EE8872F762F05C0662371F096E80A
:1017C000862F70E060E02AF09A95660F771F881FD9
:1017D000DAF7880F9695879597F90895990F00087D
:1017E000550FAA0BE0E8FEEF16161706E807F907F3
:1017F000C0F012161306E407F50798F0621B730B8E
:10180000840B950B39F40A2661F0232B242B252B0E
:1018100021F408950A2609F4A140A6958FEF811DB1
:10182000811D089597F99F6780E870E060E0089552
:101830009FEF80EC089500240A94161617061806E8
:101840000906089500240A941216130614060506C4
:101850000895092E0394000C11F4882352F0BB0F55
:1018600040F4BF2B11F460FF04C06F5F7F4F8F4FB8
:101870009F4F089557FD9058440F551F59F05F3FF3
:1018800071F04795880F97FB991F61F09F3F79F0A2
:1018900087950895121613061406551FF2CF469524
:1018A000F1DF08C0161617061806991FF1CF8695A6
:1018B0007105610508940895E894BB27662777278A
:1018C000CB0197F908958ADF08F48FEF08950BD0C4
:1018D000C0CFB1DF28F0B6DF18F0952309F0A2CF12
:1018E000A7CF1124EACFC6DFA0F3959FD1F3950FC0
:1018F00050E0551F629FF001729FBB27F00DB11D94
:10190000639FAA27F00DB11DAA1F649F6627B00D23
:10191000A11D661F829F2227B00DA11D621F739F0C
:10192000B00DA11D621F839FA00D611D221F749F1A
:101930003327A00D611D231F849F600D211D822F61
:10194000762F6A2F11249F5750408AF0E1F08823A8
:101950004AF0EE0FFF1FBB1F661F771F881F9150B5
:101960005040A9F79E3F510570F05CCFA6CF5F3F76
:10197000ECF3983EDCF3869577956795B795F795E8
:10198000E7959F5FC1F7FE2B880F911D9695879570
:1019900097F90895A1E21A2EAA1BBB1BFD010DC0E9
:1019A000AA1FBB1FEE1FFF1FA217B307E407F5070F
:1019B00020F0A21BB30BE40BF50B661F771F881FEB
:1019C000991F1A9469F760957095809590959B0181
:1019D000AC01BD01CF01089509D0A59F900DB49F22
:1019E000900DA49F800D911D11240895A29FB00118
:1019F000B39FC001A39F01D0B29F700D811D112420
:101A0000911D0895E199FECF9FBB8EBBE09A992767
:101A10008DB30895262FE199FECF9FBB8EBBE09A30
:101A200001970DB2021631F02DBB0FB6F894E29A71
:0A1A3000E19A0FBE0895F894FFCF6D
:021A3A00F800B2
:00000001FF
