:1000000012C02CC02BC02AC029C028C09FC126C046
:1000100025C024C023C022C021C020C01FC01EC0D4
:100020001DC071CA1BC011241FBECFE5D4E0DEBFC6
:10003000CDBF10E0A0E6B0E0EAE1FBE102C0059030
:100040000D92A236B107D9F720E0A2E6B0E001C0D8
:100050001D92AC3FB207E1F72ED45DCDD1CF0F9307
:100060001F938B0197B18F71907E892B87B9862F53
:10007000662379F040E050E0BA01369A3699FECF17
:10008000E4B1F5B14E0F5F1F611D711D8150A9F7DD
:1000900003C040E050E0BA0120E030E0CB01BA01FB
:1000A000A9019801E7DCC9011F910F91089586B756
:1000B000806286BF98E088E10FB6F894A89581BD6C
:1000C0000FBE91BDFFCF8B98939810929500089525
:1000D0008B9A81E08093950008951FBC8DE08EBDC2
:1000E00088E09DE39BBD8ABD89B7806189BF089583
:1000F00016B817B83E983F9886B1876886B9339886
:100100003598109292001092910008958EE090E040
:10011000E9DC882319F080937A00089585E18093C3
:100120007A0065E18EE090E0E5DC089581E090E002
:100130009093980080939700109282001092810013
:100140008091F100813031F040F0823049F4AA9A78
:10015000A8980895AA98A89A0895AA98A898089582
:10016000AA9AA898089594988091950081110BC03F
:10017000839909C02FEF83ED90E321508040904098
:10018000E1F700C00000959AC098809195008130F9
:1001900009F493981092DA001092D9008091D2005D
:1001A000813051F4C3DF2FEF81EE94E02150804085
:1001B0009040E1F700C000000895AA9AA89A109212
:1001C0009800109297000895949AF7DF8091950017
:1001D000813009F4939A9598C09A81E090E09093C9
:1001E000DA008093D900089568E070E081E037DF9D
:1001F0008093F4009093F500E2E6F0E0818392832F
:1002000090918D0080918E0093838483089568E09F
:1002100070E087E024DF8093F4009093F500E2E63D
:10022000F0E0818392838091AC00838390918D0074
:1002300080918E0094838583089581E090E090936F
:10024000940080939300C19A2FEF81EE94E02150A7
:1002500080409040E1F700C0000064E070E086E07C
:10026000FEDE8093F4009093F500E2E6F0E08183F7
:1002700092838091AC00838390918D0080918E0059
:1002800094838583C1980895CF92DF92EF92FF9275
:10029000C19A2FEF81EE94E0215080409040E1F729
:1002A00000C0000064E070E086E0D9DE9093F500C5
:1002B0008093F400BC0180E090E0C3DA20E030E0FD
:1002C00040E85AE374DB20E030E84FE455E46FDBAC
:1002D0008CDA7093FB006093FA0080E090E0B1DA72
:1002E0006B017C0120E030E04FEF54E40DDA88230D
:1002F000CCF420E030E0A901C701B60154DB1816A8
:100300008CF481E090E0909382008093810020E063
:1003100030E040EF54E4C701B601F6D9882334F445
:10032000949804C01092820010928100C198FF90AE
:10033000EF90DF90CF90089598B384E0892788BB31
:10034000089592B380E2892782BB08951F920F928D
:100350000FB60F9211242F933F934F935F936F9398
:100360007F938F939F93AF93BF93EF93FF9380916E
:10037000EA009091EB00892B01F18091A800909107
:10038000A900892BC9F08091DF009091E000892BB2
:1003900099F480919E0090919F00A091A000B0914F
:1003A000A1000196A11DB11D80939E0090939F0016
:1003B000A093A000B093A100C4DF80918100909130
:1003C0008200892B09F0B8DF80917F009091800036
:1003D000892B09F4CEC08091F2009091F30002972E
:1003E00009F060C08299BCC081E090E09093B000B9
:1003F0008093AF001092D1001092D0001092F300C1
:100400001092F2001092800010927F008091D9002B
:100410009091DA00892B29F480919500813009F4BC
:10042000939A8091EA009091EB00892B09F498C08F
:10043000839996C02FEF83E294EF21508040904043
:10044000E1F700C0000044DE939886B7806286BF63
:100450002FEF81EE94E0215080409040E1F700C002
:100460000000F89486B78B7F86BF86B78E7F86BFE5
:1004700086B78F7786BF86B78F7B86BF86B78F7D1F
:1004800086BF86B78F7E86BF86B7877F86BF80E1AF
:1004900090E028DB80939A00880F8160D0D702D843
:1004A00078945EC0829B5CC01092B0001092AF0046
:1004B00081E090E09093D1008093D0001092F300FF
:1004C0001092F2001092800010927F008091D9006B
:1004D0009091DA00892B29F480919500813009F4FC
:1004E000939A8091EA009091EB00892BC9F183994E
:1004F00037C02FEF83E294EF215080409040E1F726
:1005000000C00000E5DD939886B7806286BF2FEFBC
:1005100081EE94E0215080409040E1F700C000005F
:10052000F89486B78B7F86BF86B78E7F86BF86B7E7
:100530008F7786BF86B78F7B86BF86B78F7D86BF56
:1005400086B78F7E86BF86B7877F86BF80E190E0C3
:10055000C9DA80939A00880F816071D7A3D7789405
:100560008091F2009091F30001969093F3008093B4
:10057000F2008091B1009091B200892B09F4E1DE84
:10058000FF91EF91BF91AF919F918F917F916F916B
:100590005F914F913F912F910F900FBE0F901F9041
:1005A0001895CF92DF92EF92FF920F931F93CF9304
:1005B000DF9368EE73E083E052DD8C019093F500E9
:1005C0008093F40068EE73E087E049DDEC019093DE
:1005D000F5008093F400B80180E090E032D920E08B
:1005E00030E040E85AE3E3D920E030E84FE455E456
:1005F000DED925E535E545ED5FE3D9D920E030E0EA
:1006000040E05FE3D4D96B017C01BE0180E090E063
:1006100018D920E030E040E85AE3C9D920E030E8BA
:100620004FE455E4C4D99B01AC01C701B60107D81A
:10063000DF91CF911F910F91FF90EF90DF90CF90BE
:100640000895BBDDC19A2FEF81EE94E021508040E8
:100650009040E1F700C0000068E070E086E0FFDC59
:100660009093F5008093F400BC0180E090E0E9D81D
:1006700020E030E040E85AE39AD920E030E84FE447
:1006800055E495D925E535E545ED5FE390D920E0C2
:1006900030E048E455E487D98823CCF081E090E04D
:1006A0009093ED008093EC008091BC00811114C008
:1006B0008BDD2FEF81EE94E0215080409040E1F7F8
:1006C00000C00000109286001092850005C094982A
:1006D0001092ED001092EC00C1988091D900909199
:1006E000DA00892BA1F48091EC009091ED00892B28
:1006F00071F08091D200813051F418DD2FEF81EE3E
:1007000094E0215080409040E1F700C0000008953F
:1007100087E087BB85E084BB8AEB81BBF7DC82E1A5
:1007200090E0E0D98093F10081E190E0DBD9809303
:10073000D20080E190E0D6D980939A008FE090E0DB
:10074000D1D98093E1008EE090E0CCD980937A00FB
:1007500082B3816482BBC0989398F89480919A0088
:10076000880F81606CD6C4DC81E090E090938600B5
:10077000809385001092B0001092AF001092D100CB
:100780001092D0001092DA001092D90010928200DC
:100790001092810021E020939B0010928000109223
:1007A0007F001092F3001092F200209395001092B7
:1007B000AC0010928A00109289001092C70010922B
:1007C000C60010928800109287001092F8001092D4
:1007D000F7001092C3001092C2001092EE00109227
:1007E00099001092F9001092F6001092BC0010923D
:1007F000EB001092EA0010929D0010929C00109263
:10080000E0001092DF00109294001092930010927A
:10081000A9001092A8001092B2001092B10090931B
:10082000C5008093C4001092E6001092E700109279
:10083000E8001092E9001092C8001092C9001092CE
:10084000CA001092CB001092A2001092A300109246
:10085000A4001092A50010929E0010929F0010928A
:10086000A0001092A1001092CC001092CD00109226
:10087000CE001092CF0010927B0010927C0010925C
:100880007D0010927E001092BE001092BF00109268
:10089000C0001092C10010928C0010928B007894CE
:1008A00080DE6093E2007093E3008093E400909315
:1008B000E500C7DE08952CDFF5D50FDC11E002E07E
:1008C000C12FD02F0F2EF1ED3F2EF02D0F2EF3ED77
:1008D000CF2EF02D0F2EF2EDDF2EF02DFF24FA9407
:1008E0000F2EF3E3EF2EF02D109296001092BD0024
:1008F00061E070E083E0B3DB9093F5008093F40057
:10090000BC0180E090E09DD720E030E040E85AE371
:100910004ED820E030E84FE455E449D825E535E5E8
:1009200045ED5FE344D85CD760938D0070938E00F3
:1009300080938F00909390002091D9003091DA003D
:10094000232BE9F480D720E030E046E955E4DCD6FB
:100950008823ACF48091850090918600892BB1F0BA
:1009600033DC2FEF31EE84E0215030408040E1F75E
:1009700000C00000109286001092850007C0809190
:10098000850090918600892B09F07EC080919900A6
:100990008E3109F074C062E370E087E060DB909311
:1009A000F5008093F400BC0180E090E04AD720E09D
:1009B00030E040E85AE3FBD720E030E84FE455E46C
:1009C000F6D713D770938C0060938B0080E090E093
:1009D00038D74B015C0160918D0070918E00809141
:1009E0008F00909190002FD720E030E040E05FE34F
:1009F000DED79B01AC01C501B40121D624EA30E762
:100A00004DE35EE385D6F1D67093B5006093B400F4
:100A100080E090E016D720E030E048EC52E474D655
:100A2000181634F480919500811124C0839922C056
:100A30006091EE0070E080E090E005D720E030E0CB
:100A400040E85FE361D681110FC08091B1009091C1
:100A5000B200892B49F087DB81E090E0909386001B
:100A6000809385001092EE008091EE008F5F80935E
:100A7000EE0003C01092EE0007DC10929900809106
:100A800099008F5F8093990080919C0090919D00C8
:100A9000892B09F0C4C4809195008111C8C4839941
:100AA000C6C49FEF2BE732E9915020403040E1F778
:100AB00000C0000080919C0090919D00892B09F05E
:100AC000AEC4809195008111B2C48399B0C481E015
:100AD00090E09093EB008093EA0090939D008093C8
:100AE0009C0094988091EA009091EB00892B09F486
:100AF000D1C08091A8009091A900892B09F4B3C0BE
:100B00008091DF009091E000892B09F0B2C08091C4
:100B1000C4009091C500892B09F48BC02091B800C6
:100B20003091B9004091BA005091BB00A0E1BEE005
:100B3000C3D74B015C012091D3003091D400409188
:100B4000D5005091D600ACE3B0E0B6D7DC01CB01C4
:100B5000880D991DAA1DBB1D8090DB009090DC00C4
:100B6000A090DD00B090DE00880E991EAA1EBB1E6C
:100B700080927B0090927C00A0927D00B0927E00DB
:100B80002091E6003091E7004091E8005091E900A3
:100B9000A0E1BEE091D72B013C012091C80030912B
:100BA000C9004091CA005091CB00ACE3B0E084D7BB
:100BB000460E571E681E791E8091A2009091A300D8
:100BC000A091A400B091A500480E591E6A1E7B1E7C
:100BD0004092BE005092BF006092C0007092C1006F
:100BE000481859086A087B081414150416041704D9
:100BF0004CF44092CC005092CD006092CE007092A6
:100C0000CF000FC080E8480E81E5581E81E0681EC5
:100C1000711C4092CC005092CD006092CE00709238
:100C2000CF0010929E0010929F001092A000109290
:100C3000A1001092C5001092C4004091CC005091C8
:100C4000CD006091CE007091CF0080919E00909178
:100C50009F00A091A000B091A10084179507A6075E
:100C6000B707C0F024DA8091DF009091E000892B73
:100C700089F08091950081110DC083993EC09AEA58
:100C800026EE36E981E09150204030408040D9F78F
:100C900000000DDA80919C0090919D00892B69F1F4
:100CA00080919500813049F5839927C01092EB001F
:100CB0001092EA0010929D0010929C001092E000A9
:100CC0001092DF001092B0001092AF0081E090E02F
:100CD0009093C5008093C4001092CC001092CD0078
:100CE0001092CE001092CF0010929E0010929F00A2
:100CF0001092A0001092A10036DA829915C080915E
:100D00009B00813071F481E090E0909380008093AB
:100D10007F001092B0001092AF001092D10010929C
:100D2000D00010929B0002C0C0939B008091D9001C
:100D30009091DA00892BB9F58091970090919800F5
:100D4000892B89F1809911C0869B0FC0979A919841
:100D5000C2988091AC00813029F48091F6008F5FB9
:100D60008093F6001092AC0038C0809B11C0869929
:100D70000FC0919A9798C2988091AC00811105C0DC
:100D80008091F9008F5F8093F900C093AC0025C07B
:100D900091989798C29AD093AC000FDA1092ED0018
:100DA0001092EC0041C08091810090918200892BCB
:100DB00049F48091EC009091ED00892B11F0C298DC
:100DC00001C0C29A919897988091EC009091ED00A3
:100DD000892B51F183E08093AC008091F7009091D2
:100DE000F800883C910501F58091EC009091ED00B0
:100DF000892BD1F01092F8001092F7008091F90041
:100E00008B3020F48091F6008B3050F09198AA98A6
:100E1000C29AD3D91092ED001092EC00D093AC009E
:100E20001092F9001092F6008091F7009091F8006E
:100E300001969093F8008093F7008091EC009091D8
:100E4000ED00892B09F4FDDB00D381114DCD80919C
:100E50006D0080FFE1C281FFD9C26AE082E690E0C6
:100E60002FD380916D0082FF02C00000D0C280911C
:100E70006200823409F425C168F5893209F4C4C0DE
:100E8000A0F4833209F4FDC038F4813209F406C1BC
:100E9000823209F4F8C0B5C2853209F4E3C008F41F
:100EA000EEC0873209F4C7C0ACC2853309F44CC028
:100EB00048F4833309F458C008F0FCC0813309F4C6
:100EC0009FC09FC2873309F46AC090F1813409F44E
:100ED0008FC097C2833509F41DC1A0F4863409F48C
:100EE0000EC130F4843409F4EFC008F4EBC0FBC049
:100EF000893409F408C1823509F403C1873409F043
:100F000080C280C0813D09F465C148F4853509F48B
:100F100053C108F406C1803D09F453C172C2833D38
:100F200009F426C208F4BDC1843D09F466C269C251
:100F30008091D9009091DA00892B19F01093630009
:100F400060C2F09263005DC280919700909198001A
:100F5000892B19F4F092630002C010936300809112
:100F6000F100809364004DC28091AF009091B00079
:100F7000892B21F01093630093980CC08091D000CE
:100F80009091D100892B21F000936300939802C0C7
:100F9000F09263001092D1001092D00032C2809182
:100FA0006300813049F018F0823059F00FC0109280
:100FB000F100109263000EC0C093F1001093630023
:100FC00009C0D093F1000093630004C0D093F100F6
:100FD000009363006091F10082E190E08BD58091F5
:100FE000970090919800892B09F40BC29FD809C2F1
:100FF0006091630060939A0080E190E07BD557D8C0
:10100000B2D8FFC1E1D8FDC191D8C093D200612F01
:1010100081E190E06FD58091970090919800892BA5
:1010200019F0C093960002C0F0929600809196004D
:1010300080936300E6C1C1D81092D20060E081E1E4
:1010400090E058D58091970090919800892B19F4E1
:10105000C093960002C0F092960080919600809313
:101060006300CFC18091D9009091DA00892B11F4EF
:10107000BBD8C7C1E2E6F0E011821282C2C1C7D874
:10108000C0C1DBD8BEC1E2E6F0E00183E28280911C
:10109000E100838380917A008483B3C180918100D1
:1010A00090918200892B19F010936700AAC1F092E9
:1010B0006700A7C110928200109281001093630014
:1010C000A0C1F5D700D89DC103D88091BC00811183
:1010D00098C181E090E09093B2008093B100C093FA
:1010E000BC00959A8EC18091D9009091DA00892B2D
:1010F00019F41093630085C11092630082C1949A21
:1011000080C194987EC181E090E09093E00080934C
:10111000DF0077C181E090E09093A9008093A80060
:1011200070C1E2E6F0E0818190E0A0E0B0E0809361
:10113000E6009093E700A093E800B093E900828175
:1011400090E0A0E0B0E08093C8009093C900A09325
:10115000CA00B093CB00838190E0A0E0B0E0809320
:10116000A2009093A300A093A400B093A500848153
:1011700090E0A0E0B0E08093B8009093B900A09315
:10118000BA00B093BB00858190E0A0E0B0E080930E
:10119000D3009093D400A093D500B093D60086815D
:1011A00090E0A0E0B0E08093DB009093DC00A0939F
:1011B000DD00B093DE0025C11092A9001092A800B6
:1011C00020C190918D0080918E00E2E6F0E0918345
:1011D000828317C11092AE001092AD0064E670E0F9
:1011E000812F3DD79093F5008093F400BC0180E0FF
:1011F00090E027D320E030E040E85AE3D8D320E065
:1012000030E84FE455E4D3D32091E2003091E3007D
:101210004091E4005091E50013D2E7D270938C0026
:1012200060938B0080E090E00CD34B015C016091F7
:101230008D0070918E0080918F009091900003D36B
:1012400020E030E040E05FE3B2D32B013C0120E03E
:1012500030E048E452E4F4D19B01AC01C501B40193
:1012600053D218162CF01092B5001092B4000FC093
:10127000A3019201C501B401E2D124EA30E74DE3B4
:101280005EE346D2B2D27093AE006093AD00E2E668
:10129000F0E030829091AD008091AE009183828326
:1012A000B0C064E670E087E0DAD69093F5008093F2
:1012B000F400BC0180E090E0C4D220E030E040E8DF
:1012C0005AE375D320E030E84FE455E470D3209121
:1012D000E2003091E3004091E4005091E500B0D18C
:1012E00084D270938C0060938B0080E090E0A9D250
:1012F0004B015C0160918D0070918E0080918F0098
:1013000090919000A0D220E030E040E05FE34FD326
:101310002B013C019B01AC01C501B401F5D11816AC
:1013200034F48091D9009091DA00892B29F410923D
:10133000B5001092B4000FC0A3019201C501B40121
:101340007ED124EA30E74DE35EE3E2D14ED27093E2
:10135000B5006093B400E2E6F0E0D0829091B40072
:101360008091B500918382838091AC00838349C0D2
:101370008091AC00811101C020D781E090E0909372
:10138000940080939300C19A9FEF21EE34E0915036
:1013900020403040E1F700C0000064E070E086E0EB
:1013A0005ED69093F5008093F400BC0180E090E05D
:1013B00048D220E030E040E85AE3F9D220E030E8BB
:1013C0004FE455E4F4D225E535E545ED5FE3EFD292
:1013D0000CD26093830070938400E2E6F0E0C08258
:1013E00061837283C1988091D200813051F48091E1
:1013F000AC00811106C09AD604C08091AC008093E5
:1014000063006AE082E690E02AD001C000001DD0AF
:1014100081116ACA47D068CA1BD044D065CA80917E
:10142000EA009091EB00892B09F063CB39CC8091D5
:10143000EA009091EB00892B09F05BCB5ECC82B97E
:1014400084E086BF10926E00089580916E0008952A
:1014500080916E008111FCCF8091600008959C0105
:1014600090916E009111FCCF60936F00662379F02C
:10147000F901A0E7B0E0615070E06F5F7F4FC901F4
:10148000860F971F21912D93E817F907D9F710922E
:101490006D0088EF8093600085EC86BF81E08093CB
:1014A0006E00089580916E008111FCCF10926D0046
:1014B00088EF8093600085EC86BF10926E000895DF
:1014C000AC0190916E009111FCCF80916D0080FF76
:1014D00016C0662379F0A0E7B0E0FA016150262F2C
:1014E00030E02F5F3F4F240F351F9D919193E217FE
:1014F000F307D9F780916D008D7F80936D00809107
:101500006D00817008951F920F920FB60F921124F3
:101510008F939F93EF93FF9381B1803909F45EC05D
:1015200090F4803709F448C038F4882309F471C076
:10153000803609F446C073C0803809F44FC088383B
:1015400009F467C06CC0883A81F038F4883909F42E
:1015500060C0803A09F458C062C0803CC9F0883C41
:1015600009F457C0883B19F05AC010926C00E09102
:101570006C0081E08E0F80936C00F0E0E059FF4F2B
:10158000808183B985EC86BF81E080936E004EC078
:1015900090916C0080916F00981306C080916D004F
:1015A000816080936D0003C081B18093600085EC01
:1015B00086BF10926E003AC080916D008460809367
:1015C0006D0080916D00826080936D0010926C00C0
:1015D00085EC86BF81E080936E0028C0E0916C00AE
:1015E00081E08E0F80936C0083B1F0E0E059FF4FF3
:1015F000808380916D00816080936D0085EC86BF53
:1016000081E080936E0012C085EC86BF10926E0060
:101610000DC081B18093600080E986BF07C081B1B1
:101620008093600085EC86BF10926E00FF91EF9171
:101630009F918F910F900FBE0F901F90189550584B
:10164000BB27AA270ED075C166D130F06BD120F030
:1016500031F49F3F11F41EF45BC10EF4E095E7FBFB
:1016600051C1E92F77D180F3BA1762077307840756
:10167000950718F071F49EF58FC10EF4E0950B2ECE
:10168000BA2FA02D0B01B90190010C01CA01A001D4
:101690001124FF27591B99F0593F50F4503E68F12F
:1016A0001A16F040A22F232F342F4427585FF3CF70
:1016B000469537952795A795F0405395C9F77EF441
:1016C0001F16BA0B620B730B840BBAF09150A1F08A
:1016D000FF0FBB1F661F771F881FC2F70EC0BA0F10
:1016E000621F731F841F48F4879577956795B79598
:1016F000F7959E3F08F0B3CF9395880F08F0992790
:10170000EE0F979587950895D9D008F481E0089554
:101710000CD00FC107D140F0FED030F021F45F3F74
:1017200019F0F0C0511139C1F3C014D198F39923C5
:10173000C9F35523B1F3951B550BBB27AA27621795
:101740007307840738F09F5F5F4F220F331F441FDA
:10175000AA1FA9F333D00E2E3AF0E0E830D0915012
:101760005040E695001CCAF729D0FE2F27D0660FFF
:10177000771F881FBB1F261737074807AB07B0E83E
:1017800009F0BB0B802DBF01FF2793585F4F2AF054
:101790009E3F510568F0B6C000C15F3FECF3983E34
:1017A000DCF3869577956795B795F7959F5FC9F7B1
:1017B000880F911D9695879597F90895E1E0660F3A
:1017C000771F881FBB1F621773078407BA0720F0B3
:1017D000621B730B840BBA0BEE1F88F7E09508951C
:1017E00004D06894B111D9C00895BCD088F09F5737
:1017F00090F0B92F9927B751A0F0D1F0660F771F5D
:10180000881F991F1AF0BA95C9F712C0B13081F03C
:10181000C3D0B1E00895C0C0672F782F8827B85F84
:1018200039F0B93FCCF3869577956795B395D9F79D
:101830003EF490958095709561957F4F8F4F9F4FA7
:101840000895E89409C097FB3EF4909580957095B3
:1018500061957F4F8F4F9F4F9923A9F0F92F96E9FC
:10186000BB279395F695879577956795B795F11171
:10187000F8CFFAF4BB0F11F460FF1BC06F5F7F4F0E
:101880008F4F9F4F16C0882311F096E911C0772320
:1018900021F09EE8872F762F05C0662371F096E829
:1018A000862F70E060E02AF09A95660F771F881FF8
:1018B000DAF7880F9695879597F90895990F00089C
:1018C000550FAA0BE0E8FEEF16161706E807F90712
:1018D000C0F012161306E407F50798F0621B730BAD
:1018E000840B950B39F40A2661F0232B242B252B2E
:1018F00021F408950A2609F4A140A6958FEF811DD1
:10190000811D089597F99F6780E870E060E0089571
:101910009FEF80EC089500240A9416161706180607
:101920000906089500240A941216130614060506E3
:101930000895092E0394000C11F4882352F0BB0F74
:1019400040F4BF2B11F460FF04C06F5F7F4F8F4FD7
:101950009F4F089557FD9058440F551F59F05F3F12
:1019600071F04795880F97FB991F61F09F3F79F0C1
:1019700087950895121613061406551FF2CF469543
:10198000F1DF08C0161617061806991FF1CF8695C5
:101990007105610508940895E894BB2766277727A9
:1019A000CB0197F908958ADF08F48FEF08950BD0E3
:1019B000C0CFB1DF28F0B6DF18F0952309F0A2CF31
:1019C000A7CF1124EACFC6DFA0F3959FD1F3950FDF
:1019D00050E0551F629FF001729FBB27F00DB11DB3
:1019E000639FAA27F00DB11DAA1F649F6627B00D43
:1019F000A11D661F829F2227B00DA11D621F739F2C
:101A0000B00DA11D621F839FA00D611D221F749F39
:101A10003327A00D611D231F849F600D211D822F80
:101A2000762F6A2F11249F5750408AF0E1F08823C7
:101A30004AF0EE0FFF1FBB1F661F771F881F9150D4
:101A40005040A9F79E3F510570F05CCFA6CF5F3F95
:101A5000ECF3983EDCF3869577956795B795F79507
:101A6000E7959F5FC1F7FE2B880F911D969587958F
:101A700097F90895A1E21A2EAA1BBB1BFD010DC008
:101A8000AA1FBB1FEE1FFF1FA217B307E407F5072E
:101A900020F0A21BB30BE40BF50B661F771F881F0A
:101AA000991F1A9469F760957095809590959B01A0
:101AB000AC01BD01CF01089509D0A59F900DB49F41
:101AC000900DA49F800D911D11240895A29FB00137
:101AD000B39FC001A39F01D0B29F700D811D11243F
:101AE000911D0895E199FECF9FBB8EBBE09A992787
:101AF0008DB30895262FE199FECF9FBB8EBBE09A50
:101B000001970DB2021631F02DBB0FB6F894E29A90
:0A1B1000E19A0FBE0895F894FFCF8C
:021B1A00F800D1
:00000001FF
