:1000000012C02CC02BC02AC029C028C0E2C126C003
:1000100025C024C023C022C021C020C01FC01EC0D4
:100020001DC04DCA1BC011241FBECFE5D4E0DEBFEA
:10003000CDBF10E0A0E6B0E0E2EDFAE102C005902D
:100040000D92A236B107D9F721E0A2E6B0E001C0D7
:100050001D92AB30B207E1F7BAD339CDD1CFCF93F0
:10006000C82FACD9C2D9883009F0C2D980EDAFD938
:10007000BCD9883109F0BCD98C2FA9D9B6D988321E
:1000800009F0B6D99BD9B1D9803109F0B1D981ED48
:100090009ED9ABD9803409F0ABD9A0D9C82FA5D946
:1000A000883509F0A5D990D98C2FCF91089580E09B
:1000B000D6DF8F77089581E0D2DF089582E0CFDF29
:1000C0008F730895982F92959F70990F292F220F63
:1000D000220F920F8F70890F08950F931F938B013A
:1000E00097B18F71907E892B87B9862F662379F01F
:1000F00040E050E0BA01369A3699FECFE4B1F5B14E
:100100004E0F5F1F611D711D8150A9F703C040E0B4
:1001100050E0BA0120E030E0CB01BA01A90198011A
:1001200085DCC9011F910F91089586B7806286BF53
:1001300098E088E10FB6F894A89581BD0FBE91BDF7
:10014000FFCF8B9893981092980008958B9A81E036
:100150008093980008951FBC8DE08EBD88E09DE3DC
:100160009BBD8ABD89B7806189BF089581E090E019
:1001700090939E0080939D001092850010928400C1
:100180008091FD00813031F040F0823049F4AA9A2C
:10019000A8980895AA98A89A0895AA98A898089542
:1001A000AA9AA89808958091980081110DC083990A
:1001B0000BC094982FEF83ED90E321508040904046
:1001C000E1F700C0000007C08091F9009091FA00AB
:1001D000892B09F0949A959AC09880919800813063
:1001E00009F493981092E4001092E3008091DA00F1
:1001F000813051F4BBDF2FEF81EE94E0215080403D
:100200009040E1F700C000000895AA9AA89A1092C1
:100210009E0010929D000895F8DF80919800813033
:1002200009F4939A9598C09A81E090E09093E40045
:100230008093E300089568E070E081E04EDF8093F2
:10024000000190930101E2E6F0E0818392839091B6
:1002500092008091930093838483089568E070E016
:1002600087E03BDF8093000190930101E2E6F0E03C
:10027000818392838091B4008383909192008091D6
:1002800093009483858308958091B400811101C007
:10029000BCDF81E090E09093970080939600C19A34
:1002A0002FEF81EE94E0215080409040E1F700C0B4
:1002B000000064E070E086E010DF8093000190931E
:1002C0000101E2E6F0E0818392838091B4008383B0
:1002D000909192008091930094838583C19880913E
:1002E000DA00813071F48091B40081110AC03EDFE0
:1002F0002FEF81EE94E0215080409040E1F700C064
:1003000000000895CF92DF92EF92FF92C19A2FEFF3
:1003100081EE94E0215080409040E1F700C0000061
:1003200064E070E086E0D9DE9093010180930001E3
:10033000BC0180E090E061DA20E030E040E85AE380
:1003400012DB23E333E343E550E40DDB20E030E050
:100350004AE754E408DB25DA70930A016093090147
:1003600080E090E04ADA6B017C0120E030EE48E06A
:1003700055E4A6D98823CCF420E030E0A901C701D8
:10038000B601EDDA18168CF481E090E090938500C8
:100390008093840020E030E649EF54E4C701B601C1
:1003A0008FD9882334F4949804C010928500109259
:1003B0008400C198FF90EF90DF90CF90089598B39C
:1003C00084E0892788BB089592B380E2892782BBA5
:1003D00008951F920F920FB60F9211242F933F93FF
:1003E0004F935F936F937F938F939F93AF93BF933D
:1003F000EF93FF938091AB009091AC0001969093A6
:10040000AC008093AB008091F7009091F800892BAD
:1004100001F18091AF009091B000892BC9F08091DB
:10042000E9009091EA00892B99F48091A3009091C2
:10043000A400A091A500B091A6000196A11DB11D38
:100440008093A3009093A400A093A500B093A6006E
:10045000BBDF8091840090918500892B09F0AFDF8C
:100460008091820090918300892BD1F18091FE00D0
:100470009091FF000297B1F4829929C081E090E049
:100480009093B8008093B7001092D9001092D800D2
:100490001092FF001092FE001092830010928200D2
:1004A000939A15C0829B13C01092B8001092B700A7
:1004B00081E090E09093D9008093D8001092FF00E3
:1004C0001092FE001092830010928200939A809105
:1004D000FE009091FF0001969093FF008093FE0034
:1004E000FF91EF91BF91AF919F918F917F916F910C
:1004F0005F914F913F912F910F900FBE0F901F90E2
:100500001895CF92DF92EF92FF920F931F93CF93A4
:10051000DF9368EE73E083E0E0DD8C0190930101EE
:100520008093000168EE73E087E0D7DDEC019093E3
:10053000010180930001B80180E090E05ED920E0E5
:1005400030E040E85AE30FDA20E030E44EE455E4CE
:100550000ADA25E535E545ED5FE305DA20E030E030
:1005600040E05FE300DA6B017C01BE0180E090E0D7
:1005700044D920E030E040E85AE3F5D920E030E407
:100580004EE455E4F0D99B01AC01C701B60133D864
:10059000DF91CF911F910F91FF90EF90DF90CF905F
:1005A000089533DEC19A2FEF81EE94E02150804010
:1005B0009040E1F700C0000068E070E086E08DDD6B
:1005C0009093010180930001BC0180E090E015D977
:1005D00020E030E040E85AE3C6D920E030E44EE4C1
:1005E00055E4C1D920E030E041EE54E4B8D9882385
:1005F00044F081E090E09093FA008093F900949A9F
:1006000005C01092FA001092F9009498C198809158
:10061000E3009091E400892B59F48091F9009091C6
:10062000FA00892B29F08091DA00813009F49EDDEF
:10063000089587E087BB85E084BB8AEB81BB3E9849
:100640003F9886B1876886B93398359882E190E003
:1006500025DA8093FD0081E190E020DA8093DA00D2
:1006600080E190E01BDA80939F008FE090E016DA43
:100670008093EB0082B3816482BB959AC098939873
:1006800040DF6093EE007093EF008093F000909352
:10069000F10087DFF89480919F00880F8160ABD6CE
:1006A00081E090E090938900809388001092B800D8
:1006B0001092B7001092D9001092D8001092E40066
:1006C0001092E300109285001092840021E02093A4
:1006D000A00010928300109282001092FF001092EE
:1006E000FE00209398001092B40010928F00109298
:1006F0008E001092CD001092CC0010928D001092BE
:100700008C0010920501109204011092C900109201
:10071000C8001092AC001092AB0010920801109229
:1007200002011092F8001092F7001092A2001092AD
:10073000A1001092EA001092E90010929700109226
:1007400096001092B0001092AF009093CB0080936F
:10075000CA001092F2001092F3001092F40010926E
:10076000F5001092D0001092D1001092D200109299
:10077000D3001092A7001092A8001092A900109226
:10078000AA001092A3001092A4001092A50010924B
:10079000A6001092D4001092D5001092D6001092AC
:1007A000D70010927C0010927D0010927E00109273
:1007B0007F001092C4001092C5001092C6001092E3
:1007C000C70010929100109290007894089531DF44
:1007D00045D6C1DCFF24F3946894EE24E1F801E0EF
:1007E00010E0CF2DDE2D0F2EF3ED2F2EF02D0F2E3E
:1007F000F2ED3F2EF02DDD24DA946894CC24C5F878
:1008000010929C001092C30064E070E083E065DC0D
:100810009093010180930001BC0180E090E0EDD74E
:1008200020E030E040E85AE39ED820E030E44EE497
:1008300055E499D825E535E545ED5FE394D8ACD787
:10084000609392007093930080939400909395002E
:100850008091AB009091AC00039709F0E4C0109236
:10086000AC001092AB008091E3009091E400892BE2
:1008700009F067C06AE070E087E02FDC9093010127
:1008800080930001BC0180E090E0B7D720E030E029
:1008900040E85AE368D820E030E44EE455E463D8F9
:1008A00080D7709391006093900080E090E0A5D78E
:1008B0004B015C01609192007091930080919400D3
:1008C000909195009CD720E030E040E05FE34BD86A
:1008D0009B01AC01C501B4018ED624EA30E74DE39B
:1008E0005EE3F2D65ED7709381006093800080E073
:1008F00090E083D74B015C0120E030E048EC52E40B
:100900002ED88823F4F020E030E44CE156E4C50111
:10091000B401D6D68823ACF48091880090918900E8
:10092000892BB1F079DC2FEF31EE84E0215030409B
:100930008040E1F700C0000010928900109288000A
:1009400007C08091880090918900892B09F055C0DB
:100950006AE070E087E0C1DB9093010180930001C1
:10096000BC0180E090E049D720E030E040E85AE365
:10097000FAD720E030E44EE455E4F5D712D770936F
:1009800091006093900080E090E037D74B015C01CC
:1009900060919200709193008091940090919500E5
:1009A0002ED720E030E040E05FE3DDD79B01AC01D3
:1009B000C501B40120D624EA30E74DE35EE384D6D6
:1009C000F0D67093BB006093BA0080E090E015D73A
:1009D00020E030E048EC52E473D6882334F0809174
:1009E0009800811108C0839906C0DDDB109389004F
:1009F0000093880018C086DC16C08091A1009091F9
:100A0000A200892B09F0C3C4809198008111C7C44A
:100A10008399C5C41093F8000093F7001093A200C7
:100A20000093A10094988091F7009091F800892B91
:100A300009F425C18091AF009091B000892B09F491
:100A400007C18091E9009091EA00892B09F006C165
:100A50008091CA009091CB00892B09F4DFC0F894F3
:100A6000A6D49FEF21EE34E0915020403040E1F7D2
:100A700000C0000023DB26DB90E0A0E0B0E0809324
:100A8000BF009093C000A093C100B093C2008FEF4D
:100A900091EE24E0815090402040E1F700C000003A
:100AA0000ADB10DB90E0A0E0B0E08093DB009093E5
:100AB000DC00A093DD00B093DE003FEF81EE94E018
:100AC000315080409040E1F700C00000F0DAFADADF
:100AD00090E0A0E0B0E08093E5009093E600A09362
:100AE000E700B093E8002FEF31EE84E02150304072
:100AF0008040E1F700C00000789480919F00880F4B
:100B0000816079D4ABD42091BF003091C000409176
:100B1000C1005091C200A0E1BEE0B6D74B015C011C
:100B20002091DB003091DC004091DD005091DE002F
:100B3000ACE3B0E0A9D7DC01CB01880D991DAA1D5B
:100B4000BB1D8090E5009090E600A090E700B0907B
:100B5000E800880E991EAA1EBB1E80927C0090920F
:100B60007D00A0927E00B0927F002091F200309133
:100B7000F3004091F4005091F500A0E1BEE084D76D
:100B80002B013C012091D0003091D1004091D20046
:100B90005091D300ACE3B0E077D7460E571E681EE5
:100BA000791E8091A7009091A800A091A900B09112
:100BB000AA00480E591E6A1E7B1E4092C400509225
:100BC000C5006092C6007092C700481859086A08AC
:100BD0007B0814141504160417044CF44092D40036
:100BE0005092D5006092D6007092D7000FC090E866
:100BF000490E91E5591E91E0691E711C4092D40086
:100C00005092D5006092D6007092D7001092A30047
:100C10001092A4001092A5001092A6001092CB0092
:100C20001092CA004091D4005091D5006091D60036
:100C30007091D7008091A3009091A400A091A5008D
:100C4000B091A60084179507A607B707C0F06DDA24
:100C50008091E9009091EA00892B89F080919800B9
:100C600081110DC083993CC02AEA36EE86E991E0F5
:100C70002150304080409040D9F7000056DA8091F2
:100C8000A1009091A200892B59F1809198008130A8
:100C900039F5839925C01092F8001092F700109250
:100CA000A2001092A1001092EA001092E9001092A6
:100CB000B8001092B7001093CB000093CA001092B6
:100CC000D4001092D5001092D6001092D700109246
:100CD000A3001092A4001092A5001092A60063DA5F
:100CE000829913C08091A000813061F41093830039
:100CF000009382001092B8001092B7001092D900B1
:100D00001092D8001092A00002C0C093A000809161
:100D1000E3009091E400892BB9F580919D009091BA
:100D20009E00892B89F1809911C0869B0FC0979AEC
:100D30009198C2988091B400813029F48091020189
:100D40008F5F809302011092B40038C0809B11C065
:100D500086990FC0919A9798C2988091B40081119A
:100D600005C0809108018F5F80930801C093B40093
:100D700025C091989798C29AD093B40046DA109201
:100D8000FA001092F90041C0809184009091850092
:100D9000892B49F48091F9009091FA00892B11F088
:100DA000C29801C0C29A919897988091F900909149
:100DB000FA00892B51F183E08093B4008091040103
:100DC00090910501883C910501F58091F900909181
:100DD000FA00892BD1F01092050110920401809144
:100DE00008018B3020F4809102018B3050F09198F3
:100DF000AA98C29A0ADA1092FA001092F900D093D7
:100E0000B4001092080110920201809104019091A7
:100E10000501019690930501809304018091F900EA
:100E20009091FA00892B09F4BCDBEBD28111E8CC5C
:100E300080916D0080FFA8C281FFA0C26AE082E6B7
:100E400090E01AD380916D0082FF02C0000097C22B
:100E500080916200823409F422C168F5893209F474
:100E6000C4C0A0F4833209F4FDC038F4813209F41F
:100E700003C1823209F4F8C07CC2853209F4E3C0B0
:100E800008F4EEC0873209F4C7C073C2853309F491
:100E90004CC048F4833309F458C008F0F9C08133DA
:100EA00009F49FC066C2873309F46AC090F18134A7
:100EB00009F48FC05EC2833509F40BC1A0F48634F7
:100EC00009F4FEC030F4843409F4ECC008F4E8C03E
:100ED000EBC0893409F4F8C0823509F4F3C08734D3
:100EE00009F047C280C0813D09F42DC148F4853521
:100EF00009F41BC108F4F2C0803D09F41BC139C2DA
:100F0000833D09F4EFC108F486C1843D09F42DC284
:100F100030C28091E3009091E400892B19F0F092A7
:100F2000630027C2D092630024C280919D009091FB
:100F30009E00892B19F4D092630002C0F0926300E6
:100F40008091FD008093640014C28091B70090915D
:100F5000B800892B21F0F092630093980CC0809127
:100F6000D8009091D900892B21F0E09263009398EA
:100F700002C0D09263001092D9001092D800F9C13B
:100F800080916300813049F018F0823059F00FC031
:100F90001092FD00109263000EC0C093FD00F0920D
:100FA000630009C0D093FD00E092630004C0D093B9
:100FB000FD00E09263006091FD0082E190E076D553
:100FC00080919D0090919E00892B09F4D2C1CED8CA
:100FD000D0C16091630060939F0080E190E066D58E
:100FE000A4D8E1D8C6C118D9C4C1C0D8C093DA000A
:100FF0006F2D81E190E05AD580919D0090919E00E7
:10100000892B19F0C0939C0002C0D0929C00809163
:101010009C0080936300ADC1F8D81092DA0060E0C4
:1010200081E190E043D580919D0090919E00892BB5
:1010300019F4C0939C0002C0D0929C0080919C0047
:101040008093630096C18091E3009091E400892B26
:1010500011F4F1D88EC1E2E6F0E01182128289C16A
:10106000FDD887C111D985C1E2E6F0E0E182C282F4
:101070008091EB0083837DC18091840090918500F5
:10108000892B19F0F092670074C1D092670071C18A
:101090001092850010928400F09263006AC145D8D6
:1010A00050D867C153D865C18091E3009091E400A6
:1010B000892B19F4F09263005CC11092630059C14E
:1010C000949A57C1949855C11093EA000093E9008F
:1010D00050C11093B0000093AF004BC1E2E6F0E0C6
:1010E000818190E0A0E0B0E08093F2009093F30063
:1010F000A093F400B093F500828190E0A0E0B0E00E
:101100008093D0009093D100A093D200B093D300ED
:10111000838190E0A0E0B0E08093A7009093A800C6
:10112000A093A900B093AA0024C11092B00010921D
:10113000AF001FC19091920080919300E2E6F0E031
:101140009183828316C11092B6001092B50064E6B6
:1011500070E08F2DC2D79093010180930001BC01F4
:1011600080E090E04AD320E030E040E85AE3FBD34F
:1011700020E030E44EE455E4F6D32091EE003091C7
:10118000EF004091F0005091F10036D20AD37093F5
:1011900091006093900080E090E02FD34B015C01C0
:1011A00060919200709193008091940090919500CD
:1011B00026D320E030E040E05FE3D5D32B013C01B3
:1011C00020E030E048E452E417D29B01AC01C501B5
:1011D000B40176D218162CF01092BB001092BA000F
:1011E0000FC0A3019201C501B40105D224EA30E782
:1011F0004DE35EE369D2D5D27093B6006093B5003B
:10120000E2E6F0E021ED20839091B5008091B600F8
:1012100091838283AEC064E670E087E05ED79093EE
:10122000010180930001BC0180E090E0E6D220E063
:1012300030E040E85AE397D320E030E44EE455E450
:1012400092D32091EE003091EF004091F000509148
:10125000F100D2D1A6D2709391006093900080E00B
:1012600090E0CBD24B015C016091920070919300B1
:101270008091940090919500C2D220E030E040E04F
:101280005FE371D32B013C019B01AC01C501B401AB
:1012900017D2181634F48091E3009091E400892B62
:1012A00029F41092BB001092BA000FC0A301920162
:1012B000C501B401A0D124EA30E74DE35EE304D2D6
:1012C00070D27093BB006093BA00E2E6F0E0308227
:1012D0009091BA008091BB00918382838091B40089
:1012E000838347C08091B400811101C08ED71093D1
:1012F000970000939600C19A3FEF81EE94E0315041
:1013000080409040E1F700C0000064E070E086E0BB
:10131000E4D69093010180930001BC0180E090E04D
:101320006CD220E030E040E85AE31DD320E030E406
:101330004EE455E418D325E535E545ED5FE313D3D9
:1013400030D26093860070938700E2E6F0E020825E
:1013500061837283C1988091DA00813051F4809169
:10136000B400811106C002D704C08091B4008093FC
:1013700063006AE082E690E04ED001C0000041D0F8
:1013800081113ECA6BD03CCA3FD068D039CA809127
:10139000F7009091F800892B09F04CCB76CC809126
:1013A000F7009091F800892B09F044CB99CC11B843
:1013B00088E480B986B7846086BF089584EA86BFD2
:1013C00006B607FEFDCF089584E986BF089583B968
:1013D00084E886BF06B607FEFDCF089584E886BF81
:1013E00006B607FEFDCF83B1089581B1887F0895C9
:1013F00084E986BF089582B984E086BF10926E00AA
:10140000089580916E00089580916E008111FCCF47
:101410008091600008959C0190916E009111FCCF25
:1014200060936F00662379F0F901A0E7B0E06150A6
:1014300070E06F5F7F4FC901860F971F21912D9339
:10144000E817F907D9F710926D0088EF80936000D4
:1014500085EC86BF81E080936E00089580916E00D8
:101460008111FCCF10926D0088EF8093600085ECB5
:1014700086BF10926E000895AC0190916E0091119C
:10148000FCCF80916D0080FF16C0662379F0A0E745
:10149000B0E0FA016150262F30E02F5F3F4F240F5C
:1014A000351F9D919193E217F307D9F780916D0055
:1014B0008D7F80936D0080916D00817008951F92E3
:1014C0000F920FB60F9211248F939F93EF93FF9378
:1014D00081B1803909F45EC090F4803709F448C0C6
:1014E00038F4882309F471C0803609F446C073C00B
:1014F000803809F44FC0883809F467C06CC0883A56
:1015000081F038F4883909F460C0803A09F458C091
:1015100062C0803CC9F0883C09F457C0883B19F090
:101520005AC010926C00E0916C0081E08E0F8093A5
:101530006C00F0E0E059FF4F808183B985EC86BFF5
:1015400081E080936E004EC090916C0080916F009E
:10155000981306C080916D00816080936D0003C078
:1015600081B18093600085EC86BF10926E003AC016
:1015700080916D00846080936D0080916D00826029
:1015800080936D0010926C0085EC86BF81E08093A3
:101590006E0028C0E0916C0081E08E0F80936C009B
:1015A00083B1F0E0E059FF4F808380916D0081604E
:1015B00080936D0085EC86BF81E080936E0012C041
:1015C00085EC86BF10926E000DC081B180936000E3
:1015D00080E986BF07C081B18093600085EC86BF3B
:1015E00010926E00FF91EF919F918F910F900FBE1F
:1015F0000F901F9018955058BB27AA270ED075C181
:1016000066D130F06BD120F031F49F3F11F41EF41D
:101610005BC10EF4E095E7FB51C1E92F77D180F370
:10162000BA17620773078407950718F071F49EF5DF
:101630008FC10EF4E0950B2EBA2FA02D0B01B9012E
:1016400090010C01CA01A0011124FF27591B99F038
:10165000593F50F4503E68F11A16F040A22F232F44
:10166000342F4427585FF3CF469537952795A79594
:10167000F0405395C9F77EF41F16BA0B620B730B3B
:10168000840BBAF09150A1F0FF0FBB1F661F771FAC
:10169000881FC2F70EC0BA0F621F731F841F48F461
:1016A000879577956795B795F7959E3F08F0B3CFE7
:1016B0009395880F08F09927EE0F979587950895D1
:1016C000D9D008F481E008950CD00FC107D140F0C3
:1016D000FED030F021F45F3F19F0F0C0511139C154
:1016E000F3C014D198F39923C9F35523B1F3951B93
:1016F000550BBB27AA2762177307840738F09F5F33
:101700005F4F220F331F441FAA1FA9F333D00E2EA1
:101710003AF0E0E830D091505040E695001CCAF70E
:1017200029D0FE2F27D0660F771F881FBB1F2617D3
:1017300037074807AB07B0E809F0BB0B802DBF01A6
:10174000FF2793585F4F2AF09E3F510568F0B6C0BF
:1017500000C15F3FECF3983EDCF386957795679583
:10176000B795F7959F5FC9F7880F911D9695879557
:1017700097F90895E1E0660F771F881FBB1F621776
:1017800073078407BA0720F0621B730B840BBA0B34
:10179000EE1F88F7E095089504D06894B111D9C080
:1017A0000895BCD088F09F5790F0B92F9927B75172
:1017B000A0F0D1F0660F771F881F991F1AF0BA9515
:1017C000C9F712C0B13081F0C3D0B1E00895C0C0F4
:1017D000672F782F8827B85F39F0B93FCCF386950B
:1017E00077956795B395D9F73EF490958095709568
:1017F00061957F4F8F4F9F4F0895E89409C097FBE5
:101800003EF490958095709561957F4F8F4F9F4FD7
:101810009923A9F0F92F96E9BB279395F69587951B
:1018200077956795B795F111F8CFFAF4BB0F11F4DE
:1018300060FF1BC06F5F7F4F8F4F9F4F16C0882385
:1018400011F096E911C0772321F09EE8872F762FBB
:1018500005C0662371F096E8862F70E060E02AF0FC
:101860009A95660F771F881FDAF7880F96958795E8
:1018700097F90895990F0008550FAA0BE0E8FEEFBD
:1018800016161706E807F907C0F012161306E40744
:10189000F50798F0621B730B840B950B39F40A263D
:1018A00061F0232B242B252B21F408950A2609F41B
:1018B000A140A6958FEF811D811D089597F99F671F
:1018C00080E870E060E008959FEF80EC08950024C8
:1018D0000A941616170618060906089500240A9495
:1018E00012161306140605060895092E0394000C1B
:1018F00011F4882352F0BB0F40F4BF2B11F460FFAA
:1019000004C06F5F7F4F8F4F9F4F089557FD9058D2
:10191000440F551F59F05F3F71F04795880F97FBB3
:10192000991F61F09F3F79F087950895121613066D
:101930001406551FF2CF4695F1DF08C0161617069C
:101940001806991FF1CF86957105610508940895D1
:10195000E894BB2766277727CB0197F908958ADF9C
:1019600008F48FEF08950BD0C0CFB1DF28F0B6DFB9
:1019700018F0952309F0A2CFA7CF1124EACFC6DF34
:10198000A0F3959FD1F3950F50E0551F629FF00192
:10199000729FBB27F00DB11D639FAA27F00DB11DEB
:1019A000AA1F649F6627B00DA11D661F829F222774
:1019B000B00DA11D621F739FB00DA11D621F839FFB
:1019C000A00D611D221F749F3327A00D611D231FD1
:1019D000849F600D211D822F762F6A2F11249F571F
:1019E00050408AF0E1F088234AF0EE0FFF1FBB1F42
:1019F000661F771F881F91505040A9F79E3F5105E1
:101A000070F05CCFA6CF5F3FECF3983EDCF3869599
:101A100077956795B795F795E7959F5FC1F7FE2B8B
:101A2000880F911D9695879597F90895A1E21A2E32
:101A3000AA1BBB1BFD010DC0AA1FBB1FEE1FFF1F72
:101A4000A217B307E407F50720F0A21BB30BE40BC2
:101A5000F50B661F771F881F991F1A9469F7609509
:101A60007095809590959B01AC01BD01CF010895C3
:101A7000A29FB001B39FC001A39F01D0B29F700D80
:101A8000811D1124911D0895F3DFA59F900DB49F32
:101A9000900DA49F800D911D11240895E199FECF12
:101AA0009FBB8EBBE09A99278DB30895262FE199AD
:101AB000FECF9FBB8EBBE09A01970DB2021631F0AC
:101AC0002DBB0FB6F894E29AE19A0FBE0895F894F0
:021AD000FFCF46
:021AD200F8001A
:00000001FF
