:1000000012C02CC02BC02AC029C028C033C226C0B1
:1000100025C024C023C022C021C020C00BC11EC0E7
:100020001DC0C1CA1BC011241FBECFE5D4E0DEBF76
:10003000CDBF10E0A0E6B0E0EAEBFBE102C0059026
:100040000D92A236B107D9F720E0A2E6B0E001C0D8
:100050001D92AC3FB207E1F7DDD4ADCDD1CF86B76D
:10006000806286BF98E088E10FB6F894A89581BDBC
:100070000FBE91BDFFCF8B98939810929500089575
:100080008B9A81E08093950008951FBC8DE08EBD12
:1000900088E09DE39BBD8ABD89B7806189BF0895D3
:1000A00016B817B83E983F9886B1876886B93398D6
:1000B00035981092920010929100089516B817B8D2
:1000C0003E983F9886B18F6A86B987B1807E8360FB
:1000D00087B9369A81E090E09093920080939100E6
:1000E0000895CF92DF92EF92FF920F931F93CF93D9
:1000F000DF93182FEB01D4DF97B1812F8F71907EA2
:10010000892B87B98C2FCC2379F040E050E0BA01DD
:10011000369A3699FECFE4B1F5B14E0F5F1F611DDF
:10012000711D8150A9F703C040E050E0BA018E0173
:1001300020E030E0CB01BA01A9019801EBDC6901B4
:100140007A01BCDFC601DF91CF911F910F91FF9023
:10015000EF90DF90CF9008958EE090E013DD88233C
:1001600019F080937A00089585E180937A0065E123
:100170008EE090E00FDD089581E090E0909398008C
:100180008093970010928200109281008091F1007C
:10019000813031F040F0823049F4AA9AA89808954D
:1001A000AA98A89A0895AA98A8980895AA9AA8988B
:1001B000089594988091950081110BC0839909C08E
:1001C0002FEF83ED90E3215080409040E1F700C095
:1001D0000000959AC09880919500813009F4939819
:1001E0001092DA001092D9008091D200813051F43F
:1001F000C3DF2FEF81EE94E0215080409040E1F783
:1002000000C000000895AA9AA89A1092980010922F
:1002100097000895949AF7DF80919500813009F452
:10022000939A9598C09A81E090E09093DA00809339
:10023000D90008951F920F920FB60F9211242F9399
:100240003F934F935F936F937F938F939F93AF935E
:10025000BF93EF93FF938091910090919200892B2F
:1002600009F445C064B175B180E090E03ADB20E06C
:1002700030E040E85AE3EBDB20E030E84FE455E4BF
:10028000E6DB25E535E545ED5FE3E1DBF9DA609393
:100290008D0070938E0080938F009093900020913A
:1002A000D9003091DA00232B11F52091EA0030912A
:1002B000EB00232BE1F417DB20E030E249E955E4C1
:1002C00073DA1816A4F08091850090918600892B2E
:1002D00071F0A0DF2FEF81EE94E02150804090403C
:1002E000E1F700C000001092860010928500FF9197
:1002F000EF91BF91AF919F918F917F916F915F919E
:100300004F913F912F910F900FBE0F901F90189516
:1003100068E070E081E0E5DE8093F4009093F50002
:10032000E2E6F0E08183928390918D0080918E00CF
:1003300093838483089568E070E087E0D2DE809341
:10034000F4009093F500E2E6F0E0818392838091DF
:10035000AC00838390918D0080918E00948385837F
:10036000089581E090E09093940080939300C19A67
:100370002FEF81EE94E0215080409040E1F700C0E3
:10038000000064E070E086E0ACDE8093F4009093BF
:10039000F500E2E6F0E0818392838091AC008383F4
:1003A00090918D0080918E0094838583C1980895EB
:1003B000CF92DF92EF92FF92C19A2FEF81EE94E0FD
:1003C000215080409040E1F700C0000064E070E000
:1003D00086E087DE9093F5008093F400BC0180E016
:1003E00090E07FDA20E030E040E85AE330DB20E0C4
:1003F00030E84FE455E42BDB48DA7093FB00609360
:10040000FA0080E090E06DDA6B017C0120E030E0E2
:100410004FEF54E4C9D98823CCF420E030E0A9019F
:10042000C701B60110DB18168CF481E090E09093C0
:1004300082008093810020E030E040EF54E4C70167
:10044000B601B2D9882334F4949804C01092820083
:1004500010928100C198FF90EF90DF90CF900895A7
:1004600098B384E0892788BB089592B380E28927F6
:1004700082BB08951F920F920FB60F9211242F93F3
:100480003F934F935F936F937F938F939F93AF931C
:10049000BF93EF93FF938091EA009091EB00892B3B
:1004A00001F18091A8009091A900892BC9F0809159
:1004B000DF009091E000892B99F480919E0090914B
:1004C0009F00A091A000B091A1000196A11DB11DB7
:1004D00080939E0090939F00A093A000B093A100F2
:1004E000C4DF8091810090918200892B09F0B8DFF0
:1004F00080917F0090918000892B09F4CEC080917B
:10050000F2009091F300029709F060C08299BCC09C
:1005100081E090E09093B0008093AF001092D10002
:100520001092D0001092F3001092F200109280000E
:1005300010927F008091D9009091DA00892B29F4E4
:1005400080919500813009F4939A8091EA0090910E
:10055000EB00892B09F498C0839996C02FEF83E2B2
:1005600094EF215080409040E1F700C0000088DD0A
:10057000939886B7806286BF2FEF81EE94E021507A
:1005800080409040E1F700C00000F89486B78B7F70
:1005900086BF86B78E7F86BF86B78F7786BF86B7C2
:1005A0008F7B86BF86B78F7D86BF86B78F7E86BFDF
:1005B00086B7877F86BF80E190E0E4DA80939A0077
:1005C000880F81608CD7BED778945EC0829B5CC058
:1005D0001092B0001092AF0081E090E09093D100B3
:1005E0008093D0001092F3001092F20010928000DD
:1005F00010927F008091D9009091DA00892B29F424
:1006000080919500813009F4939A8091EA0090914D
:10061000EB00892BC9F1839937C02FEF83E294EF68
:10062000215080409040E1F700C0000029DD939800
:1006300086B7806286BF2FEF81EE94E02150804024
:100640009040E1F700C00000F89486B78B7F86BF2A
:1006500086B78E7F86BF86B78F7786BF86B78F7B3C
:1006600086BF86B78F7D86BF86B78F7E86BF86B7EB
:10067000877F86BF80E190E085DA80939A00880FBB
:1006800081602DD75FD778948091F2009091F3002C
:1006900001969093F3008093F2008091B1009091C5
:1006A000B200892B09F4E1DEFF91EF91BF91AF9188
:1006B0009F918F917F916F915F914F913F912F917A
:1006C0000F900FBE0F901F901895CF92DF92EF9270
:1006D000FF920F931F93CF93DF9368EE73E083E055
:1006E00000DD8C019093F5008093F40068EE73E0D8
:1006F00087E0F7DCEC019093F5008093F400B801FB
:1007000080E090E0EED820E030E040E85AE39FD966
:1007100020E030E84FE455E49AD925E535E545ED8C
:100720005FE395D920E030E040E05FE390D96B01D2
:100730007C01BE0180E090E0D4D820E030E040E8C9
:100740005AE385D920E030E84FE455E480D99B0195
:10075000AC01C701B601C3D7DF91CF911F910F91B3
:10076000FF90EF90DF90CF900895CF92DF92EF92BD
:10077000FF92CF93DF9347DDC19A2FEF81EE94E094
:10078000215080409040E1F700C000008091BC0003
:10079000882319F0C0E8DCE002C0C4E7DEE068E0CE
:1007A00070E086E09EDC9093F5008093F400BC013D
:1007B00080E090E096D820E030E040E85AE347D966
:1007C00020E030E84FE455E442D925E535E545ED34
:1007D0005FE33DD96B017C01BE0180E090E081D8F0
:1007E0009B01AC01C701B6012ED98823CCF081E072
:1007F00090E09093ED008093EC008091BC0081111B
:1008000014C008DD2FEF81EE94E02150804090402D
:10081000E1F700C00000109286001092850005C02C
:1008200094981092ED001092EC00C1988091D9003C
:100830009091DA00892BA1F48091EC009091ED0069
:10084000892B71F08091D200813051F495DC2FEF2B
:1008500081EE94E0215080409040E1F700C000001C
:10086000DF91CF91FF90EF90DF90CF90089587E0D8
:1008700087BB85E084BB8AEB81BB6EDC82E190E0C4
:1008800081D98093F10081E190E07CD98093D200FE
:1008900080E190E077D980939A008FE090E072D960
:1008A0008093E1008EE090E06DD980937A0082B36E
:1008B000816482BBC0989398F89480919A00880FC5
:1008C00081600DD6EDDB81E090E09093860080930F
:1008D00085001092B0001092AF001092D1001092DB
:1008E000D0001092DA001092D9001092820010927B
:1008F000810021E020939B001092800010927F00E5
:100900001092F3001092F200209395001092AC0028
:1009100010928A00109289001092C7001092C600AF
:1009200010928800109287001092F8001092F70041
:100930001092C3001092C2001092EE001092990023
:100940001092F9001092F6001092BC001092EB0089
:100950001092EA0010929D0010929C001092E0000C
:100960001092DF0010929400109293001092A90050
:100970001092A8001092B2001092B1009093C5009E
:100980008093C4001092E6001092E7001092E800F5
:100990001092E9001092C8001092C9001092CA008B
:1009A0001092CB001092A2001092A3001092A4000B
:1009B0001092A50010929E0010929F001092A0002D
:1009C0001092A1001092CC001092CD001092CE0097
:1009D0001092CF0010927B0010927C0010927D004C
:1009E00010927E001092BE001092BF001092C000C4
:1009F0001092C10010928C0010928B00789465DEEA
:100A00006093E2007093E3008093E4009093E5002C
:100A1000ACDE08952CDF96D538DB01E06894DD2448
:100A2000D1F8EE24E394F12CC02F1D2DD3E00F2E2E
:100A3000F3ED2F2EF02D0F2EF2ED3F2EF02DCC24C6
:100A4000CA94109296001092BD00809185009091FA
:100A50008600892B09F076C0809199008E3109F0CB
:100A60006CC062E370E087E03CDB9093F50080931C
:100A7000F400BC0180E090E034D720E030E040E8B2
:100A80005AE3E5D720E030E84FE455E4E0D7FDD65F
:100A900070938C0060938B0080E090E022D74B0134
:100AA0005C0160918D0070918E0080918F0090911B
:100AB000900019D720E030E040E05FE3C8D79B0109
:100AC000AC01C501B4010BD624EA30E74DE35EE387
:100AD0006FD6DBD67093B5006093B40080E090E0F1
:100AE00000D720E030E048EC52E45ED6181604F15E
:100AF0006091EE0070E080E090E0F5D620E030E01C
:100B000040E85FE351D681110DC08091B100909112
:100B1000B200892B39F04DDBF0928600E09285001F
:100B20001092EE008091EE008F5F8093EE0003C084
:100B30001092EE003DDC10929900809199008F5F39
:100B40008093990080919C0090919D00892B09F0E1
:100B5000B6C4809195008111BAC48399B8C42FEFAF
:100B60003BE782E9215030408040E1F700C00000BF
:100B700080919C0090919D00892B09F0A0C48091E8
:100B800095008111A4C48399A2C4F092EB00E09275
:100B9000EA00F0929D00E0929C0094988091EA0017
:100BA0009091EB00892B09F4D1C08091A80090911D
:100BB000A900892B09F4B3C08091DF009091E00077
:100BC000892B09F0B2C08091C4009091C500892B97
:100BD00009F48BC02091B8003091B9004091BA005F
:100BE0005091BB00A0E1BEE0B7D74B015C01209162
:100BF000D3003091D4004091D5005091D600ACE3A1
:100C0000B0E0AAD7DC01CB01880D991DAA1DBB1D40
:100C10008090DB009090DC00A090DD00B090DE00C2
:100C2000880E991EAA1EBB1E80927B0090927C00AB
:100C3000A0927D00B0927E002091E6003091E70006
:100C40004091E8005091E900A0E1BEE085D72B017A
:100C50003C012091C8003091C9004091CA005091D8
:100C6000CB00ACE3B0E078D7460E571E681E791E65
:100C70008091A2009091A300A091A400B091A50042
:100C8000480E591E6A1E7B1E4092BE005092BF0045
:100C90006092C0007092C100481859086A087B0829
:100CA00014141504160417044CF44092CC0050920E
:100CB000CD006092CE007092CF000FC090E8490E38
:100CC00091E5591E91E0691E711C4092CC00509232
:100CD000CD006092CE007092CF0010929E001092D4
:100CE0009F001092A0001092A1001092C5001092D7
:100CF000C4004091CC005091CD006091CE00709125
:100D0000CF0080919E0090919F00A091A000B09193
:100D1000A10084179507A607B707C0F0A0D9809156
:100D2000DF009091E000892B89F08091950081117E
:100D30000DC083993CC02AEA36EE86E991E0215045
:100D4000304080409040D9F7000089D980919C00C4
:100D500090919D00892B59F180919500813039F552
:100D6000839925C01092EB001092EA0010929D002A
:100D700010929C001092E0001092DF001092B000E0
:100D80001092AF00F092C500E092C4001092CC0027
:100D90001092CD001092CE001092CF0010929E00C3
:100DA00010929F001092A0001092A10002DA829986
:100DB00013C080919B00813061F4F0928000E0923A
:100DC0007F001092B0001092AF001092D1001092EC
:100DD000D00010929B0002C0C0939B008091D9006C
:100DE0009091DA00892BB9F5809197009091980045
:100DF000892B89F1809911C0869B0FC0979A919891
:100E0000C2988091AC00813029F48091F6008F5F08
:100E10008093F6001092AC0037C0809B11C0869979
:100E20000FC0919A9798C2988091AC00811105C02B
:100E30008091F9008F5F8093F900C093AC0024C0CB
:100E400091989798C29A1093AC00DDD91092ED005A
:100E50001092EC0040C08091810090918200892B1B
:100E600049F48091EC009091ED00892B11F0C2982B
:100E700001C0C29A919897988091EC009091ED00F2
:100E8000892B49F1D093AC008091F7009091F80044
:100E9000883C910501F58091EC009091ED00892B43
:100EA000D1F01092F8001092F7008091F9008B3089
:100EB00020F48091F6008B3050F09198AA98C29A55
:100EC000A2D91092ED001092EC001093AC00109299
:100ED000F9001092F6008091F7009091F8000196C9
:100EE0009093F8008093F7008091EC009091ED00D2
:100EF000892B09F43ADCF9D28111A3CD80916D00E0
:100F000080FFDAC281FFD2C26AE082E690E028D395
:100F100080916D0082FF02C00000C9C28091620012
:100F2000823409F425C168F5893209F4C4C0A0F4FB
:100F3000833209F4FDC038F4813209F406C18232EB
:100F400009F4F8C0AEC2853209F4E3C008F4EEC07B
:100F5000873209F4C7C0A5C2853309F44CC048F4F0
:100F6000833309F458C008F0FCC0813309F49FC0F2
:100F700098C2873309F46AC090F1813409F48FC0B4
:100F800090C2833509F419C1A0F4863409F40CC168
:100F900030F4843409F4EFC008F4EBC0F9C08934AC
:100FA00009F406C1823509F401C1873409F079C218
:100FB00080C0813D09F45FC148F4853509F44DC115
:100FC00008F400C1803D09F44DC16BC2833D09F4B2
:100FD00021C208F4B8C1843D09F45FC262C28091A5
:100FE000D9009091DA00892B19F00093630059C25F
:100FF000C092630056C28091970090919800892B0F
:1010000019F4C092630002C0009363008091F10064
:101010008093640046C28091AF009091B000892B0C
:1010200021F00093630093980CC08091D0009091C0
:10103000D100892B21F0D0926300939802C0C09216
:1010400063001092D1001092D0002BC280916300F7
:10105000813049F018F0823059F00FC01092F10041
:10106000109263000EC0C093F1000093630009C0AA
:101070001093F100D092630004C01093F100D0925D
:1010800063006091F10082E190E084D58091970047
:1010900090919800892B09F404C26ED802C2609125
:1010A000630060939A0080E190E074D5D8D781D82E
:1010B000F8C1B0D8F6C160D8C093D200602F81E1EA
:1010C00090E068D58091970090919800892B19F055
:1010D000C093960002C0C0929600809196008093C3
:1010E0006300DFC190D81092D20060E081E190E00F
:1010F00051D58091970090919800892B19F4C09355
:10110000960002C0C0929600809196008093630082
:10111000C8C18091D9009091DA00892B11F4F8D8D8
:10112000C0C1E2E6F0E011821282BBC104D9B9C1AC
:1011300018D9B7C1E2E6F0E0D18212828091E100D5
:10114000838380917A008483ACC1809181009091E7
:101150008200892B19F000936700A3C1C092670039
:10116000A0C110928200109281000093630099C187
:1011700076D781D796C184D78091BC00811191C167
:10118000F092B200E092B100C093BC00959A89C180
:101190008091D9009091DA00892B19F400936300B3
:1011A00080C1109263007DC1949A7BC1949879C1EB
:1011B000F092E000E092DF0074C1F092A900E092AA
:1011C000A8006FC1E2E6F0E0818190E0A0E0B0E02D
:1011D0008093E6009093E700A093E800B093E900C5
:1011E000828190E0A0E0B0E08093C8009093C900B5
:1011F000A093CA00B093CB00838190E0A0E0B0E060
:101200008093A2009093A300A093A400B093A500A4
:10121000848190E0A0E0B0E08093B8009093B900A2
:10122000A093BA00B093BB00858190E0A0E0B0E04D
:101230008093D3009093D400A093D500B093D600B0
:10124000868190E0A0E0B0E08093DB009093DC002A
:10125000A093DD00B093DE0024C11092A90010928B
:10126000A8001FC190918D0080918E00E2E6F0E011
:101270009183828316C11092AE001092AD0064E695
:1012800070E0802F2ED79093F5008093F400BC017E
:1012900080E090E026D320E030E040E85AE3D7D366
:1012A00020E030E84FE455E4D2D32091E2003091C1
:1012B000E3004091E4005091E50012D2E6D2709331
:1012C0008C0060938B0080E090E00BD34B015C01BD
:1012D00060918D0070918E0080918F0090919000B0
:1012E00002D320E030E040E05FE3B1D32B013C01CA
:1012F00020E030E048E452E4F3D19B01AC01C501A9
:10130000B40152D218162CF01092B5001092B4000D
:101310000FC0A3019201C501B401E1D124EA30E775
:101320004DE35EE345D2B1D27093AE006093AD0061
:10133000E2E6F0E021ED20839091AD008091AE00D7
:1013400091838283AEC064E670E087E0CAD6909352
:10135000F5008093F400BC0180E090E0C2D220E070
:1013600030E040E85AE373D320E030E84FE455E43E
:101370006ED32091E2003091E3004091E40050915F
:10138000E500AED182D270938C0060938B0080E038
:1013900090E0A7D24B015C0160918D0070918E00AE
:1013A00080918F00909190009ED220E030E040E04C
:1013B0005FE34DD32B013C019B01AC01C501B4019E
:1013C000F3D1181634F48091D9009091DA00892B6A
:1013D00029F41092B5001092B4000FC0A30192013D
:1013E000C501B4017CD124EA30E74DE35EE3E0D1EE
:1013F0004CD27093B5006093B400E2E6F0E0308226
:101400009091B4008091B500918382838091AC006B
:10141000838347C08091AC00811101C0F4D6F09263
:101420009400E0929300C19A3FEF81EE94E0315036
:1014300080409040E1F700C0000064E070E086E08A
:1014400050D69093F5008093F400BC0180E090E0CA
:1014500048D220E030E040E85AE3F9D220E030E81A
:101460004FE455E4F4D225E535E545ED5FE3EFD2F1
:101470000CD26093830070938400E2E6F0E0208257
:1014800061837283C1988091D200813051F4809140
:10149000AC00811106C070D604C08091AC0080936E
:1014A00063006AE082E690E02AD001C000001DD00F
:1014B0008111C7CA47D0C5CA1BD044D0C2CA8091C7
:1014C000EA009091EB00892B09F06FCB45CC80911D
:1014D000EA009091EB00892B09F067CB68CC82B9C8
:1014E00084E086BF10926E00089580916E0008958A
:1014F00080916E008111FCCF8091600008959C0165
:1015000090916E009111FCCF60936F00662379F08B
:10151000F901A0E7B0E0615070E06F5F7F4FC90153
:10152000860F971F21912D93E817F907D9F710928D
:101530006D0088EF8093600085EC86BF81E080932A
:101540006E00089580916E008111FCCF10926D00A5
:1015500088EF8093600085EC86BF10926E0008953E
:10156000AC0190916E009111FCCF80916D0080FFD5
:1015700016C0662379F0A0E7B0E0FA016150262F8B
:1015800030E02F5F3F4F240F351F9D919193E2175D
:10159000F307D9F780916D008D7F80936D00809166
:1015A0006D00817008951F920F920FB60F92112453
:1015B0008F939F93EF93FF9381B1803909F45EC0BD
:1015C00090F4803709F448C038F4882309F471C0D6
:1015D000803609F446C073C0803809F44FC088389B
:1015E00009F467C06CC0883A81F038F4883909F48E
:1015F00060C0803A09F458C062C0803CC9F0883CA1
:1016000009F457C0883B19F05AC010926C00E09161
:101610006C0081E08E0F80936C00F0E0E059FF4F8A
:10162000808183B985EC86BF81E080936E004EC0D7
:1016300090916C0080916F00981306C080916D00AE
:10164000816080936D0003C081B18093600085EC60
:1016500086BF10926E003AC080916D0084608093C6
:101660006D0080916D00826080936D0010926C001F
:1016700085EC86BF81E080936E0028C0E0916C000D
:1016800081E08E0F80936C0083B1F0E0E059FF4F52
:10169000808380916D00816080936D0085EC86BFB2
:1016A00081E080936E0012C085EC86BF10926E00C0
:1016B0000DC081B18093600080E986BF07C081B111
:1016C0008093600085EC86BF10926E00FF91EF91D1
:1016D0009F918F910F900FBE0F901F9018955058AB
:1016E000BB27AA270ED075C166D130F06BD120F090
:1016F00031F49F3F11F41EF45BC10EF4E095E7FB5B
:1017000051C1E92F77D180F3BA17620773078407B5
:10171000950718F071F49EF58FC10EF4E0950B2E2D
:10172000BA2FA02D0B01B90190010C01CA01A00133
:101730001124FF27591B99F0593F50F4503E68F18E
:101740001A16F040A22F232F342F4427585FF3CFCF
:10175000469537952795A795F0405395C9F77EF4A0
:101760001F16BA0B620B730B840BBAF09150A1F0E9
:10177000FF0FBB1F661F771F881FC2F70EC0BA0F6F
:10178000621F731F841F48F4879577956795B795F7
:10179000F7959E3F08F0B3CF9395880F08F09927EF
:1017A000EE0F979587950895D9D008F481E00895B4
:1017B0000CD00FC107D140F0FED030F021F45F3FD4
:1017C00019F0F0C0511139C1F3C014D198F3992325
:1017D000C9F35523B1F3951B550BBB27AA276217F5
:1017E0007307840738F09F5F5F4F220F331F441F3A
:1017F000AA1FA9F333D00E2E3AF0E0E830D0915072
:101800005040E695001CCAF729D0FE2F27D0660F5E
:10181000771F881FBB1F261737074807AB07B0E89D
:1018200009F0BB0B802DBF01FF2793585F4F2AF0B3
:101830009E3F510568F0B6C000C15F3FECF3983E93
:10184000DCF3869577956795B795F7959F5FC9F710
:10185000880F911D9695879597F90895E1E0660F99
:10186000771F881FBB1F621773078407BA0720F012
:10187000621B730B840BBA0BEE1F88F7E09508957B
:1018800004D06894B111D9C00895BCD088F09F5796
:1018900090F0B92F9927B751A0F0D1F0660F771FBC
:1018A000881F991F1AF0BA95C9F712C0B13081F09C
:1018B000C3D0B1E00895C0C0672F782F8827B85FE4
:1018C00039F0B93FCCF3869577956795B395D9F7FD
:1018D0003EF490958095709561957F4F8F4F9F4F07
:1018E0000895E89409C097FB3EF490958095709513
:1018F00061957F4F8F4F9F4F9923A9F0F92F96E95C
:10190000BB279395F695879577956795B795F111D0
:10191000F8CFFAF4BB0F11F460FF1BC06F5F7F4F6D
:101920008F4F9F4F16C0882311F096E911C077237F
:1019300021F09EE8872F762F05C0662371F096E888
:10194000862F70E060E02AF09A95660F771F881F57
:10195000DAF7880F9695879597F90895990F0008FB
:10196000550FAA0BE0E8FEEF16161706E807F90771
:10197000C0F012161306E407F50798F0621B730B0C
:10198000840B950B39F40A2661F0232B242B252B8D
:1019900021F408950A2609F4A140A6958FEF811D30
:1019A000811D089597F99F6780E870E060E00895D1
:1019B0009FEF80EC089500240A9416161706180667
:1019C0000906089500240A94121613061406050643
:1019D0000895092E0394000C11F4882352F0BB0FD4
:1019E00040F4BF2B11F460FF04C06F5F7F4F8F4F37
:1019F0009F4F089557FD9058440F551F59F05F3F72
:101A000071F04795880F97FB991F61F09F3F79F020
:101A100087950895121613061406551FF2CF4695A2
:101A2000F1DF08C0161617061806991FF1CF869524
:101A30007105610508940895E894BB276627772708
:101A4000CB0197F908958ADF08F48FEF08950BD042
:101A5000C0CFB1DF28F0B6DF18F0952309F0A2CF90
:101A6000A7CF1124EACFC6DFA0F3959FD1F3950F3E
:101A700050E0551F629FF001729FBB27F00DB11D12
:101A8000639FAA27F00DB11DAA1F649F6627B00DA2
:101A9000A11D661F829F2227B00DA11D621F739F8B
:101AA000B00DA11D621F839FA00D611D221F749F99
:101AB0003327A00D611D231F849F600D211D822FE0
:101AC000762F6A2F11249F5750408AF0E1F0882327
:101AD0004AF0EE0FFF1FBB1F661F771F881F915034
:101AE0005040A9F79E3F510570F05CCFA6CF5F3FF5
:101AF000ECF3983EDCF3869577956795B795F79567
:101B0000E7959F5FC1F7FE2B880F911D96958795EE
:101B100097F90895A1E21A2EAA1BBB1BFD010DC067
:101B2000AA1FBB1FEE1FFF1FA217B307E407F5078D
:101B300020F0A21BB30BE40BF50B661F771F881F69
:101B4000991F1A9469F760957095809590959B01FF
:101B5000AC01BD01CF01089509D0A59F900DB49FA0
:101B6000900DA49F800D911D11240895A29FB00196
:101B7000B39FC001A39F01D0B29F700D811D11249E
:101B8000911D0895E199FECF9FBB8EBBE09A9927E6
:101B90008DB30895262FE199FECF9FBB8EBBE09AAF
:101BA00001970DB2021631F02DBB0FB6F894E29AF0
:0A1BB000E19A0FBE0895F894FFCFEC
:021BBA00F80031
:00000001FF
