:1000000012C02CC02BC02AC029C028C098C126C04D
:1000100025C024C023C022C021C020C01FC01EC0D4
:100020001DC07EC91BC011241FBECFE5D4E0DEBFBA
:10003000CDBF10E0A0E6B0E0E4E3F9E102C0059036
:100040000D92A236B107D9F721E0A2E6B0E001C0D7
:100050001D92A530B207E1F766D36ACCD1CF0F93DA
:100060001F938B0197B18F71907E892B87B9862F53
:10007000662379F040E050E0BA01369A3699FECF17
:10008000E4B1F5B14E0F5F1F611D711D8150A9F7DD
:1000900003C040E050E0BA0120E030E0CB01BA01FB
:1000A000A9019801F4DBC9011F910F91089586B74A
:1000B000806286BF98E088E10FB6F894A89581BD6C
:1000C0000FBE91BDFFCF8B98939810929400089526
:1000D0008B9A81E08093940008951FBC8DE08EBDC3
:1000E00088E09DE39BBD8ABD89B7806189BF089583
:1000F00081E090E090939A008093990010928300A1
:10010000109282008091F700813031F040F082300F
:1001100049F4AA9AA8980895AA98A89A0895AA981E
:10012000A8980895AA9AA898089594988091940000
:1001300081110BC0839909C02FEF83ED90E321500B
:1001400080409040E1F700C00000959AC0988091EF
:100150009400813009F493981092DD001092DC0035
:100160008091D300813051F4C3DF2FEF81EE94E012
:10017000215080409040E1F700C000000895AA9A05
:10018000A89A10929A00109299000895949AF7DF15
:1001900080919400813009F4939A9598C09A81E0F7
:1001A00090E09093DD008093DC00089568E070E0BB
:1001B00081E055DF8093FA009093FB00E2E6F0E0E7
:1001C0008183928390918E0080918F0093838483AA
:1001D000089568E070E087E042DF8093FA00909332
:1001E000FB00E2E6F0E0818392838091AF0083839D
:1001F00090918E0080918F009483858308958091E3
:10020000AF00811101C0BBDF81E090E090939300CB
:1002100080939200C19A2FEF81EE94E021508040AC
:100220009040E1F700C0000064E070E086E017DF76
:100230008093FA009093FB00E2E6F0E081839283E2
:100240008091AF00838390918E0080918F00948382
:100250008583C1988091D300813071F48091AF0083
:1002600081110AC045DF2FEF81EE94E021508040DC
:100270009040E1F700C000000895CF92DF92EF9226
:10028000FF92C19A2FEF81EE94E021508040904080
:10029000E1F700C0000064E070E086E0E0DE9093EB
:1002A000FB008093FA00BC0180E090E0D7D920E009
:1002B00030E040E85AE388DA20E030E84FE455E4E3
:1002C00083DAA0D9709304016093030180E090E089
:1002D000C5D96B017C0120E030E847EF54E421D917
:1002E0008823CCF420E030E0A901C701B60168DA28
:1002F00018168CF481E090E0909383008093820044
:1003000020E030E040EF54E4C701B6010AD9882369
:1003100034F4949804C01092830010928200C19823
:10032000FF90EF90DF90CF90089598B384E08927F5
:1003300088BB089592B380E2892782BB08951F92FB
:100340000F920FB60F9211242F933F934F935F9309
:100350006F937F938F939F93AF93BF93EF93FF938D
:100360008091F0009091F100892B01F18091AA0019
:100370009091AB00892BC9F08091E2009091E3004D
:10038000892B99F48091A0009091A100A091A200E6
:10039000B091A3000196A11DB11D8093A000909380
:1003A000A100A093A200B093A300C4DF80918200BB
:1003B00090918300892B09F0B8DF809180009091A3
:1003C0008100892BD1F18091F8009091F90002977A
:1003D000B1F4829929C081E090E09093B3008093BA
:1003E000B2001092D2001092D1001092F900109237
:1003F000F8001092810010928000939A15C0829BA1
:1004000013C01092B3001092B20081E090E090937C
:10041000D2008093D1001092F9001092F80010924F
:10042000810010928000939A8091F8009091F900D9
:1004300001969093F9008093F800FF91EF91BF919E
:10044000AF919F918F917F916F915F914F913F916C
:100450002F910F900FBE0F901F901895CF92DF92A3
:10046000EF92FF920F931F93CF93DF9368EE73E0A9
:1004700083E0F5DD8C019093FB008093FA0068EE39
:1004800073E087E0ECDDEC019093FB008093FA00D1
:10049000B80180E090E0E2D820E030E040E85AE3A4
:1004A00093D920E030E84FE455E48ED925E535E5D1
:1004B00045ED5FE389D920E030E040E05FE384D997
:1004C0006B017C01BE0180E090E0C8D820E030E004
:1004D00040E85AE379D920E030E84FE455E474D994
:1004E0009B01AC01C701B601B7D7DF91CF911F9136
:1004F0000F91FF90EF90DF90CF90089540DEC19A6A
:100500002FEF81EE94E0215080409040E1F700C051
:10051000000068E070E086E0A2DD9093FB0080932D
:10052000FA00BC0180E090E099D820E030E040E89B
:100530005AE34AD920E030E84FE455E445D920E0B9
:1005400030E041EE54E43CD988233CF081E090E077
:100550009093F3008093F20004C01092F300109285
:10056000F200C1988091DC009091DD00892B59F454
:100570008091F2009091F300892B29F08091D300B3
:10058000813009F4B5DD089587E087BB85E084BB41
:100590008AEB81BB3E983F9886B1876886B93398CD
:1005A000359882E190E0ABD98093F70081E190E04B
:1005B000A6D98093D30080E190E0A1D980939C00DC
:1005C0008FE090E09CD98093E40082B3816482BB89
:1005D000959AC0989398949841DF6093E700709340
:1005E000E8008093E9009093EA0088DFF894809116
:1005F0009C00880F816030D681E090E09093870066
:10060000809386001092B3001092B2001092D20034
:100610001092D1001092DD001092DC001092830045
:100620001092820021E020939D0010928100109290
:1006300080001092F9001092F8002093940010921C
:10064000AF0010928B0010928A001092C800109296
:10065000C70010928900109288001092FF0010923B
:10066000FE001092C4001092C3001092F400109289
:100670009B00109202011092FC001092F100109267
:10068000F00010929F0010929E001092E3001092D2
:10069000E20010929300109292001092AB00109220
:1006A000AA009093C6008093C5001092EB001092B0
:1006B000EC001092ED001092EE001092C900109222
:1006C000CA001092CB001092CC001092A40010929D
:1006D000A5001092A6001092A7001092A000109200
:1006E000A1001092A2001092A3001092CD001092CF
:1006F000CE001092CF001092D00010927C00109289
:100700007D0010927E0010927F001092BF00109228
:10071000C0001092C1001092C20010928D00109281
:100720008C007894089530DFCAD5D7DC11E002E060
:10073000C12FD02F0F2EF1ED3F2EF02D0F2EF3ED08
:10074000CF2EF02D0F2EF2EDDF2EF02DFF24FA9498
:100750000F2EF8E2EF2EF02D109298001092BE00AE
:1007600061E070E083E07BDC9093FB008093FA0013
:10077000BC0180E090E072D720E030E040E85AE32E
:1007800023D820E030E84FE455E41ED825E535E5D0
:1007900045ED5FE319D831D760938E0070938F00D9
:1007A00080939000909391002091DC003091DD00C7
:1007B000232BE9F455D720E030E046E955E4B1D6E3
:1007C0008823ACF48091860090918700892BB1F04A
:1007D000DDDC2FEF31EE84E0215030408040E1F746
:1007E00000C00000109287001092860007C0809120
:1007F000860090918700892B09F079C080919B0039
:100800008E3109F06EC062E370E087E028DC9093DF
:10081000FB008093FA00BC0180E090E01FD720E04D
:1008200030E040E85AE3D0D720E030E84FE455E428
:10083000CBD7E8D670938D0060938C0080E090E079
:100840000DD74B015C0160918E0070918F008091FB
:1008500090009091910004D720E030E040E05FE309
:10086000B3D79B01AC01C501B401F6D524EA30E74A
:100870004DE35EE35AD6C6D67093B6006093B500DA
:1008800080E090E0EBD620E030E048EC52E449D63E
:10089000181634F48091940081111EC083991CC0F5
:1008A0006091F40070E080E090E0DAD620E030E083
:1008B00040E85FE336D6811109C037DC81E090E083
:1008C00090938700809386001092F4008091F4004A
:1008D0008F5F8093F40003C01092F400CEDC10927E
:1008E0009B0080919B008F5F80939B0018C080913C
:1008F0009E0090919F00892B09F09EC480919400E6
:100900008111A2C48399A0C481E090E09093F1008A
:100910008093F00090939F0080939E009498809124
:10092000F0009091F100892B09F4D1C08091AA00C8
:100930009091AB00892B09F4B3C08091E2009091B3
:10094000E300892B09F0B2C08091C5009091C600E8
:10095000892B09F48BC02091BA003091BB004091E3
:10096000BC005091BD00A0E1BEE0B3D74B015C01DB
:100970002091D4003091D5004091D6005091D700FD
:10098000ACE3B0E0A6D7DC01CB01880D991DAA1D10
:10099000BB1D8090DE009090DF00A090E000B09042
:1009A000E100880E991EAA1EBB1E80927C009092C8
:1009B0007D00A0927E00B0927F002091EB003091EC
:1009C000EC004091ED005091EE00A0E1BEE081D737
:1009D0002B013C012091C9003091CA004091CB000D
:1009E0005091CC00ACE3B0E074D7460E571E681EA1
:1009F000791E8091A4009091A500A091A600B091CD
:100A0000A700480E591E6A1E7B1E4092BF005092DE
:100A1000C0006092C1007092C200481859086A086C
:100A20007B0814141504160417044CF44092CD00EE
:100A30005092CE006092CF007092D0000FC090E82C
:100A4000490E91E5591E91E0691E711C4092CD003E
:100A50005092CE006092CF007092D0001092A00011
:100A60001092A1001092A2001092A3001092C60052
:100A70001092C5004091CD005091CE006091CF0002
:100A80007091D0008091A0009091A100A091A2004F
:100A9000B091A30084179507A607B707C0F007DB3E
:100AA0008091E2009091E300892B89F0809194007D
:100AB00081110DC083993EC02AEA36EE86E991E0A5
:100AC0002150304080409040D9F70000F0DA80910A
:100AD0009E0090919F00892B69F180919400813054
:100AE00049F5839927C01092F1001092F0001092FE
:100AF0009F0010929E001092E3001092E20010926C
:100B0000B3001092B20081E090E09093C600809311
:100B1000C5001092CD001092CE001092CF0010921E
:100B2000D0001092A0001092A1001092A20010928A
:100B3000A300FBDA829915C080919D00813071F489
:100B400081E090E090938100809380001092B30048
:100B50001092B2001092D2001092D10010929D001B
:100B600002C0C0939D008091DC009091DD00892B34
:100B7000B9F58091990090919A00892B89F180991B
:100B800011C0869B0FC0979A9198C2988091AF0030
:100B9000813029F48091FC008F5F8093FC001092DB
:100BA000AF0038C0809B11C086990FC0919A97986A
:100BB000C2988091AF00811105C0809102018F5FC2
:100BC00080930201C093AF0025C091989798C29A74
:100BD000D093AF00D4DA1092F3001092F20041C02B
:100BE0008091820090918300892B49F48091F200DA
:100BF0009091F300892B11F0C29801C0C29A91988C
:100C000097988091F2009091F300892B51F183E045
:100C10008093AF008091FE009091FF00883C910589
:100C200001F58091F2009091F300892BD1F01092A0
:100C3000FF001092FE00809102018B3020F4809121
:100C4000FC008B3050F09198AA98C29A98DA1092D2
:100C5000F3001092F200D093AF00109202011092B4
:100C6000FC008091FE009091FF0001969093FF00A0
:100C70008093FE008091F2009091F300892B09F49B
:100C80003DDCF0D2811168CD80916D0080FFD1C232
:100C900081FFC9C26AE082E690E01FD380916D00B7
:100CA00082FF02C00000C0C280916200823409F459
:100CB00022C168F5893209F4C4C0A0F4833209F472
:100CC000FDC038F4813209F403C1823209F4F8C05E
:100CD000A5C2853209F4E3C008F4EEC0873209F4F6
:100CE000C7C09CC2853309F44CC048F4833309F46F
:100CF00058C008F0F9C0813309F49FC08FC2873310
:100D000009F46AC090F1813409F48FC087C2833539
:100D100009F40DC1A0F4863409F4FEC030F4843423
:100D200009F4ECC008F4E8C0EBC0893409F4F8C059
:100D3000823509F4F3C0873409F070C280C0813D68
:100D400009F455C148F4853509F443C108F4F6C0E7
:100D5000803D09F443C162C2833D09F416C208F420
:100D6000ADC1843D09F456C259C28091DC00909116
:100D7000DD00892B19F01093630050C2F0926300DC
:100D80004DC28091990090919A00892B19F4F092AC
:100D9000630002C0109363008091F70080936400A9
:100DA0003DC28091B2009091B300892B21F0109345
:100DB000630093980CC08091D1009091D200892B50
:100DC00021F000936300939802C0F09263001092A8
:100DD000D2001092D10022C280916300813049F08C
:100DE00018F0823059F00FC01092F7001092630093
:100DF0000EC0C093F7001093630009C0D093F700B2
:100E00000093630004C0D093F700009363006091E7
:100E1000F70082E190E07BD58091990090919A0053
:100E2000892B09F4FBC164D9F9C160916300609317
:100E30009C0080E190E06BD53AD977D9EFC1A6D973
:100E4000EDC156D9C093D300612F81E190E05FD509
:100E50008091990090919A00892B19F0C093980085
:100E600002C0F09298008091980080936300D6C1F0
:100E700086D91092D30060E081E190E048D580915E
:100E8000990090919A00892B19F4C093980002C0A0
:100E9000F09298008091980080936300BFC1809188
:100EA000DC009091DD00892B11F480D9B7C1E2E616
:100EB000F0E011821282B2C18CD9B0C1A0D9AEC10A
:100EC000E2E6F0E00183E2828091E4008383A6C140
:100ED0008091820090918300892B19F01093670014
:100EE0009DC1F09267009AC1109283001092820017
:100EF0001093630093C1DBD8E6D890C1E9D88EC1C6
:100F00008091DC009091DD00892B19F4109363002F
:100F100085C11092630082C1949A80C194987EC169
:100F200081E090E09093E3008093E20077C181E05C
:100F300090E09093AB008093AA0070C1E2E6F0E0ED
:100F4000818190E0A0E0B0E08093EB009093EC0012
:100F5000A093ED00B093EE00828190E0A0E0B0E0BD
:100F60008093C9009093CA00A093CB00B093CC00AB
:100F7000838190E0A0E0B0E08093A4009093A5006E
:100F8000A093A600B093A700848190E0A0E0B0E019
:100F90008093BA009093BB00A093BC00B093BD00B7
:100FA000858190E0A0E0B0E08093D4009093D500DC
:100FB000A093D600B093D700868190E0A0E0B0E087
:100FC0008093DE009093DF00A093E000B093E100F7
:100FD00025C11092AB001092AA0020C190918E0002
:100FE00080918F00E2E6F0E09183828317C1109236
:100FF000B1001092B00064E670E0812F30D8909379
:10100000FB008093FA00BC0180E090E027D320E051
:1010100030E040E85AE3D8D320E030E84FE455E42C
:10102000D3D32091E7003091E8004091E90050913E
:10103000EA0013D2E7D270938D0060938C0080E0B9
:1010400090E00CD34B015C0160918E0070918F0099
:10105000809190009091910003D320E030E040E037
:101060005FE3B2D32B013C0120E030E048E452E4DE
:10107000F4D19B01AC01C501B40153D218162CF078
:101080001092B6001092B5000FC0A3019201C501E5
:10109000B401E2D124EA30E74DE35EE346D2B2D2B6
:1010A0007093B1006093B000E2E6F0E0308290917E
:1010B000B0008091B10091838283B0C064E670E09B
:1010C00087E0CDD79093FB008093FA00BC0180E0CD
:1010D00090E0C4D220E030E040E85AE375D320E04D
:1010E00030E84FE455E470D32091E7003091E800F8
:1010F0004091E9005091EA00B0D184D270938D0004
:1011000060938C0080E090E0A9D24B015C0160917B
:101110008E0070918F008091900090919100A0D2EC
:1011200020E030E040E05FE34FD32B013C019B0126
:10113000AC01C501B401F5D1181634F48091DC007E
:101140009091DD00892B29F41092B6001092B50021
:101150000FC0A3019201C501B4017ED124EA30E79A
:101160004DE35EE3E2D14ED27093B6006093B500DA
:10117000E2E6F0E0D0829091B5008091B6009183D4
:1011800082838091AF00838349C08091AF00811139
:1011900001C0F5D781E090E0909393008093920096
:1011A000C19A2FEF31EE84E0215030408040E1F7CA
:1011B00000C0000064E070E086E051D79093FB002F
:1011C0008093FA00BC0180E090E048D220E030E05B
:1011D00040E85AE3F9D220E030E84FE455E4F4D295
:1011E00025E535E545ED5FE3EFD20CD26093840051
:1011F00070938500E2E6F0E0C08261837283C1985B
:101200008091D300813051F48091AF00811106C0EC
:101210006FD704C08091AF00809363006AE082E6DC
:1012200090E02AD001C000001DD0811195CA47D09E
:1012300093CA1BD044D090CA8091F0009091F100E5
:10124000892B09F073CB49CC8091F0009091F1008B
:10125000892B09F06BCB6ECC82B984E086BF1092EB
:101260006E00089580916E00089580916E00811146
:10127000FCCF8091600008959C0190916E009111C7
:10128000FCCF60936F00662379F0F901A0E7B0E02E
:10129000615070E06F5F7F4FC901860F971F2191EA
:1012A0002D93E817F907D9F710926D0088EF809316
:1012B000600085EC86BF81E080936E000895809188
:1012C0006E008111FCCF10926D0088EF809360005A
:1012D00085EC86BF10926E000895AC0190916E006F
:1012E0009111FCCF80916D0080FF16C0662379F0CC
:1012F000A0E7B0E0FA016150262F30E02F5F3F4FAA
:10130000240F351F9D919193E217F307D9F7809130
:101310006D008D7F80936D0080916D0081700895C8
:101320001F920F920FB60F9211248F939F93EF93FA
:10133000FF9381B1803909F45EC090F4803709F4DD
:1013400048C038F4882309F471C0803609F446C0D7
:1013500073C0803809F44FC0883809F467C06CC086
:10136000883A81F038F4883909F460C0803A09F489
:1013700058C062C0803CC9F0883C09F457C0883B23
:1013800019F05AC010926C00E0916C0081E08E0F51
:1013900080936C00F0E0E059FF4F808183B985ECC9
:1013A00086BF81E080936E004EC090916C0080916A
:1013B0006F00981306C080916D00816080936D006E
:1013C00003C081B18093600085EC86BF10926E00EF
:1013D0003AC080916D00846080936D0080916D00B3
:1013E000826080936D0010926C0085EC86BF81E076
:1013F00080936E0028C0E0916C0081E08E0F809396
:101400006C0083B1F0E0E059FF4F808380916D0064
:10141000816080936D0085EC86BF81E080936E00D3
:1014200012C085EC86BF10926E000DC081B1809312
:10143000600080E986BF07C081B18093600085ECC1
:1014400086BF10926E00FF91EF919F918F910F9048
:101450000FBE0F901F9018955058BB27AA270ED08B
:1014600075C166D130F06BD120F031F49F3F11F49B
:101470001EF45BC10EF4E095E7FB51C1E92F77D173
:1014800080F3BA17620773078407950718F071F4A1
:101490009EF58FC10EF4E0950B2EBA2FA02D0B01F7
:1014A000B90190010C01CA01A0011124FF27591BA9
:1014B00099F0593F50F4503E68F11A16F040A22FAF
:1014C000232F342F4427585FF3CF46953795279520
:1014D000A795F0405395C9F77EF41F16BA0B620B1F
:1014E000730B840BBAF09150A1F0FF0FBB1F661F66
:1014F000771F881FC2F70EC0BA0F621F731F841FA9
:1015000048F4879577956795B795F7959E3F08F0CE
:10151000B3CF9395880F08F09927EE0F979587958D
:101520000895D9D008F481E008950CD00FC107D1F7
:1015300040F0FED030F021F45F3F19F0F0C05111BF
:1015400039C1F3C014D198F39923C9F35523B1F3EA
:10155000951B550BBB27AA2762177307840738F022
:101560009F5F5F4F220F331F441FAA1FA9F333D081
:101570000E2E3AF0E0E830D091505040E695001C35
:10158000CAF729D0FE2F27D0660F771F881FBB1FF1
:10159000261737074807AB07B0E809F0BB0B802DCB
:1015A000BF01FF2793585F4F2AF09E3F510568F017
:1015B000B6C000C15F3FECF3983EDCF386957795AB
:1015C0006795B795F7959F5FC9F7880F911D969519
:1015D000879597F90895E1E0660F771F881FBB1F75
:1015E000621773078407BA0720F0621B730B840B22
:1015F000BA0BEE1F88F7E095089504D06894B111F6
:10160000D9C00895BCD088F09F5790F0B92F992782
:10161000B751A0F0D1F0660F771F881F991F1AF0FD
:10162000BA95C9F712C0B13081F0C3D0B1E00895C6
:10163000C0C0672F782F8827B85F39F0B93FCCF347
:10164000869577956795B395D9F73EF490958095F3
:10165000709561957F4F8F4F9F4F0895E89409C013
:1016600097FB3EF490958095709561957F4F8F4FD5
:101670009F4F9923A9F0F92F96E9BB279395F695EB
:10168000879577956795B795F111F8CFFAF4BB0F69
:1016900011F460FF1BC06F5F7F4F8F4F9F4F16C0CD
:1016A000882311F096E911C0772321F09EE8872F57
:1016B000762F05C0662371F096E8862F70E060E013
:1016C0002AF09A95660F771F881FDAF7880F96958C
:1016D000879597F90895990F0008550FAA0BE0E830
:1016E000FEEF16161706E807F907C0F012161306E4
:1016F000E407F50798F0621B730B840B950B39F424
:101700000A2661F0232B242B252B21F408950A2689
:1017100009F4A140A6958FEF811D811D089597F9C9
:101720009F6780E870E060E008959FEF80EC089587
:1017300000240A94161617061806090608950024B0
:101740000A9412161306140605060895092E03942A
:10175000000C11F4882352F0BB0F40F4BF2B11F49E
:1017600060FF04C06F5F7F4F8F4F9F4F089557FDFD
:101770009058440F551F59F05F3F71F04795880FFF
:1017800097FB991F61F09F3F79F087950895121696
:1017900013061406551FF2CF4695F1DF08C0161642
:1017A00017061806991FF1CF8695710561050894F3
:1017B0000895E894BB2766277727CB0197F908950A
:1017C0008ADF08F48FEF08950BD0C0CFB1DF28F087
:1017D000B6DF18F0952309F0A2CFA7CF1124EACFE6
:1017E000C6DFA0F3959FD1F3950F50E0551F629F80
:1017F000F001729FBB27F00DB11D639FAA27F00D6A
:10180000B11DAA1F649F6627B00DA11D661F829F90
:101810002227B00DA11D621F739FB00DA11D621F75
:10182000839FA00D611D221F749F3327A00D611D92
:10183000231F849F600D211D822F762F6A2F112474
:101840009F5750408AF0E1F088234AF0EE0FFF1FC7
:10185000BB1F661F771F881F91505040A9F79E3FFE
:10186000510570F05CCFA6CF5F3FECF3983EDCF300
:10187000869577956795B795F795E7959F5FC1F73B
:10188000FE2B880F911D9695879597F90895A1E2F3
:101890001A2EAA1BBB1BFD010DC0AA1FBB1FEE1FEA
:1018A000FF1FA217B307E407F50720F0A21BB30B35
:1018B000E40BF50B661F771F881F991F1A9469F7B1
:1018C00060957095809590959B01AC01BD01CF010D
:1018D000089509D0A59F900DB49F900DA49F800DF1
:1018E000911D11240895A29FB001B39FC001A39F31
:1018F00001D0B29F700D811D1124911D0895E199B1
:10190000FECF9FBB8EBBE09A99278DB30895262FFB
:10191000E199FECF9FBB8EBBE09A01970DB20216F4
:1019200031F02DBB0FB6F894E29AE19A0FBE0895FC
:04193000F894FFCF59
:02193400F800B9
:00000001FF
