:10000000C6C0E0C0DFC0DEC0DDC0DCC03EC1DAC0BB
:10001000D9C0D8C0D7C0D6C0D5C0D4C0D3C0D2C034
:10002000D1C059CACFC07AC86CC869C866C857C899
:1000300054C83AC8B7C91EC8B5C9B4C9B3C9B2C94A
:10004000B1C9B0C9AFC912C8ADC9C1C777C8ACC7BB
:100050009DC7DAC7A7C9A6C9A5C9A4C9A3C9A2C90A
:10006000A1C9A0C99FC9FAC771C871C872C873C8AD
:1000700099C9FEC797C97CC895C994C993C992C943
:1000800091C990C98FC98EC98DC977C87BC8A4C8CA
:1000900089C988C987C986C985C984C983C982C9EC
:1000A00081C980C97FC97EC97DC97CC97BC97AC91C
:1000B00079C978C977C976C975C974C973C972C94C
:1000C00071C970C96FC96EC96DC96CC96BC96AC97C
:1000D00069C968C967C966C965C964C963C962C9AC
:1000E00061C960C95FC95EC95DC95CC95BC95AC9DC
:1000F00059C958C957C956C955C954C953C952C90C
:1001000051C950C94FC94EC94DC94CC94BC94AC93B
:1001100049C948C947C946C945C944C943C942C96B
:1001200041C940C93FC93EC93DC93CC93BC93AC99B
:1001300039C938C937C936C935C934C933C932C9CB
:1001400031C930C92FC92EC92DC92CC92BC92AC9FB
:1001500029C928C927C926C925C924C923C922C92B
:1001600021C920C91FC91EC91DC91CC91BC91AC95B
:1001700019C918C917C916C915C914C913C912C98B
:1001800011C910C92EC836C878C8BAC807C9112401
:100190001FBECFE5D4E0DEBFCDBF10E0A0E6B0E0EB
:1001A000E6E3FBE102C005900D92A236B107D9F754
:1001B00021E0A2E6B0E001C01D92A930B207E1F74C
:1001C000BCD2B7CC1DCFCF93C82FFDD813D9883060
:1001D00009F013D980ED00D90DD9883109F00DD976
:1001E0008C2FFAD807D9883209F007D9ECD802D970
:1001F000803109F002D981EDEFD8FCD8803409F0C4
:10020000FCD8F1D8C82FF6D8883509F0F6D8E1D84F
:100210008C2FCF91089580E0D6DF8F77089581E00D
:10022000D2DF089582E0CFDF8F730895982F9295E3
:100230009F70990F292F220F220F920F8F70890F15
:10024000089586B7806286BF28E088E190E00FB607
:10025000F894A895809341000FBE20934100FFCFF2
:100260008B98939810928D0008958B9A81E08093DB
:100270008D0008951FBC8DE08EBD88E09DE39BBD81
:100280008ABD89B7806189BF08951F920F920FB60A
:100290000F9211248F939F93AF93BF9380919A00F5
:1002A00090919B00A0919C00B0919D000196A11D92
:1002B000B11D80939A0090939B00A0939C00B093F3
:1002C0009D00BF91AF919F918F910F900FBE0F90A6
:1002D0001F901895262F97B18F71907E982B97B904
:1002E000662381F0362F60E070E0CB01369A3699B4
:1002F000FECF44B155B1640F751F811D911D315062
:10030000A9F703C060E070E0CB0130E040E050E0CE
:10031000A3DBC901089581E090E09093930080935E
:10032000920010927E0010927D008091F100813049
:1003300031F040F0823049F4AB9AA8980895AB9818
:10034000A89A0895AB98A8980895AB9AA89808958C
:10035000979880918D0081110BC0839909C02FE37C
:100360008DE093E0215080409040E1F700C0000014
:10037000959AC09893981092D5001092D4008091CD
:10038000CD00813009F4C7DF0895AB9AA89A109286
:100390009300109292000895979AF7DF80918D0054
:1003A000813009F4939A9598C09A81E090E09093F7
:1003B000D5008093D4000895CF93F89487E087BB4D
:1003C0008DE084BB8AEB81BB82E190E099DB809376
:1003D000F10081E190E094DBC82F8093CD0080E1B3
:1003E00090E08EDB809396008FE090E089DB809335
:1003F000DC00C13011F48FDF01C0C7DF82B381643C
:1004000082BBC09893989798C198949A80919600CF
:10041000880F8160F5D780E487B986B1876886B98F
:100420003398359860E18EE055DF9093F500809326
:10043000F40081E090E0909382008093810010921C
:10044000AB001092AA001092CC001092CB00109238
:10045000D5001092D40010927E0010927D0021E011
:100460002093970010927C0010927B001092E00085
:100470001092DF001092F3001092F200109295009B
:100480001092940020938D001092A9001092860083
:10049000109285001092C0001092BF001092EE00E2
:1004A00010928400109283001092F9001092F800CC
:1004B0001092FC001092F6001092EB001092EA00ED
:1004C00010929900109298001092DB001092DA00BE
:1004D0009093ED008093EC0010928C0010928B00B2
:1004E0001092A5001092A4009093BE008093BD00CE
:1004F0001092E5001092E6001092E7001092E800DA
:100500001092C3001092C4001092C5001092C60051
:1005100010929E0010929F001092A0001092A100D5
:1005200010929A0010929B0010929C0010929D00D5
:100530001092C7001092C8001092C9001092CA0011
:100540001092730010927400109275001092760051
:100550001092B9001092BA001092BB001092BC0029
:100560008BE090E030E222B3232722BB2FE342E46A
:100570005FE0215040405040E1F700C0000001978B
:10058000009789F77894CF91089568E08EE0A2DE15
:100590008093F4009093F500809300019093010103
:1005A000089568E081E096DE8093F4009093F50072
:1005B00080930001909301019091870080918800C1
:1005C0009093020180930301089568E087E082DE42
:1005D0008093F4009093F5008093000190930101C3
:1005E0008091A900809302019091870080918800FA
:1005F000909303018093040108958091A9008111D3
:1006000001C0C3DE81E090E090938C0080938B006A
:10061000C19A64E086E05EDE8093F4009093F5007A
:1006200080930001909301018091A90080930201C1
:10063000909187008091880090930301809304013A
:10064000C198879909C08091CD00813029F48091AB
:10065000A900811101C05FDE0895CF92DF92EF9271
:10066000FF92C19A61E086E035DE9093F5008093B9
:10067000F400C1986091F4007091F50080E090E082
:10068000D2D820E030E040E85AE383D96B017C0106
:1006900060918700709188008091890090918A0014
:1006A000C4D820E030E04AE754E429D89B01AC01EB
:1006B000C701B6016ED920E030E04AE754E469D9B9
:1006C00086D87093FE006093FD0080E090E0ABD888
:1006D0006B017C0120E030E244E655E40CD888232D
:1006E000CCF420E030E0A901C701B6014ED91816BC
:1006F0008CF481E090E090937E0080937D0020E078
:1007000030ED4FE455E4C701B601F5D7882334F442
:10071000949804C010927E0010927D00FF90EF909C
:10072000DF90CF90089598B384E0892788BB08951F
:1007300092B380E2892782BB08953EDE9AD60F2EBF
:10074000F4E1CF2EFBEADF2EF3E1EF2EF12CF02DBA
:10075000C1E0D0E00F2EF3E02F2EF02D689433246B
:1007600031F800E011E0109291001092B80061E0C1
:100770008EE0B0DD9093F5008093F4009C0140E0A2
:1007800050E0C701B6018AD92093870030938800D2
:100790004093890050938A00CA01B90146D820E0ED
:1007A00030EC4FE855E4A7D788230CF054C0809173
:1007B000810090918200892B09F454C0EDDD87EA15
:1007C00091E60197F1F700C0000061E087E082DD6B
:1007D0009093C2008093C100BC0180E090E023D8D8
:1007E00020E030E040E85AE3D4D84B015C0160914E
:1007F0008700709188008091890090918A0015D8B7
:1008000020E030E04AE754E47AD79B01AC01C5010F
:10081000B401BFD826EA3BE944E45BE307D720E014
:1008200030E040E251E46BD72DEC3CEC4CE45DE36E
:1008300066D720E030E04AE754E4ABD86093770015
:10084000709378008093790090937A0010928200E0
:100850001092810007C08091810090918200892BC5
:1008600009F08EC080919400909195008C32914057
:1008700009F07CC061E087E02DDD9093A7008093B4
:10088000A600BC0180E090E0CED720E030E040E858
:100890005AE37FD84B015C0160918700709188001A
:1008A0008091890090918A00C0D720E030E04AE72B
:1008B00054E425D79B01AC01C501B4016AD826EAEE
:1008C0003BE944E45BE3B2D620E030E040E251E4AF
:1008D00016D72DEC3CEC4CE45DE311D720E030E082
:1008E0004AE754E456D84B015C016093AD00709325
:1008F000AE008093AF009093B00020E030E040E481
:100900005FE3609177007091780080917900909119
:100910007A003FD89B01AC01C501B401ECD6181692
:1009200034F480918D0081111CC083991AC06091AC
:10093000EE0070E080E090E078D720E030E040E228
:1009400051E4D9D6811107C003DDD0938200C09352
:1009500081001092EE008091EE008F5F8093EE0098
:1009600001C07BDE1092950010929400809194005B
:10097000909195000196909395008093940028C0E3
:1009800080918500909186008C329140C1F48091D5
:10099000980090919900892B71F480918D008111BC
:1009A0000AC0839908C0D093EB00C093EA00D093AB
:1009B0009900C09398001092860010928500809153
:1009C0008500909186000196909386008093850023
:1009D0008091EA009091EB00892B09F41EC180916F
:1009E000BF009091C0008838934109F00CC18091FC
:1009F000A4009091A500892B09F4EFC08091DA0042
:100A00009091DB00892B09F0EEC08091BD009091A0
:100A1000BE00892B09F4C7C0F894CED487EA91E6CA
:100A20000197F1F700C00000FDDB00DC90E0A0E0E2
:100A3000B0E08093B4009093B500A093B600B0935B
:100A4000B700E7EAF1E63197F1F700C00000E7DB15
:100A5000EDDB90E0A0E0B0E08093CE009093CF007B
:100A6000A093D000B093D10087EA91E60197F1F707
:100A700000C00000D0DBDADB90E0A0E0B0E08093C3
:100A8000D6009093D700A093D800B093D900E7EA9E
:100A9000F1E63197F1F700C000007894809196005C
:100AA000880F8160ADD4E5D42091B4003091B500B9
:100AB0004091B6005091B700A0E1BEE017D84B01BD
:100AC0005C012091CE003091CF004091D000509138
:100AD000D100ACE3B0E00AD8860E971EA81EB91E5E
:100AE0008091D6009091D700A091D800B091D90004
:100AF000880E991EAA1EBB1E8092730090927400ED
:100B0000A0927500B09276002091E5003091E60049
:100B10004091E7005091E800A0E1BEE0E7D72B014B
:100B20003C012091C3003091C4004091C500509118
:100B3000C600ACE3B0E0DAD7460E571E681E791E39
:100B400080919E0090919F00A091A000B091A10083
:100B5000840D951DA61DB71D8093B9009093BA0012
:100B6000A093BB00B093BC0088199909AA09BB09DE
:100B7000181619061A061B064CF48093C7009093AA
:100B8000C800A093C900B093CA000CC080589E4A08
:100B9000AE4FBF4F8093C7009093C800A093C90089
:100BA000B093CA0067DB1092BE001092BD00409166
:100BB000C7005091C8006091C9007091CA0080912F
:100BC0009A0090919B00A0919C00B0919D00841789
:100BD0009507A607B70790F034DB8091DA00909173
:100BE000DB00892B59F0FAE220E53EEF80E0F1507E
:100BF000204030408040D9F7000023DB99DD10927F
:100C0000C0001092BF008091BF009091C00001967B
:100C10009093C0008093BF0004C01092C000109257
:100C2000BF008091980090919900892B59F1809193
:100C30008D00813039F5839925C01092EB00109218
:100C4000EA0010929900109298001092DB00109226
:100C5000DA001092AB001092AA00D093BE00C093AD
:100C6000BD001092C7001092C8001092C9001092E7
:100C7000CA0010929A0010929B0010929C00109251
:100C80009D0066DB80917D0090917E00892BB1F004
:100C90008091DF009091E000883E934029F443DD8D
:100CA0001092E0001092DF008091DF009091E00050
:100CB00001969093E0008093DF0004C01092E00062
:100CC0001092DF0082990BC080919700813021F44F
:100CD000D0937C00C0937B001092970003C081E00A
:100CE0008093970080917B0090917C00892B99F1F3
:100CF0008091F2009091F300883B9B40A1F482998F
:100D000021C0D093AB00C093AA001092CC001092E7
:100D1000CB001092F3001092F20010927C0010921F
:100D20007B00939A0FC0829B0DC01092AB00109273
:100D3000AA00D093CC00C093CB0010927C001092FC
:100D40007B00939A8091F2009091F300019690932A
:100D5000F3008093F2008091D4009091D500892B0C
:100D600009F041C08091920090919300892BD9F1B4
:100D7000809911C0869B0FC0AA9A9198C2988091C1
:100D8000A900813029F48091F6008F5F8093F600EE
:100D90001092A9003FC0809B12C0869910C0919A02
:100DA000AA98C2988091A900811105C08091FC0089
:100DB0008F5F8093FC0081E08093A9002BC0919805
:100DC000AA9880918B0090918C00892B09F4C29A8B
:100DD00010928C0010928B003092A9001092ED00BE
:100DE0001092EC0017C080917D0090917E00892BBD
:100DF00039F48091EC009091ED00892B09F0C298B4
:100E00009198AA988091EC009091ED00892B11F0B7
:100E10002092A9008091F8009091F900803D9740C0
:100E2000D1F41092F9001092F8008091FC008B3000
:100E300020F48091F6008B3050F09198AA98C29AD5
:100E4000A4DA1092ED001092EC003092A9001092FA
:100E5000FC001092F6008091F8009091F900019644
:100E60009093F9008093F800809183009091840022
:100E70008838934109F062C0109284001092830078
:100E80008091EC009091ED00892B09F057C0C19A38
:100E900061E086E01FDA9093F5008093F400C1983A
:100EA0006091F4007091F50080E090E0BCD420E007
:100EB00030E040E85AE36DD54B015C01609187005A
:100EC000709188008091890090918A00AED420E0D2
:100ED00030E04AE754E413D49B01AC01C501B401EE
:100EE00058D520E030E04AE754E453D56093E10060
:100EF0007093E2008093E3009093E40020E030E8F8
:100F00004BE355E442D51816CCF4D093ED00C093D2
:100F1000EC001092FC001092F600809192009091EB
:100F20009300892B59F48091D4009091D500892B9E
:100F300029F48091CD00813009F4EDD980918300AE
:100F4000909184000196909384008093830060D2F6
:100F5000811109CC8091630080FF2CC281FF27C2E0
:100F60006AE08FEF90E097D28091630082FF02C029
:100F70000000F9CB8091FF0090E0FC01B197E43BC9
:100F8000F10508F00FC2ED5EFF4F09948091D40087
:100F90009091D500892B21F081E0F801808302C275
:100FA0002FEFF8012083FEC1809192009091930071
:100FB000892B21F42FEFF801208303C081E0F80191
:100FC00080838091F100E1E0F1E08083EBC18091CA
:100FD000AA009091AB00892B29F081E0F801808371
:100FE00093980DC08091CB009091CC00892B21F07B
:100FF000F8013082939803C02FEFF80120831092FC
:10100000CC001092CB00CEC1F8018081813049F034
:1010100018F0823061F010C01092F100F8011082D7
:101020000FC081E08093F100F801808309C0309205
:10103000F100F801308204C03092F100F8013082F2
:101040006091F10082E190E063D5809192009091EF
:101050009300892B09F4A6C15ED9A4C16091000157
:101060006093960080E190E053D5EBD871D99AC196
:1010700093D998C150D981E08093CD0061E081E19E
:1010800090E046D58091920090919300892B21F0B9
:1010900081E08093910003C0FFEFF0939100809175
:1010A0009100F80180837EC170D91092CD0060E07C
:1010B00081E190E02DD58091920090919300892B51
:1010C00021F481E08093910003C0FFEFF093910041
:1010D00080919100F801808365C157DA63C18091E6
:1010E000D4009091D500892B11F45BDA5BC1F80133
:1010F0001082E1E0F1E0108255C167DA53C17DDA78
:1011000051C181E0F801808320E2E1E0F1E0208339
:101110008091DC00E2E0F1E0808344C180917D00B9
:1011200090917E00892B29F081E0E4E0F1E080835A
:1011300039C12FEFE4E0F1E0208334C110927E004A
:1011400010927D0081E0F80180832CC17AD888D884
:1011500029C18BD827C18091D4009091D500892BCB
:1011600021F481E0F80180831DC1F80110821AC1C9
:10117000D093DB00C093DA0015C1D093A500C093D3
:10118000A40010C1F801808190E0A0E0B0E080935D
:10119000E5009093E600A093E700B093E800E1E05B
:1011A000F1E0808190E0A0E0B0E08093C3009093F4
:1011B000C400A093C500B093C600E2E0F1E08081D6
:1011C00090E0A0E0B0E080939E0090939F00A093F9
:1011D000A000B093A100E6C01092A5001092A40058
:1011E000E1C090918700809188009093FF00F80102
:1011F0008083D8C068E081E06DD89093F50080933B
:10120000F400BC0180E090E00ED320E030E040E844
:101210005AE3BFD34B015C01609187007091880055
:101220008091890090918A0000D320E030E04AE765
:1012300054E465D29B01AC01C501B401AAD326EAEE
:101240003BE944E45BE3F2D120E030E040E251E4EA
:1012500056D22DEC3CEC4CE45DE351D220E030E082
:101260004AE754E496D3B3D26093A2007093A300EC
:101270006093FF00F801708395C068E087E02AD88A
:101280009093F5008093F400BC0180E090E0CBD215
:1012900020E030E040E85AE37CD34B015C016091F0
:1012A0008700709188008091890090918A00BDD25A
:1012B00020E030E04AE754E422D29B01AC01C501B2
:1012C000B40167D326EA3BE944E45BE3AFD120E015
:1012D00030E040E251E413D22DEC3CEC4CE45DE311
:1012E0000ED220E030E04AE754E453D370D260934A
:1012F000EF007093F0006093FF00F801708352C01C
:101300008091A900811101C040D8D0938C00C09376
:101310008B00C19A64E086E0DDD79093F50080935E
:10132000F400BC0180E090E07ED220E030E040E8B4
:101330005AE32FD34B015C016091870070918800C4
:101340008091890090918A0070D220E030E04AE7D5
:1013500054E4D5D19B01AC01C501B4011AD320E0FE
:1013600030E0A90164D120E030E04AE754E411D331
:101370002ED260937F00709380006093FF00F8018D
:101380007083C19887990EC08091CD00813051F44F
:101390008091A900811106C0BED704C08091A90028
:1013A0008093FF006AE08FEF90E040D0DCC935D039
:1013B00060D0D9C90000D7C911B888E480B986B710
:1013C000846086BF089584EA86BF06B607FEFDCF17
:1013D000089584E986BF089583B984E886BF06B678
:1013E00007FEFDCF089584E886BF06B607FEFDCF51
:1013F00083B1089581B1887F089584E986BF0895F7
:1014000082B984E086BF109265001092640008954E
:10141000809164009091650008958091640090919E
:1014200065008111FACF80916000089520916400D9
:10143000309165002111FACF60936600662359F060
:10144000282FA7E6B0E0E82FF92F81918D938E2FFA
:10145000821B8617D0F31092630088EF80936000A0
:1014600085EC86BF81E090E09093650080936400F6
:10147000089580916400909165008111FACF1092D7
:10148000630088EF8093600085EC86BF1092650052
:10149000109264000895209164003091650021113C
:1014A000FACF2091630020FF12C0662359F027E68F
:1014B00030E0A82FB92FF90181918D938E2F821BD7
:1014C0008617D0F3809163008D7F809363008091B5
:1014D0006300817008951F920F920FB60F9211242E
:1014E0008F939F93EF93FF9381B1803909F466C086
:1014F00090F4803709F44DC038F4882309F47EC095
:10150000803609F44BC080C0803809F457C0883851
:1015100009F474C079C0883A81F038F4883909F444
:101520006DC0803A09F463C06FC0803CE1F0883C34
:1015300009F464C0883B19F067C010926200E09122
:10154000620081E08E0F80936200F0E0E959FF4F66
:10155000808183B985EC86BF81E090E0909365003F
:10156000809364005AC09091620080916600981345
:1015700006C08091630081608093630003C081B1E5
:101580008093600085EC86BF109265001092640025
:1015900044C0809163008460809363008091630005
:1015A0008260809363001092620085EC86BF81E0C8
:1015B00090E090936500809364002FC0E0916200FA
:1015C00081E08E0F8093620083B1F0E0E959FF4F14
:1015D00080838091630081608093630085EC86BF87
:1015E00081E090E0909365008093640016C085ECE4
:1015F00086BF10926500109264000FC081B1809385
:10160000600080E986BF09C081B18093600085ECED
:1016100086BF1092650010926400FF91EF919F9138
:101620008F910F900FBE0F901F9018955058BB27A9
:10163000AA270ED070C161D130F066D120F031F40C
:101640009F3F11F41EF456C10EF4E095E7FB4CC128
:10165000E92F72D180F3BA176207730784079507E1
:1016600018F071F49EF58AC10EF4E0950B2EBA2F96
:10167000A02D0B01B90190010C01CA01A001112498
:10168000FF27591B99F0593F50F4503E68F11A1644
:10169000F040A22F232F342F4427585FF3CF4695D5
:1016A00037952795A795F0405395C9F77EF41F16F7
:1016B000BA0B620B730B840BBAF09150A1F0FF0FC1
:1016C000BB1F661F771F881FC2F70EC0BA0F621FAD
:1016D000731F841F48F4879577956795B795F7959D
:1016E0009E3F08F0B3CF9395880F08F09927EE0F2F
:1016F000979587950895D4D008F481E008950CD08B
:101700000AC102D140F0F9D030F021F45F3F19F066
:10171000EBC0511134C1EEC00FD198F39923C9F336
:101720005523B1F3951B550BBB27AA2762177307E7
:10173000840738F09F5F5F4F220F331F441FAA1F9B
:10174000A9F333D00E2E3AF0E0E830D0915050405B
:10175000E695001CCAF729D0FE2F27D0660F771F09
:10176000881FBB1F261737074807AB07B0E809F0EB
:10177000BB0B802DBF01FF2793585F4F2AF09E3F80
:10178000510568F0B1C0FBC05F3FECF3983EDCF35D
:10179000869577956795B795F7959F5FC9F7880FF9
:1017A000911D9695879597F90895E1E0660F771F4B
:1017B000881FBB1F621773078407BA0720F0621BDC
:1017C000730B840BBA0BEE1F88F7E0950895BCD01D
:1017D00088F09F5790F0B92F9927B751A0F0D1F01A
:1017E000660F771F881F991F1AF0BA95C9F712C0A4
:1017F000B13081F0C3D0B1E00895C0C0672F782F19
:101800008827B85F39F0B93FCCF38695779567950F
:10181000B395D9F73EF490958095709561957F4F7B
:101820008F4F9F4F0895E89409C097FB3EF4909521
:101830008095709561957F4F8F4F9F4F9923A9F0A9
:10184000F92F96E9BB279395F69587957795679538
:10185000B795F111F8CFFAF4BB0F11F460FF1BC07C
:101860006F5F7F4F8F4F9F4F16C0882311F096E90F
:1018700011C0772321F09EE8872F762F05C06623BD
:1018800071F096E8862F70E060E02AF09A95660F76
:10189000771F881FDAF7880F9695879597F908952F
:1018A000990F0008550FAA0BE0E8FEEF1616170671
:1018B000E807F907C0F012161306E407F50798F0D9
:1018C000621B730B840B950B39F40A2661F0232BF2
:1018D000242B252B21F408950A2609F4A140A6956E
:1018E0008FEF811D811D089597F99F6780E870E053
:1018F00060E008959FEF80EC089500240A94161686
:10190000170618060906089500240A9412161306ED
:10191000140605060895092E0394000C11F488237B
:1019200052F0BB0F40F4BF2B11F460FF04C06F5F97
:101930007F4F8F4F9F4F089557FD9058440F551F6D
:1019400059F05F3F71F04795880F97FB991F61F041
:101950009F3F79F087950895121613061406551FB8
:10196000F2CF4695F1DF08C0161617061806991F24
:10197000F1CF86957105610508940895E894BB2719
:1019800066277727CB0197F908958ADF08F48FEF50
:1019900008950BD0C0CFB1DF28F0B6DF18F0952343
:1019A00009F0A2CFA7CF1124EACFC6DFA0F3959FFD
:1019B000D1F3950F50E0551F629FF001729FBB2736
:1019C000F00DB11D639FAA27F00DB11DAA1F649FE2
:1019D0006627B00DA11D661F829F2227B00DA11D95
:1019E000621F739FB00DA11D621F839FA00D611D1B
:1019F000221F749F3327A00D611D231F849F600D3C
:101A0000211D822F762F6A2F11249F5750408AF074
:101A1000E1F088234AF0EE0FFF1FBB1F661F771F00
:101A2000881F91505040A9F79E3F510570F05CCF40
:101A3000A6CF5F3FECF3983EDCF3869577956795EC
:101A4000B795F795E7959F5FC1F7FE2B880F911D1E
:101A50009695879597F90895A1E21A2EAA1BBB1BAC
:101A6000FD010DC0AA1FBB1FEE1FFF1FA217B3076A
:101A7000E407F50720F0A21BB30BE40BF50B661F80
:101A8000771F881F991F1A9469F760957095809544
:101A900090959B01AC01BD01CF010895052E97FBE8
:101AA00016F400940FD057FD05D0D6DF07FC02D006
:101AB00046F408C050954095309521953F4F4F4FC3
:101AC0005F4F089590958095709561957F4F8F4FEA
:101AD0009F4F0895A29FB001B39FC001A39F01D063
:101AE000B29F700D811D1124911D0895F3DFA59FF4
:101AF000900DB49F900DA49F800D911D1124089509
:101B0000E199FECF9FBB8EBBE09A99278DB30895D4
:101B1000262FE199FECF9FBB8EBBE09A01970DB2B5
:101B2000021631F02DBB0FB6F894E29AE19A0FBE7F
:061B30000895F894FFCFB8
:021B3600F800B5
:00000001FF
