:10000000C6C0E0C0DFC0DEC0DDC0DCC04AC2DAC0AE
:10001000D9C0D8C0D7C0D6C0D5C0D4C0D3C0D2C034
:10002000D1C0E1C9CFC0AFC7A2C79FC75AC959C97C
:1000300058C983C756C95BC754C953C952C951C9A6
:1000400050C94FC94EC94FC74CC9FFC6A9C7ECC656
:10005000DEC617C746C945C944C943C942C941C9D3
:1000600040C93FC93EC937C7A3C7A3C7A4C7B2C7C2
:10007000BEC73BC736C9BFC734C933C932C931C986
:1000800030C92FC92EC92DC9B4C7BCC7C2C70CC837
:1000900028C927C926C925C924C923C922C921C9F4
:1000A00020C91FC91EC91DC91CC91BC91AC919C924
:1000B00018C917C916C915C914C913C912C911C954
:1000C00010C90FC90EC90DC90CC90BC90AC909C984
:1000D00008C907C906C905C904C903C902C901C9B4
:1000E00000C9FFC8FEC8FDC8FCC8FBC8FAC8F9C8EB
:1000F000F8C8F7C8F6C8F5C8F4C8F3C8F2C8F1C81C
:10010000F0C8EFC8EEC8EDC8ECC8EBC8EAC8E9C84B
:10011000E8C8E7C8E6C8E5C8E4C8E3C8E2C8E1C87B
:10012000E0C8DFC8DEC8DDC8DCC8DBC8DAC8D9C8AB
:10013000D8C8D7C8D6C8D5C8D4C8D3C8D2C8D1C8DB
:10014000D0C8CFC8CEC8CDC8CCC8CBC8CAC8C9C80B
:10015000C8C8C7C8C6C8C5C8C4C8C3C8C2C8C1C83B
:10016000C0C8BFC8BEC8BDC8BCC8BBC8BAC8B9C86B
:10017000B8C8B7C8B6C8B5C8B4C8B3C8B2C8B1C89B
:10018000B0C8AFC896C79EC7F6C74DC8A6C8112449
:100190001FBECFE5D4E0DEBFCDBF10E0A0E6B0E0EB
:1001A000E8E2FAE102C005900D92A236B107D9F754
:1001B00020E0A2E6B0E001C01D92A63FB207E1F741
:1001C00062D330CC1DCF0F931F938B0197B18F71EA
:1001D000907E892B87B9862F662379F040E050E026
:1001E000BA01369A3699FECFE4B1F5B14E0F5F1FD2
:1001F000611D711D8150A9F703C040E050E0BA01B4
:1002000020E030E0CB01BA01A90198019EDBC901D1
:100210001F910F91089586B7806286BF98E088E1AC
:100220000FB6F894A89581BD0FBE91BDFFCF8B98F6
:1002300093981092950008958B9A81E08093950091
:1002400008951FBC8DE08EBD88E09DE39BBD8ABDF7
:1002500089B7806189BF089516B817B880E487B957
:1002600086B1876886B933983598109292001092BB
:10027000910008958EE090E0BCDB882319F0809314
:100280007A0008958BE080937A006BE08EE090E036
:10029000B8DB089581E090E09093980080939700F8
:1002A00010928200109281008091EB00813031F039
:1002B00040F0823049F4AB9AA8980895AB98A89A78
:1002C0000895AB98A8980895AB9AA898089580913E
:1002D000D100813051F4DEDF2FEF81EE94E0215028
:1002E00080409040E1F700C000008091E5009091CF
:1002F000E600892B51F097982FEF83ED90E3215082
:1003000080409040E1F700C00000959AC09880912D
:100310009500813009F493981092D9001092D8007A
:1003200081E090E0909386008093850097980895EF
:10033000AB9AA89A10929800109297000895979AF5
:10034000F7DF80919500813009F4939A9598C09ACF
:1003500081E090E09093D9008093D80010928600BD
:1003600010928500089581E090E09093940080932E
:100370009300C19A2FEF81EE94E02150804090408D
:10038000E1F700C0000064E070E086E01CDF8093CD
:10039000EE009093EF00E2E6F0E08183928380919B
:1003A000AB00838390918D0080918E009483858330
:1003B000C1980895CF92DF92EF92FF92C19A2FEFEA
:1003C00081EE94E0215080409040E1F700C00000B1
:1003D00064E070E086E0F7DE9093EF008093EE003B
:1003E000BC0180E090E098D920E030E040E85AE39A
:1003F00049DA6B017C0160918D0070918E008091D3
:100400008F00909190008AD920E030E04AE754E4D0
:10041000EFD89B01AC01C701B60134DA20E030E02F
:100420004AE754E42FDA4CD97093F5006093F40056
:1004300080E090E071D96B017C0120E030E844E578
:1004400055E4D2D88823CCF420E030E0A901C701DC
:10045000B60114DA18168CF481E090E090938200D3
:100460008093810020E030E048E455E4C701B60104
:10047000BBD8882334F4949804C010928200109260
:100480008100C198FF90EF90DF90CF90089598B3CE
:1004900084E0892788BB089592B380E2892782BBD4
:1004A00008951F920F920FB60F9211242F933F932E
:1004B0004F935F936F937F938F939F93AF93BF936C
:1004C000EF93FF938091E5009091E600892B01F175
:1004D0008091A7009091A800892BC9F08091DE003F
:1004E0009091DF00892B99F480919D0090919E005E
:1004F000A0919F00B091A0000196A11DB11D809315
:100500009D0090939E00A0939F00B093A000C4DF35
:100510008091810090918200892B09F0B8DF809151
:100520007F0090918000892B09F44EC08091EC00EF
:100530009091ED00029701F582993DC081E090E035
:100540009093AF008093AE001092D0001092CF0035
:100550001092ED001092EC001092800010927F003B
:100560008091D8009091D900892B29F58091950030
:10057000813009F5939A1FC0829B1DC01092AF0075
:100580001092AE0081E090E09093D0008093CF0075
:100590001092ED001092EC001092800010927F00FB
:1005A0008091D8009091D900892B29F480919500F1
:1005B000813009F4939A8091EC009091ED000196BE
:1005C0009093ED008093EC008091B0009091B10089
:1005D000892B09F461DFFF91EF91BF91AF919F915A
:1005E0008F917F916F915F914F913F912F910F90DC
:1005F0000FBE0F901F901895CF92DF92EF92FF924F
:1006000097DEC19A2FEF81EE94E021508040904018
:10061000E1F700C0000068E070E086E0D4DD909370
:10062000EF008093EE00BC0180E090E075D820E000
:1006300030E040E85AE326D96B017C0160918D00DF
:1006400070918E0080918F009091900067D820E08B
:1006500030E04AE754E4CCD79B01AC01C701B601B6
:1006600011D920E030E04AE754E40CD920E030E032
:1006700048E455E403D98823D4F081E090E09093D6
:10068000E8008093E700949A8091BB00811115C027
:1006900056DE2FEF81EE94E0215080409040E1F74C
:1006A00000C00000109286001092850006C0949849
:1006B00097981092E8001092E700C1988091D800B6
:1006C0009091D900892BA1F48091E7009091E800E6
:1006D000892B71F08091D100813051F4DBDD2FEF57
:1006E00081EE94E0215080409040E1F700C000008E
:1006F000FF90EF90DF90CF90089587E087BB85E073
:1007000084BB8AEB81BBB6DD82E190E072D9809335
:10071000EB0081E190E06DD98093D10080E190E021
:1007200068D9809399008FE090E063D98093E000CE
:100730008EE090E05ED980937A0082B3816482BBC0
:10074000C0989398F89480919900880F8160E7D5BC
:1007500083DD81E090E09093860080938500109285
:10076000AF001092AE001092D0001092CF00109205
:10077000D9001092D800109282001092810021E0DE
:1007800020939A001092800010927F001092ED004A
:100790001092EC00209395001092AB0010928A000A
:1007A000109289001092C6001092C5001092880025
:1007B000109287001092F2001092F1001092C20085
:1007C0001092C1001092F3001092F0001092BB0042
:1007D0001092E6001092E50010929C0010929B008F
:1007E0001092DF001092DE0010929400109293009D
:1007F0001092A8001092A7001092B1001092B000C1
:100800009093C4008093C3001092E1001092E20024
:100810001092E3001092E4001092C7001092C800FA
:100820001092C9001092CA001092A1001092A2006A
:100830001092A3001092A40010929D0010929E00AE
:1008400010929F001092A0001092CB001092CC004A
:100850001092CD001092CE0010927B0010927C007E
:1008600010927D0010927E001092BD001092BE008A
:100870001092BF001092C00010928C0010928B005A
:100880007894BADE089539DF7DD5DBDC0F2EF4E1F4
:10089000CF2EFBEADF2EF3E1EF2EF12CF02D3324E7
:1008A0003A940F2EF8E22F2EF02D12E003E0109272
:1008B00096001092BC0061E070E08EE084DC9093C2
:1008C000EF008093EE009C0140E050E0C701B601CC
:1008D0005ED820938D0030938E0040938F0050930C
:1008E00090008091D8009091D900892B01F58091DA
:1008F0009B0090919C00892BD1F4CA01B9010ED7BD
:1009000020E030E046E955E46FD6882384F48091F6
:10091000850090918600892B89F011DD2FEF31EE53
:1009200084E0215030408040E1F700C00000809119
:10093000850090918600892B09F066C062E370E023
:1009400087E041DCEC019093EF008093EE00609132
:100950008D0070918E0080918F0090919000DED676
:100960004B015C01BE0180E090E0D6D620E030E093
:1009700040E85AE387D72B013C0120E030E04AE70A
:1009800054E4C501B40134D69B01AC01C301B201EA
:1009900079D726EA3BE944E45BE3C1D520E030E0C7
:1009A00040E251E425D62DEC3CEC4CE45DE320D64E
:1009B00020E030E04AE754E465D782D67093B40073
:1009C0006093B30080E090E0A7D620E030E048ECF0
:1009D00052E40AD618164CF020E030EC4FE855E40B
:1009E000C501B4014BD7181634F08091E500909101
:1009F000E600892B41F08091B0009091B100892BE5
:100A000019F065DC54CFD6DC80919B0090919C005E
:100A1000892B09F074C480919500811178C4839961
:100A200076C49FEF2BE732E9915020403040E1F748
:100A300000C0000080919B0090919C00892B09F0E0
:100A40005EC480919500811162C4839960C481E085
:100A500090E09093E6008093E50090939C00809353
:100A60009B0094988091E5009091E600892B09F411
:100A7000D9C08091A7009091A800892B09F4BBC030
:100A80008091DE009091DF00892B09F0BAC080913F
:100A9000C3009091C400892B09F48BC02091B7004A
:100AA0003091B8004091B9005091BA00A0E1BEE089
:100AB0008AD74B015C012091D2003091D300409144
:100AC000D4005091D500ACE3B0E07DD7DC01CB0180
:100AD000880D991DAA1DBB1D8090DA009090DB0047
:100AE000A090DC00B090DD00880E991EAA1EBB1EEF
:100AF00080927B0090927C00A0927D00B0927E005C
:100B00002091E1003091E2004091E3005091E40037
:100B1000A0E1BEE058D72B013C012091C7003091E5
:100B2000C8004091C9005091CA00ACE3B0E04BD777
:100B3000460E571E681E791E8091A1009091A2005A
:100B4000A091A300B091A400480E591E6A1E7B1EFE
:100B50004092BD005092BE006092BF007092C000F3
:100B6000481859086A087B08141415041604170459
:100B70004CF44092CB005092CC006092CD00709229
:100B8000CE000FC080E8480E81E5581E81E0681E47
:100B9000711C4092CB005092CC006092CD007092BC
:100BA000CE0010929D0010929E0010929F00109215
:100BB000A0001092C4001092C3004091CB0050914D
:100BC000CC006091CD007091CE0080919D009091FD
:100BD0009E00A0919F00B091A00084179507A607E2
:100BE000B70700F110929D0010929E0010929F0096
:100BF0001092A00010DB8091DE009091DF00892B25
:100C000089F08091950081110DC083993EC09AEAC8
:100C100026EE36E981E09150204030408040D9F7FF
:100C20000000F9DA80919B0090919C00892B69F17A
:100C300080919500813049F5839927C01092E60094
:100C40001092E50010929C0010929B001092DF0021
:100C50001092DE001092AF001092AE0081E090E0A2
:100C60009093C4008093C3001092CB001092CC00EC
:100C70001092CD001092CE0010929D0010929E0016
:100C800010929F001092A00022DB829915C08091E3
:100C90009A00813071F481E090E09093800080931D
:100CA0007F001092AF001092AE001092D000109210
:100CB000CF0010929A0003C081E080939A00809147
:100CC000D8009091D900892BC1F58091970090911F
:100CD0009800892B91F1809911C0869B0FC0929A40
:100CE0009198C2988091AB00813029F48091F000F6
:100CF0008F5F8093F0001092AB0038C0809B12C0D1
:100D0000869910C0919A9298C2988091AB008111F7
:100D100005C08091F3008F5F8093F30081E08093A2
:100D2000AB0024C091989298C29A1093AB0000DB5C
:100D30001092E8001092E70019C080918100909114
:100D40008200892B49F48091E7009091E800892B7B
:100D500011F0C29801C0C29A919892988091E700D0
:100D60009091E800892B11F00093AB008091F10085
:100D70009091F200883C9105D1F41092F20010920B
:100D8000F1008091F3008B3020F48091F0008B30E3
:100D900050F09198AA98C29ACBDA1092E80010927B
:100DA000E7001093AB001092F3001092F0008091D6
:100DB000F1009091F20001969093F2008093F1007F
:100DC0008091E7009091E800892B09F415DCADD201
:100DD00081116DCD80916D0080FF8EC281FF86C232
:100DE0006AE082E690E0DCD280916D0082FF02C072
:100DF00000007DC2E09162008E2F90E0FC01B1976F
:100E0000E43BF10508F06DC2ED5EFF4F099480915F
:100E1000D8009091D900892B21F081E08093630064
:100E200060C2309263005DC28091970090919800FB
:100E3000892B19F43092630003C081E08093630032
:100E40008091EB00809364004CC28091AE00909141
:100E5000AF00892B29F081E08093630093980CC048
:100E60008091CF009091D000892B21F010936300E6
:100E7000939802C0309263001092D0001092CF007D
:100E800030C280916300813049F018F0823061F007
:100E900010C01092EB00109263000FC081E08093AD
:100EA000EB008093630009C01093EB001093630084
:100EB00004C01093EB00109363006091EB0082E19B
:100EC00090E09FD58091970090919800892B09F42C
:100ED00008C2E0D906C2609163006093990080E186
:100EE00090E08FD598D9F3D9FCC129DAFAC1809165
:100EF000D8009091D900892B41F4CCD981E080931E
:100F0000D10061E081E190E07CD581E08093D10067
:100F100061E081E190E075D5809197009091980013
:100F2000892B21F081E08093960002C030929600D8
:100F30008091960080936300D4C1FAD91092D100B9
:100F400060E081E190E05DD58091970090919800FC
:100F5000892B21F481E08093960002C030929600A4
:100F60008091960080936300BCC1FDD9BAC1E2E6CE
:100F7000F0E081E0818322828091E0008383809190
:100F80007A008483AEC18091810090918200892B88
:100F900021F081E080936700A4C130926700A1C175
:100FA000109282001092810081E08093630099C1C9
:100FB00032D93DD996C140D98091BB00811191C1F0
:100FC00081E090E09093B1008093B0008093BB00EB
:100FD000959A87C18091D8009091D900892B21F4EE
:100FE00081E0809363007DC1109263007AC1949A7E
:100FF00078C1949876C181E090E09093DF0080936F
:10100000DE006FC181E090E09093A8008093A7007C
:1010100068C1E2E6F0E0818190E0A0E0B0E080937A
:10102000E1009093E200A093E300B093E40082819A
:1010300090E0A0E0B0E08093C7009093C800A09338
:10104000C900B093CA00838190E0A0E0B0E0809333
:10105000A1009093A200A093A300B093A400848168
:1010600090E0A0E0B0E08093B7009093B800A09328
:10107000B900B093BA00858190E0A0E0B0E0809321
:10108000D2009093D300A093D400B093D500868172
:1010900090E0A0E0B0E08093DA009093DB00A093B2
:1010A000DC00B093DD001DC11092A8001092A700D3
:1010B00018C190918D0080918E00E2E6F0E091835E
:1010C00082830FC11092AD001092AC0064E670E014
:1010D00081E079D8BC019093EF008093EE0080917D
:1010E000D8009091D900892B29F01092AD00109270
:1010F000AC0036C080E090E00FD320E030E040E864
:101100005AE3C0D34B015C0160918D0070918E0059
:1011100080918F009091900001D320E030E04AE769
:1011200054E466D29B01AC01C501B401ABD326EAFD
:101130003BE944E45BE3F3D120E030E040E251E4FA
:1011400057D22DEC3CEC4CE45DE352D220E030E091
:101150004AE754E497D3B4D27093AD006093AC00E7
:10116000E2E6F0E091ED90839091AC008091AD00CB
:1011700091838283B6C064E670E087E024D8BC0126
:101180009093EF008093EE008091D8009091D90069
:10119000892BB9F180E090E0BFD220E030E040E858
:1011A0005AE370D34B015C0160918D0070918E0009
:1011B00080918F0090919000B1D220E030E04AE71A
:1011C00054E416D29B01AC01C501B4015BD326EAFD
:1011D0003BE944E45BE3A3D120E030E040E251E4AA
:1011E00007D22DEC3CEC4CE45DE302D220E030E091
:1011F0004AE754E447D364D27093B4006093B300D9
:1012000004C01092B4001092B300E2E6F0E022EDC8
:1012100020839091B3008091B40091838283809168
:10122000AB0083835EC08091AB00811101C080D888
:1012300081E090E09093940080939300C19A3FEFF7
:1012400081EE94E0315080409040E1F700C0000012
:1012500064E070E086E0B7D79093EF008093EE00F3
:10126000BC0180E090E058D220E030E040E85AE352
:1012700009D34B015C0160918D0070918E008091CB
:101280008F00909190004AD220E030E04AE754E489
:10129000AFD19B01AC01C501B401F4D220E030E034
:1012A000A9013ED120E030E04AE754E4EBD208D275
:1012B0006093830070938400E2E6F0E023ED2083E6
:1012C00061837283C1988091D100813051F4809103
:1012D000AB00811106C0DED704C08091AB008093C3
:1012E00063006AE082E690E02AD001C000001DD0D1
:1012F0008111DDCA47D0DBCA1BD044D0D8CA809147
:10130000E5009091E600892B09F0B3CB91CC809158
:10131000E5009091E600892B09F0ABCBB6CC82B901
:1013200084E086BF10926E00089580916E0008954B
:1013300080916E008111FCCF8091600008959C0126
:1013400090916E009111FCCF60936F00662379F04D
:10135000F901A0E7B0E0615070E06F5F7F4FC90115
:10136000860F971F21912D93E817F907D9F710924F
:101370006D0088EF8093600085EC86BF81E08093EC
:101380006E00089580916E008111FCCF10926D0067
:1013900088EF8093600085EC86BF10926E00089500
:1013A000AC0190916E009111FCCF80916D0080FF97
:1013B00016C0662379F0A0E7B0E0FA016150262F4D
:1013C00030E02F5F3F4F240F351F9D919193E2171F
:1013D000F307D9F780916D008D7F80936D00809128
:1013E0006D00817008951F920F920FB60F92112415
:1013F0008F939F93EF93FF9381B1803909F45EC07F
:1014000090F4803709F448C038F4882309F471C097
:10141000803609F446C073C0803809F44FC088385C
:1014200009F467C06CC0883A81F038F4883909F44F
:1014300060C0803A09F458C062C0803CC9F0883C62
:1014400009F457C0883B19F05AC010926C00E09123
:101450006C0081E08E0F80936C00F0E0E059FF4F4C
:10146000808183B985EC86BF81E080936E004EC099
:1014700090916C0080916F00981306C080916D0070
:10148000816080936D0003C081B18093600085EC22
:1014900086BF10926E003AC080916D008460809388
:1014A0006D0080916D00826080936D0010926C00E1
:1014B00085EC86BF81E080936E0028C0E0916C00CF
:1014C00081E08E0F80936C0083B1F0E0E059FF4F14
:1014D000808380916D00816080936D0085EC86BF74
:1014E00081E080936E0012C085EC86BF10926E0082
:1014F0000DC081B18093600080E986BF07C081B1D3
:101500008093600085EC86BF10926E00FF91EF9192
:101510009F918F910F900FBE0F901F90189550586C
:10152000BB27AA270ED070C161D130F066D120F060
:1015300031F49F3F11F41EF456C10EF4E095E7FB21
:101540004CC1E92F72D180F3BA1762077307840781
:10155000950718F071F49EF58AC10EF4E0950B2EF4
:10156000BA2FA02D0B01B90190010C01CA01A001F5
:101570001124FF27591B99F0593F50F4503E68F150
:101580001A16F040A22F232F342F4427585FF3CF91
:10159000469537952795A795F0405395C9F77EF462
:1015A0001F16BA0B620B730B840BBAF09150A1F0AB
:1015B000FF0FBB1F661F771F881FC2F70EC0BA0F31
:1015C000621F731F841F48F4879577956795B795B9
:1015D000F7959E3F08F0B3CF9395880F08F09927B1
:1015E000EE0F979587950895D4D008F481E008957B
:1015F0000CD00AC102D140F0F9D030F021F45F3FA5
:1016000019F0EBC0511134C1EEC00FD198F39923FA
:10161000C9F35523B1F3951B550BBB27AA276217B6
:101620007307840738F09F5F5F4F220F331F441FFB
:10163000AA1FA9F333D00E2E3AF0E0E830D0915033
:101640005040E695001CCAF729D0FE2F27D0660F20
:10165000771F881FBB1F261737074807AB07B0E85F
:1016600009F0BB0B802DBF01FF2793585F4F2AF075
:101670009E3F510568F0B1C0FBC05F3FECF3983E60
:10168000DCF3869577956795B795F7959F5FC9F7D2
:10169000880F911D9695879597F90895E1E0660F5B
:1016A000771F881FBB1F621773078407BA0720F0D4
:1016B000621B730B840BBA0BEE1F88F7E09508953D
:1016C000BCD088F09F5790F0B92F9927B751A0F060
:1016D000D1F0660F771F881F991F1AF0BA95C9F7C6
:1016E00012C0B13081F0C3D0B1E00895C0C0672FFF
:1016F000782F8827B85F39F0B93FCCF38695779576
:101700006795B395D9F73EF490958095709561955E
:101710007F4F8F4F9F4F0895E89409C097FB3EF489
:1017200090958095709561957F4F8F4F9F4F99232E
:10173000A9F0F92F96E9BB279395F69587957795AC
:101740006795B795F111F8CFFAF4BB0F11F460FF6C
:101750001BC06F5F7F4F8F4F9F4F16C0882311F0C4
:1017600096E911C0772321F09EE8872F762F05C0D8
:10177000662371F096E8862F70E060E02AF09A9573
:10178000660F771F881FDAF7880F9695879597F968
:101790000895990F0008550FAA0BE0E8FEEF161602
:1017A0001706E807F907C0F012161306E407F50755
:1017B00098F0621B730B840B950B39F40A2661F0C9
:1017C000232B242B252B21F408950A2609F4A1406C
:1017D000A6958FEF811D811D089597F99F6780E879
:1017E00070E060E008959FEF80EC089500240A9473
:1017F0001616170618060906089500240A941216EC
:101800001306140605060895092E0394000C11F41E
:10181000882352F0BB0F40F4BF2B11F460FF04C0CB
:101820006F5F7F4F8F4F9F4F089557FD9058440F24
:10183000551F59F05F3F71F04795880F97FB991F2F
:1018400061F09F3F79F087950895121613061406EC
:10185000551FF2CF4695F1DF08C016161706180679
:10186000991FF1CF86957105610508940895E89454
:10187000BB2766277727CB0197F908958ADF08F4FD
:101880008FEF08950BD0C0CFB1DF28F0B6DF18F08E
:10189000952309F0A2CFA7CF1124EACFC6DFA0F38A
:1018A000959FD1F3950F50E0551F629FF001729FF5
:1018B000BB27F00DB11D639FAA27F00DB11DAA1F14
:1018C000649F6627B00DA11D661F829F2227B00D61
:1018D000A11D621F739FB00DA11D621F839FA00DEC
:1018E000611D221F749F3327A00D611D231F849F3C
:1018F000600D211D822F762F6A2F11249F57504093
:101900008AF0E1F088234AF0EE0FFF1FBB1F661F2D
:10191000771F881F91505040A9F79E3F510570F0E6
:101920005CCFA6CF5F3FECF3983EDCF386957795CE
:101930006795B795F795E7959F5FC1F7FE2B880FE1
:10194000911D9695879597F90895A1E21A2EAA1BE5
:10195000BB1BFD010DC0AA1FBB1FEE1FFF1FA2175F
:10196000B307E407F50720F0A21BB30BE40BF50B5C
:10197000661F771F881F991F1A9469F760957095E5
:10198000809590959B01AC01BD01CF010895052E76
:1019900097FB16F400940FD057FD05D0D6DF07FC57
:1019A00002D046F408C050954095309521953F4FA0
:1019B0004F4F5F4F089590958095709561957F4F3B
:1019C0008F4F9F4F089509D0A59F900DB49F900D04
:1019D000A49F800D911D11240895A29FB001B39F73
:1019E000C001A39F01D0B29F700D811D1124911DD4
:1019F0000895E199FECF9FBB8EBBE09A99278DB3E6
:101A00000895262FE199FECF9FBB8EBBE09A0197E8
:101A10000DB2021631F02DBB0FB6F894E29AE19A9E
:081A20000FBE0895F894FFCFFA
:021A2800F800C4
:00000001FF
